{
  "_format": "hh-sol-artifact-1",
  "contractName": "TestBuffer",
  "sourceName": "contracts/lib/buffer/test/TestBuffer.sol",
  "abi": [
    {
      "inputs": [],
      "name": "checkBufferInitOverflow",
      "outputs": [],
      "stateMutability": "pure",
      "type": "function"
    },
    {
      "inputs": [],
      "name": "testBufferAppend",
      "outputs": [],
      "stateMutability": "pure",
      "type": "function"
    },
    {
      "inputs": [],
      "name": "testBufferAppendInt",
      "outputs": [],
      "stateMutability": "pure",
      "type": "function"
    },
    {
      "inputs": [],
      "name": "testBufferAppendUint8",
      "outputs": [],
      "stateMutability": "pure",
      "type": "function"
    },
    {
      "inputs": [],
      "name": "testBufferResizeAppendBytes",
      "outputs": [],
      "stateMutability": "pure",
      "type": "function"
    },
    {
      "inputs": [],
      "name": "testBufferResizeAppendInt",
      "outputs": [],
      "stateMutability": "pure",
      "type": "function"
    },
    {
      "inputs": [],
      "name": "testBufferResizeAppendManyBytes",
      "outputs": [],
      "stateMutability": "pure",
      "type": "function"
    },
    {
      "inputs": [],
      "name": "testBufferResizeAppendUint8",
      "outputs": [],
      "stateMutability": "pure",
      "type": "function"
    },
    {
      "inputs": [],
      "name": "testBufferZeroSized",
      "outputs": [],
      "stateMutability": "pure",
      "type": "function"
    }
  ],
  "bytecode": "0x608060405234801561001057600080fd5b50611ae6806100206000396000f3fe608060405234801561001057600080fd5b50600436106100935760003560e01c806355be6b3c1161006657806355be6b3c146100c05780637f277cfb146100ca578063975977e8146100d4578063b3a8e9bf146100de578063fe04a433146100e857610093565b8063257f30e8146100985780632d6fc67f146100a257806340d26e2b146100ac5780635532aa8b146100b6575b600080fd5b6100a06100f2565b005b6100aa610271565b005b6100b4610439565b005b6100be61048e565b005b6100c86105dd565b005b6100d2610769565b005b6100dc6108bc565b005b6100e6610a50565b005b6100f0610bfb565b005b6100fa611026565b610105816000610d93565b5061014e6040518060400160405280600581526020017f666972737400000000000000000000000000000000000000000000000000000081525082610e0c90919063ffffffff16565b506020816020015114610196576040517f08c379a000000000000000000000000000000000000000000000000000000000815260040161018d906110c3565b60405180910390fd5b6005816000015151146101de576040517f08c379a00000000000000000000000000000000000000000000000000000000081526004016101d59061112f565b60405180910390fd5b6040516020016101ed906111a6565b6040516020818303038152906040528051906020012081600001516040516020016102189190611221565b604051602081830303815290604052805190602001201461026e576040517f08c379a000000000000000000000000000000000000000000000000000000000815260040161026590611284565b60405180910390fd5b50565b610279611026565b610284816020610d93565b506102cd6040518060400160405280602081526020017f303132333435363738393031323334353637383930313233343536373839303181525082610e0c90919063ffffffff16565b506103166040518060400160405280600281526020017f323300000000000000000000000000000000000000000000000000000000000081525082610e0c90919063ffffffff16565b50606081602001511461035e576040517f08c379a000000000000000000000000000000000000000000000000000000000815260040161035590611316565b60405180910390fd5b6022816000015151146103a6576040517f08c379a000000000000000000000000000000000000000000000000000000000815260040161039d90611382565b60405180910390fd5b6040516020016103b590611414565b6040516020818303038152906040528051906020012081600001516040516020016103e09190611221565b6040516020818303038152906040528051906020012014610436576040517f08c379a000000000000000000000000000000000000000000000000000000000815260040161042d90611284565b60405180910390fd5b50565b610441611026565b61045661010082610d9390919063ffffffff16565b5061048a7fffffffffffffffffffffffffffffffffffffffffffffffffffffffffffffffff82610d9390919063ffffffff16565b5050565b610496611026565b6104a281610100610d93565b506104eb6040518060400160405280600681526020017f48656c6c6f2c000000000000000000000000000000000000000000000000000081525082610e0c90919063ffffffff16565b50610500602082610e2890919063ffffffff16565b506105496040518060400160405280600681526020017f776f726c6421000000000000000000000000000000000000000000000000000081525082610e0c90919063ffffffff16565b5060405160200161055990611475565b6040516020818303038152906040528051906020012081600001516040516020016105849190611221565b60405160208183030381529060405280519060200120146105da576040517f08c379a00000000000000000000000000000000000000000000000000000000081526004016105d190611284565b60405180910390fd5b50565b6105e5611026565b6105fa61010082610d9390919063ffffffff16565b506106436040518060400160405280600581526020017f48656c6c6f00000000000000000000000000000000000000000000000000000081525082610e0c90919063ffffffff16565b5061068c6040518060400160405280600281526020017f2c2000000000000000000000000000000000000000000000000000000000000081525082610e0c90919063ffffffff16565b506106d56040518060400160405280600681526020017f776f726c6421000000000000000000000000000000000000000000000000000081525082610e0c90919063ffffffff16565b506040516020016106e590611475565b6040516020818303038152906040528051906020012081600001516040516020016107109190611221565b6040516020818303038152906040528051906020012014610766576040517f08c379a000000000000000000000000000000000000000000000000000000000815260040161075d90611284565b60405180910390fd5b50565b610771611026565b61077d81610100610d93565b506107c66040518060400160405280600581526020017f48656c6c6f00000000000000000000000000000000000000000000000000000081525082610e0c90919063ffffffff16565b506107df612c20600283610e929092919063ffffffff16565b506108286040518060400160405280600681526020017f776f726c6421000000000000000000000000000000000000000000000000000081525082610e0c90919063ffffffff16565b5060405160200161083890611475565b6040516020818303038152906040528051906020012081600001516040516020016108639190611221565b60405160208183030381529060405280519060200120146108b9576040517f08c379a00000000000000000000000000000000000000000000000000000000081526004016108b090611284565b60405180910390fd5b50565b6108c4611026565b6108cf816020610d93565b506109186040518060400160405280602081526020017f303132333435363738393031323334353637383930313233343536373839303181525082610e0c90919063ffffffff16565b5061092d602082610e2890919063ffffffff16565b506060816020015114610975576040517f08c379a000000000000000000000000000000000000000000000000000000000815260040161096c90611316565b60405180910390fd5b6021816000015151146109bd576040517f08c379a00000000000000000000000000000000000000000000000000000000081526004016109b490611382565b60405180910390fd5b6040516020016109cc906114fc565b6040516020818303038152906040528051906020012081600001516040516020016109f79190611221565b6040516020818303038152906040528051906020012014610a4d576040517f08c379a0000000000000000000000000000000000000000000000000000000008152600401610a4490611284565b60405180910390fd5b50565b610a58611026565b610a63816020610d93565b50610aac6040518060400160405280602081526020017f303132333435363738393031323334353637383930313233343536373839303181525082610e0c90919063ffffffff16565b50610ad8604051806060016040528060408152602001611a716040913982610e0c90919063ffffffff16565b5060c0816020015114610b20576040517f08c379a0000000000000000000000000000000000000000000000000000000008152600401610b1790611583565b60405180910390fd5b606081600001515114610b68576040517f08c379a0000000000000000000000000000000000000000000000000000000008152600401610b5f906115ef565b60405180910390fd5b604051602001610b77906116a7565b604051602081830303815290604052805190602001208160000151604051602001610ba29190611221565b6040516020818303038152906040528051906020012014610bf8576040517f08c379a0000000000000000000000000000000000000000000000000000000008152600401610bef90611284565b60405180910390fd5b50565b610c03611026565b610c0e816020610d93565b50610c576040518060400160405280602081526020017f303132333435363738393031323334353637383930313233343536373839303181525082610e0c90919063ffffffff16565b50610c70612020600283610e929092919063ffffffff16565b506060816020015114610cb8576040517f08c379a0000000000000000000000000000000000000000000000000000000008152600401610caf90611316565b60405180910390fd5b602281600001515114610d00576040517f08c379a0000000000000000000000000000000000000000000000000000000008152600401610cf790611708565b60405180910390fd5b604051602001610d0f9061179a565b604051602081830303815290604052805190602001208160000151604051602001610d3a9190611221565b6040516020818303038152906040528051906020012014610d90576040517f08c379a0000000000000000000000000000000000000000000000000000000008152600401610d8790611284565b60405180910390fd5b50565b610d9b611026565b6000602083610daa91906117e8565b14610dd657602082610dbc91906117e8565b6020610dc89190611848565b82610dd3919061187c565b91505b818360200181815250506040518084526000815282810160200181811015610dfd57600080fd5b80604052505082905092915050565b610e14611026565b610e2083838451610f1f565b905092915050565b610e30611026565b600083600001515190506000600182610e49919061187c565b905084602001518210610e6d57610e6c85600283610e6791906118b0565b611002565b5b84516020838201018581538151831115610e85578282525b5050849250505092915050565b610e9a611026565b6000846000015151905060008184610eb2919061187c565b90508560200151811115610ed757610ed686600283610ed191906118b0565b611002565b5b6000600185610100610ee99190611a25565b610ef39190611848565b905086518281018783198251161781528151841115610f10578382525b50508693505050509392505050565b610f27611026565b8251821115610f3557600080fd5b6000846000015151905060008382610f4d919061187c565b90508560200151811115610f7257610f7186600283610f6c91906118b0565b611002565b5b60008087518051856020830101935080851115610f8d578482525b60208901925050505b60208610610fd45780518252602082610faf919061187c565b9150602081610fbe919061187c565b9050602086610fcd9190611848565b9550610f96565b60006001876020036101000a0390508019825116818451168181178552505050879450505050509392505050565b6000826000015190506110158383610d93565b506110208382610e0c565b50505050565b604051806040016040528060608152602001600081525090565b600082825260208201905092915050565b7f45787065637465642062756666657220636170616369747920746f206265203360008201527f3200000000000000000000000000000000000000000000000000000000000000602082015250565b60006110ad602183611040565b91506110b882611051565b604082019050919050565b600060208201905081810360008301526110dc816110a0565b9050919050565b7f457870656374656420627566666572206c656e67746820746f20626520350000600082015250565b6000611119601e83611040565b9150611124826110e3565b602082019050919050565b600060208201905081810360008301526111488161110c565b9050919050565b600081905092915050565b7f6669727374000000000000000000000000000000000000000000000000000000600082015250565b600061119060058361114f565b915061119b8261115a565b600582019050919050565b60006111b182611183565b9150819050919050565b600081519050919050565b60005b838110156111e45780820151818401526020810190506111c9565b60008484015250505050565b60006111fb826111bb565b611205818561114f565b93506112158185602086016111c6565b80840191505092915050565b600061122d82846111f0565b915081905092915050565b7f556e65787065637465642062756666657220636f6e74656e74732e0000000000600082015250565b600061126e601b83611040565b915061127982611238565b602082019050919050565b6000602082019050818103600083015261129d81611261565b9050919050565b7f45787065637465642062756666657220636170616369747920746f206265203960008201527f3600000000000000000000000000000000000000000000000000000000000000602082015250565b6000611300602183611040565b915061130b826112a4565b604082019050919050565b6000602082019050818103600083015261132f816112f3565b9050919050565b7f457870656374656420627566666572206c656e67746820746f20626520333300600082015250565b600061136c601f83611040565b915061137782611336565b602082019050919050565b6000602082019050818103600083015261139b8161135f565b9050919050565b7f303132333435363738393031323334353637383930313233343536373839303160008201527f3233000000000000000000000000000000000000000000000000000000000000602082015250565b60006113fe60228361114f565b9150611409826113a2565b602282019050919050565b600061141f826113f1565b9150819050919050565b7f48656c6c6f2c20776f726c642100000000000000000000000000000000000000600082015250565b600061145f600d8361114f565b915061146a82611429565b600d82019050919050565b600061148082611452565b9150819050919050565b7f303132333435363738393031323334353637383930313233343536373839303160008201527f2000000000000000000000000000000000000000000000000000000000000000602082015250565b60006114e660218361114f565b91506114f18261148a565b602182019050919050565b6000611507826114d9565b9150819050919050565b7f45787065637465642062756666657220636170616369747920746f206265203160008201527f3932000000000000000000000000000000000000000000000000000000000000602082015250565b600061156d602283611040565b915061157882611511565b604082019050919050565b6000602082019050818103600083015261159c81611560565b9050919050565b7f457870656374656420627566666572206c656e67746820746f20626520393600600082015250565b60006115d9601f83611040565b91506115e4826115a3565b602082019050919050565b60006020820190508181036000830152611608816115cc565b9050919050565b7f303132333435363738393031323334353637383930313233343536373839303160008201527f303132333435363738393031323334353637383930313233343536373839303160208201527f3031323334353637383930313233343536373839303132333435363738393031604082015250565b600061169160608361114f565b915061169c8261160f565b606082019050919050565b60006116b282611684565b9150819050919050565b7f457870656374656420627566666572206c656e67746820746f20626520333400600082015250565b60006116f2601f83611040565b91506116fd826116bc565b602082019050919050565b60006020820190508181036000830152611721816116e5565b9050919050565b7f303132333435363738393031323334353637383930313233343536373839303160008201527f2020000000000000000000000000000000000000000000000000000000000000602082015250565b600061178460228361114f565b915061178f82611728565b602282019050919050565b60006117a582611777565b9150819050919050565b6000819050919050565b7f4e487b7100000000000000000000000000000000000000000000000000000000600052601260045260246000fd5b60006117f3826117af565b91506117fe836117af565b92508261180e5761180d6117b9565b5b828206905092915050565b7f4e487b7100000000000000000000000000000000000000000000000000000000600052601160045260246000fd5b6000611853826117af565b915061185e836117af565b925082820390508181111561187657611875611819565b5b92915050565b6000611887826117af565b9150611892836117af565b92508282019050808211156118aa576118a9611819565b5b92915050565b60006118bb826117af565b91506118c6836117af565b92508282026118d4816117af565b915082820484148315176118eb576118ea611819565b5b5092915050565b60008160011c9050919050565b6000808291508390505b60018511156119495780860481111561192557611924611819565b5b60018516156119345780820291505b8081029050611942856118f2565b9450611909565b94509492505050565b6000826119625760019050611a1e565b816119705760009050611a1e565b81600181146119865760028114611990576119bf565b6001915050611a1e565b60ff8411156119a2576119a1611819565b5b8360020a9150848211156119b9576119b8611819565b5b50611a1e565b5060208310610133831016604e8410600b84101617156119f45782820a9050838111156119ef576119ee611819565b5b611a1e565b611a0184848460016118ff565b92509050818404811115611a1857611a17611819565b5b81810290505b9392505050565b6000611a30826117af565b9150611a3b836117af565b9250611a687fffffffffffffffffffffffffffffffffffffffffffffffffffffffffffffffff8484611952565b90509291505056fe30313233343536373839303132333435363738393031323334353637383930313031323334353637383930313233343536373839303132333435363738393031a2646970667358221220da10699dfce61210d85ff3cf62b58973bc4d62fe2c56db27ba1460ec8b37203064736f6c63430008110033",
  "linkReferences": {},
  "deployedLinkReferences": {}
}