{
  "_format": "hh-sol-artifact-1",
  "contractName": "TestCBOR",
  "sourceName": "contracts/lib/solidity-cborutils/test/TestCBOR.sol",
  "abi": [
    {
      "inputs": [],
      "name": "getTestData",
      "outputs": [
        {
          "internalType": "bytes",
          "name": "",
          "type": "bytes"
        }
      ],
      "stateMutability": "pure",
      "type": "function"
    },
    {
      "inputs": [],
      "name": "getTestDataBigInt",
      "outputs": [
        {
          "internalType": "bytes",
          "name": "",
          "type": "bytes"
        }
      ],
      "stateMutability": "pure",
      "type": "function"
    },
    {
      "inputs": [],
      "name": "getTestDataBigUint",
      "outputs": [
        {
          "internalType": "bytes",
          "name": "",
          "type": "bytes"
        }
      ],
      "stateMutability": "pure",
      "type": "function"
    },
    {
      "inputs": [],
      "name": "getTestDataDefiniteLengthArray",
      "outputs": [
        {
          "internalType": "bytes",
          "name": "",
          "type": "bytes"
        }
      ],
      "stateMutability": "pure",
      "type": "function"
    },
    {
      "inputs": [],
      "name": "getTestDataDefiniteLengthMap",
      "outputs": [
        {
          "internalType": "bytes",
          "name": "",
          "type": "bytes"
        }
      ],
      "stateMutability": "pure",
      "type": "function"
    },
    {
      "inputs": [],
      "name": "getTestDataInvalidCBOR",
      "outputs": [
        {
          "internalType": "bytes",
          "name": "",
          "type": "bytes"
        }
      ],
      "stateMutability": "pure",
      "type": "function"
    }
  ],
  "bytecode": "0x608060405234801561001057600080fd5b506117f9806100206000396000f3fe608060405234801561001057600080fd5b50600436106100625760003560e01c8063020e3cc5146100675780632b458de5146100855780636610f5ca146100a357806377da530f146100c157806383b93152146100df578063c80bd742146100fd575b600080fd5b61006f61011b565b60405161007c919061126e565b60405180910390f35b61008d610172565b60405161009a919061126e565b60405180910390f35b6100ab610249565b6040516100b8919061126e565b60405180910390f35b6100c9610617565b6040516100d6919061126e565b60405180910390f35b6100e76107e0565b6040516100f4919061126e565b60405180910390f35b610105610860565b604051610112919061126e565b60405180910390f35b606060006101296080610975565b90506101348161099c565b61013d8161099c565b6101468161099c565b61015a6000826109c490919063ffffffff16565b61016381610a14565b61016c81610a3c565b91505090565b606060006101806080610975565b905061018b8161099c565b61019f6000826109c490919063ffffffff16565b6101bf600160006101b091906112c9565b826109c490919063ffffffff16565b6101fe60017fffffffffffffffffffffffffffffffffffffffffffffffffffffffffffffffff6101ef91906112fd565b826109c490919063ffffffff16565b6102317fffffffffffffffffffffffffffffffffffffffffffffffffffffffffffffffff826109c490919063ffffffff16565b61023a81610a14565b61024381610a3c565b91505090565b606060006102576040610975565b905061026281610a95565b6102e16040518060400160405280600481526020017f6b657931000000000000000000000000000000000000000000000000000000008152506040518060400160405280600681526020017f76616c756531000000000000000000000000000000000000000000000000000081525083610abd9092919063ffffffff16565b6103436040518060400160405280600481526020017f6c6f6e670000000000000000000000000000000000000000000000000000000081525060405180606001604052806029815260200161179b6029913983610abd9092919063ffffffff16565b6103c26040518060400160405280600581526020017f62797465730000000000000000000000000000000000000000000000000000008152506040518060400160405280600481526020017f546573740000000000000000000000000000000000000000000000000000000081525083610ad69092919063ffffffff16565b61040d6040518060400160405280600481526020017f7472756500000000000000000000000000000000000000000000000000000000815250600183610aef9092919063ffffffff16565b6104586040518060400160405280600581526020017f66616c7365000000000000000000000000000000000000000000000000000000815250600083610aef9092919063ffffffff16565b6104a06040518060400160405280600481526020017f6e756c6c0000000000000000000000000000000000000000000000000000000081525082610b0890919063ffffffff16565b6104e86040518060400160405280600981526020017f756e646566696e6564000000000000000000000000000000000000000000000081525082610b1f90919063ffffffff16565b6105306040518060400160405280600581526020017f617272617900000000000000000000000000000000000000000000000000000081525082610b3690919063ffffffff16565b610544600082610b4d90919063ffffffff16565b610558600182610b4d90919063ffffffff16565b61056c601782610b4d90919063ffffffff16565b610580601882610b4d90919063ffffffff16565b61059561010082610b4d90919063ffffffff16565b6105ab6201000082610b4d90919063ffffffff16565b6105c364010000000082610b4d90919063ffffffff16565b6105f67fffffffffffffffffffffffffffffffffffffffffffffffffffffffffffffffd682610b5d90919063ffffffff16565b6105ff81610a14565b61060881610a14565b61061181610a3c565b91505090565b606060006106256080610975565b90506106308161099c565b6106637f800000000000000000000000000000000000000000000000000000000000000082610bb590919063ffffffff16565b6106a260017f8000000000000000000000000000000000000000000000000000000000000000610693919061133b565b82610bb590919063ffffffff16565b6106e160017f7fffffffffffffffffffffffffffffffffffffffffffffffffffffffffffffff6106d2919061137f565b82610bb590919063ffffffff16565b6107147f7fffffffffffffffffffffffffffffffffffffffffffffffffffffffffffffff82610bb590919063ffffffff16565b6107477fffffffffffffffffffffffffffffffffffffffffffffffff800000000000000082610b5d90919063ffffffff16565b61078660017fffffffffffffffffffffffffffffffffffffffffffffffff800000000000000061077791906113cf565b82610b5d90919063ffffffff16565b6107ad6001677fffffffffffffff61079e919061142f565b82610b5d90919063ffffffff16565b6107c8677fffffffffffffff82610b5d90919063ffffffff16565b6107d181610a14565b6107da81610a3c565b91505090565b606060006107ee6080610975565b90506000610400905061080a8183610c4990919063ffffffff16565b60005b8167ffffffffffffffff168167ffffffffffffffff16101561084f5761083c8184610b5d90919063ffffffff16565b8080610847906114a3565b91505061080d565b5061085982610a3c565b9250505090565b6060600061086e6080610975565b9050610884600382610c5990919063ffffffff16565b6108cf6040518060400160405280600181526020017f6100000000000000000000000000000000000000000000000000000000000000815250606483610c699092919063ffffffff16565b61091a6040518060400160405280600181526020017f620000000000000000000000000000000000000000000000000000000000000081525060c883610c699092919063ffffffff16565b6109666040518060400160405280600181526020017f630000000000000000000000000000000000000000000000000000000000000081525061012c83610c699092919063ffffffff16565b61096f81610a3c565b91505090565b61097d6111a4565b61098b816000015183610c82565b506000816020018181525050919050565b6109a7816004610cfb565b6001816020018181516109ba91906112c9565b9150818152505050565b6109e660026005600660ff16901b178360000151610d2190919063ffffffff16565b50610a1082826040516020016109fc91906114e2565b604051602081830303815290604052610d8b565b5050565b610a1f816007610cfb565b600181602001818151610a3291906112fd565b9150818152505050565b60606000826020015114610a85576040517f08c379a0000000000000000000000000000000000000000000000000000000008152600401610a7c9061155a565b60405180910390fd5b8160000151600001519050919050565b610aa0816005610cfb565b600181602001818151610ab391906112c9565b9150818152505050565b610ac78383610db4565b610ad18382610db4565b505050565b610ae08383610db4565b610aea8382610d8b565b505050565b610af98383610db4565b610b038382610ddd565b505050565b610b128282610db4565b610b1b82610df9565b5050565b610b298282610db4565b610b3282610e07565b5050565b610b408282610db4565b610b498261099c565b5050565b610b5982600083610e15565b5050565b60008160070b12610b7957610b7482600083610e15565b610bb1565b610bb0826001837fffffffffffffffffffffffffffffffffffffffffffffffffffffffffffffffff610bab919061142f565b610e15565b5b5050565b6000811215610c3a57610be060036005600660ff16901b178360000151610d2190919063ffffffff16565b50610c3582827fffffffffffffffffffffffffffffffffffffffffffffffffffffffffffffffff610c11919061137f565b604051602001610c2191906114e2565b604051602081830303815290604052610d8b565b610c45565b610c4482826109c4565b5b5050565b610c5582600483610fbe565b5050565b610c6582600583610fbe565b5050565b610c738383610db4565b610c7d8382610b5d565b505050565b610c8a6111c4565b6000602083610c9991906115a9565b14610cc557602082610cab91906115a9565b6020610cb791906112fd565b82610cc291906112c9565b91505b818360200181815250506040518084526000815282810160200181811015610cec57600080fd5b80604052505082905092915050565b610d1c601f60058360ff16901b178360000151610d2190919063ffffffff16565b505050565b610d296111c4565b600083600001515190506000600182610d4291906112c9565b905084602001518210610d6657610d6585600283610d6091906115da565b610fce565b5b84516020838201018581538151831115610d7e578282525b5050849250505092915050565b610d988260028351610e15565b610daf818360000151610ff290919063ffffffff16565b505050565b610dc18260038351610e15565b610dd8818360000151610ff290919063ffffffff16565b505050565b610df58282610ded576014610df0565b60155b61100e565b5050565b610e0481601661100e565b50565b610e1281601761100e565b50565b60178167ffffffffffffffff1611610e5057610e4a8160058460ff16901b60ff16178460000151610d2190919063ffffffff16565b50610fb9565b60ff8167ffffffffffffffff1611610eae57610e83601860058460ff16901b178460000151610d2190919063ffffffff16565b50610ea88167ffffffffffffffff16600185600001516110349092919063ffffffff16565b50610fb8565b61ffff8167ffffffffffffffff1611610f0d57610ee2601960058460ff16901b178460000151610d2190919063ffffffff16565b50610f078167ffffffffffffffff16600285600001516110349092919063ffffffff16565b50610fb7565b63ffffffff8167ffffffffffffffff1611610f6e57610f43601a60058460ff16901b178460000151610d2190919063ffffffff16565b50610f688167ffffffffffffffff16600485600001516110349092919063ffffffff16565b50610fb6565b610f8f601b60058460ff16901b178460000151610d2190919063ffffffff16565b50610fb48167ffffffffffffffff16600885600001516110349092919063ffffffff16565b505b5b5b5b505050565b610fc9838383610e15565b505050565b600082600001519050610fe18383610c82565b50610fec8382610ff2565b50505050565b610ffa6111c4565b611006838384516110c1565b905092915050565b61102f816005600760ff16901b178360000151610d2190919063ffffffff16565b505050565b61103c6111c4565b600084600001515190506000818461105491906112c9565b90508560200151811115611079576110788660028361107391906115da565b610fce565b5b600060018561010061108b919061174f565b61109591906112fd565b9050865182810187831982511617815281518411156110b2578382525b50508693505050509392505050565b6110c96111c4565b82518211156110d757600080fd5b60008460000151519050600083826110ef91906112c9565b90508560200151811115611114576111138660028361110e91906115da565b610fce565b5b6000808751805185602083010193508085111561112f578482525b60208901925050505b60208610611176578051825260208261115191906112c9565b915060208161116091906112c9565b905060208661116f91906112fd565b9550611138565b60006001876020036101000a0390508019825116818451168181178552505050879450505050509392505050565b60405180604001604052806111b76111c4565b8152602001600081525090565b604051806040016040528060608152602001600081525090565b600081519050919050565b600082825260208201905092915050565b60005b838110156112185780820151818401526020810190506111fd565b60008484015250505050565b6000601f19601f8301169050919050565b6000611240826111de565b61124a81856111e9565b935061125a8185602086016111fa565b61126381611224565b840191505092915050565b600060208201905081810360008301526112888184611235565b905092915050565b6000819050919050565b7f4e487b7100000000000000000000000000000000000000000000000000000000600052601160045260246000fd5b60006112d482611290565b91506112df83611290565b92508282019050808211156112f7576112f661129a565b5b92915050565b600061130882611290565b915061131383611290565b925082820390508181111561132b5761132a61129a565b5b92915050565b6000819050919050565b600061134682611331565b915061135183611331565b9250828201905082811215600083121683821260008412151617156113795761137861129a565b5b92915050565b600061138a82611331565b915061139583611331565b92508282039050818112600084121682821360008512151617156113bc576113bb61129a565b5b92915050565b60008160070b9050919050565b60006113da826113c2565b91506113e5836113c2565b925082820190507fffffffffffffffffffffffffffffffffffffffffffffffff80000000000000008112677fffffffffffffff821317156114295761142861129a565b5b92915050565b600061143a826113c2565b9150611445836113c2565b92508282039050677fffffffffffffff81137fffffffffffffffffffffffffffffffffffffffffffffffff8000000000000000821217156114895761148861129a565b5b92915050565b600067ffffffffffffffff82169050919050565b60006114ae8261148f565b915067ffffffffffffffff82036114c8576114c761129a565b5b600182019050919050565b6114dc81611290565b82525050565b60006020820190506114f760008301846114d3565b92915050565b600082825260208201905092915050565b7f496e76616c69642043424f520000000000000000000000000000000000000000600082015250565b6000611544600c836114fd565b915061154f8261150e565b602082019050919050565b6000602082019050818103600083015261157381611537565b9050919050565b7f4e487b7100000000000000000000000000000000000000000000000000000000600052601260045260246000fd5b60006115b482611290565b91506115bf83611290565b9250826115cf576115ce61157a565b5b828206905092915050565b60006115e582611290565b91506115f083611290565b92508282026115fe81611290565b915082820484148315176116155761161461129a565b5b5092915050565b60008160011c9050919050565b6000808291508390505b60018511156116735780860481111561164f5761164e61129a565b5b600185161561165e5780820291505b808102905061166c8561161c565b9450611633565b94509492505050565b60008261168c5760019050611748565b8161169a5760009050611748565b81600181146116b057600281146116ba576116e9565b6001915050611748565b60ff8411156116cc576116cb61129a565b5b8360020a9150848211156116e3576116e261129a565b5b50611748565b5060208310610133831016604e8410600b841016171561171e5782820a9050838111156117195761171861129a565b5b611748565b61172b8484846001611629565b925090508184048111156117425761174161129a565b5b81810290505b9392505050565b600061175a82611290565b915061176583611290565b92506117927fffffffffffffffffffffffffffffffffffffffffffffffffffffffffffffffff848461167c565b90509291505056fe5468697320737472696e67206973206c6f6e676572207468616e20323420636861726163746572732ea26469706673582212203dc96cf5e4e1d575058d48e5aaf16e81d3a0c2fc3fe4d127a5f2626b06f50e1464736f6c63430008110033",
  "linkReferences": {},
  "deployedLinkReferences": {}
}