{
  "_format": "hh-sol-artifact-1",
  "contractName": "FilecoinMarketConsumer",
  "sourceName": "contracts/filecoin-api-examples/FilecoinMarketConsumer.sol",
  "abi": [
    {
      "inputs": [],
      "name": "activationStatus",
      "outputs": [
        {
          "internalType": "int64",
          "name": "activated",
          "type": "int64"
        },
        {
          "internalType": "int64",
          "name": "terminated",
          "type": "int64"
        }
      ],
      "stateMutability": "view",
      "type": "function"
    },
    {
      "inputs": [],
      "name": "clientCollateral",
      "outputs": [
        {
          "components": [
            {
              "internalType": "bytes",
              "name": "val",
              "type": "bytes"
            },
            {
              "internalType": "bool",
              "name": "neg",
              "type": "bool"
            }
          ],
          "internalType": "struct BigInt",
          "name": "collateral",
          "type": "tuple"
        }
      ],
      "stateMutability": "view",
      "type": "function"
    },
    {
      "inputs": [],
      "name": "dealClientActorId",
      "outputs": [
        {
          "internalType": "uint64",
          "name": "",
          "type": "uint64"
        }
      ],
      "stateMutability": "view",
      "type": "function"
    },
    {
      "inputs": [],
      "name": "dealCommitment",
      "outputs": [
        {
          "internalType": "bytes",
          "name": "data",
          "type": "bytes"
        },
        {
          "internalType": "uint64",
          "name": "size",
          "type": "uint64"
        }
      ],
      "stateMutability": "view",
      "type": "function"
    },
    {
      "inputs": [],
      "name": "dealLabel",
      "outputs": [
        {
          "internalType": "string",
          "name": "",
          "type": "string"
        }
      ],
      "stateMutability": "view",
      "type": "function"
    },
    {
      "inputs": [],
      "name": "dealPricePerEpoch",
      "outputs": [
        {
          "components": [
            {
              "internalType": "bytes",
              "name": "val",
              "type": "bytes"
            },
            {
              "internalType": "bool",
              "name": "neg",
              "type": "bool"
            }
          ],
          "internalType": "struct BigInt",
          "name": "price_per_epoch",
          "type": "tuple"
        }
      ],
      "stateMutability": "view",
      "type": "function"
    },
    {
      "inputs": [],
      "name": "dealProviderActorId",
      "outputs": [
        {
          "internalType": "uint64",
          "name": "",
          "type": "uint64"
        }
      ],
      "stateMutability": "view",
      "type": "function"
    },
    {
      "inputs": [],
      "name": "dealTerm",
      "outputs": [
        {
          "internalType": "int64",
          "name": "start",
          "type": "int64"
        },
        {
          "internalType": "int64",
          "name": "end",
          "type": "int64"
        }
      ],
      "stateMutability": "view",
      "type": "function"
    },
    {
      "inputs": [],
      "name": "isDealActivated",
      "outputs": [
        {
          "internalType": "bool",
          "name": "",
          "type": "bool"
        }
      ],
      "stateMutability": "view",
      "type": "function"
    },
    {
      "inputs": [],
      "name": "providerCollateral",
      "outputs": [
        {
          "components": [
            {
              "internalType": "bytes",
              "name": "val",
              "type": "bytes"
            },
            {
              "internalType": "bool",
              "name": "neg",
              "type": "bool"
            }
          ],
          "internalType": "struct BigInt",
          "name": "collateral",
          "type": "tuple"
        }
      ],
      "stateMutability": "view",
      "type": "function"
    },
    {
      "inputs": [
        {
          "internalType": "uint64",
          "name": "dealId",
          "type": "uint64"
        }
      ],
      "name": "storeAll",
      "outputs": [],
      "stateMutability": "nonpayable",
      "type": "function"
    },
    {
      "inputs": [
        {
          "internalType": "uint64",
          "name": "dealId",
          "type": "uint64"
        }
      ],
      "name": "storeClientCollateral",
      "outputs": [],
      "stateMutability": "nonpayable",
      "type": "function"
    },
    {
      "inputs": [
        {
          "internalType": "uint64",
          "name": "dealId",
          "type": "uint64"
        }
      ],
      "name": "storeDealActivationStatus",
      "outputs": [],
      "stateMutability": "nonpayable",
      "type": "function"
    },
    {
      "inputs": [
        {
          "internalType": "uint64",
          "name": "dealId",
          "type": "uint64"
        }
      ],
      "name": "storeDealClient",
      "outputs": [],
      "stateMutability": "nonpayable",
      "type": "function"
    },
    {
      "inputs": [
        {
          "internalType": "uint64",
          "name": "dealId",
          "type": "uint64"
        }
      ],
      "name": "storeDealClientProvider",
      "outputs": [],
      "stateMutability": "nonpayable",
      "type": "function"
    },
    {
      "inputs": [
        {
          "internalType": "uint64",
          "name": "dealId",
          "type": "uint64"
        }
      ],
      "name": "storeDealCommitment",
      "outputs": [],
      "stateMutability": "nonpayable",
      "type": "function"
    },
    {
      "inputs": [
        {
          "internalType": "uint64",
          "name": "dealId",
          "type": "uint64"
        }
      ],
      "name": "storeDealLabel",
      "outputs": [],
      "stateMutability": "nonpayable",
      "type": "function"
    },
    {
      "inputs": [
        {
          "internalType": "uint64",
          "name": "dealId",
          "type": "uint64"
        }
      ],
      "name": "storeDealTerm",
      "outputs": [],
      "stateMutability": "nonpayable",
      "type": "function"
    },
    {
      "inputs": [
        {
          "internalType": "uint64",
          "name": "dealId",
          "type": "uint64"
        }
      ],
      "name": "storeDealTotalPrice",
      "outputs": [],
      "stateMutability": "nonpayable",
      "type": "function"
    },
    {
      "inputs": [
        {
          "internalType": "uint64",
          "name": "dealId",
          "type": "uint64"
        }
      ],
      "name": "storeDealVerificaton",
      "outputs": [],
      "stateMutability": "nonpayable",
      "type": "function"
    },
    {
      "inputs": [
        {
          "internalType": "uint64",
          "name": "dealId",
          "type": "uint64"
        }
      ],
      "name": "storeProviderCollateral",
      "outputs": [],
      "stateMutability": "nonpayable",
      "type": "function"
    }
  ],
  "bytecode": "0x608060405234801561001057600080fd5b506137f0806100206000396000f3fe608060405234801561001057600080fd5b50600436106101375760003560e01c80639db0f72c116100b8578063d5f268e71161007c578063d5f268e7146102f3578063d7d06d441461030f578063e3a5cee81461032b578063e6171e1c14610349578063f3d4ef2914610367578063fca9226d1461038357610137565b80639db0f72c14610260578063a0b19fd51461027c578063afaef4b91461029a578063b693420b146102b9578063c5f3b1af146102d757610137565b80634c89deac116100ff5780634c89deac146101cd578063519b6837146101e95780636dd64d4c146102055780637f6c82351461022357806395f298cc1461024257610137565b8063047a90c51461013c5780630958f87b1461015b57806310af7c86146101795780632b9e649f14610195578063481ed8e0146101b1575b600080fd5b61014461039f565b604051610152929190612969565b60405180910390f35b61016361044d565b6040516101709190612a3b565b60405180910390f35b610193600480360381019061018e9190612a9d565b610510565b005b6101af60048036038101906101aa9190612a9d565b610539565b005b6101cb60048036038101906101c69190612a9d565b6105ae565b005b6101e760048036038101906101e29190612a9d565b6105e6565b005b61020360048036038101906101fe9190612a9d565b61063c565b005b61020d61068e565b60405161021a9190612b1f565b60405180910390f35b61022b61071c565b604051610239929190612b5d565b60405180910390f35b61024a610748565b6040516102579190612b86565b60405180910390f35b61027a60048036038101906102759190612a9d565b610762565b005b61028461079a565b6040516102919190612a3b565b60405180910390f35b6102a261085d565b6040516102b0929190612b5d565b60405180910390f35b6102c1610889565b6040516102ce9190612b86565b60405180910390f35b6102f160048036038101906102ec9190612a9d565b6108a3565b005b61030d60048036038101906103089190612a9d565b6108f5565b005b61032960048036038101906103249190612a9d565b610947565b005b6103336109bc565b6040516103409190612bb0565b60405180910390f35b6103516109cf565b60405161035e9190612a3b565b60405180910390f35b610381600480360381019061037c9190612a9d565b610a92565b005b61039d60048036038101906103989190612a9d565b610aef565b005b60028060000180546103b090612bfa565b80601f01602080910402602001604051908101604052809291908181526020018280546103dc90612bfa565b80156104295780601f106103fe57610100808354040283529160200191610429565b820191906000526020600020905b81548152906001019060200180831161040c57829003601f168201915b5050505050908060010160009054906101000a900467ffffffffffffffff16905082565b60098060000160405180604001604052908160008201805461046e90612bfa565b80601f016020809104026020016040519081016040528092919081815260200182805461049a90612bfa565b80156104e75780601f106104bc576101008083540402835291602001916104e7565b820191906000526020600020905b8154815290600101906020018083116104ca57829003601f168201915b505050505081526020016001820160009054906101000a900460ff161515151581525050905081565b61051981610b0e565b60000151600160106101000a81548160ff02191690831515021790555050565b61054281610bab565b600b60008201518160000160006101000a81548167ffffffffffffffff021916908360070b67ffffffffffffffff16021790555060208201518160000160086101000a81548167ffffffffffffffff021916908360070b67ffffffffffffffff16021790555090505050565b6105b781610c48565b60000151600160086101000a81548167ffffffffffffffff021916908367ffffffffffffffff16021790555050565b6105ef81610ce5565b600260008201518160000190816106069190612e10565b5060208201518160010160006101000a81548167ffffffffffffffff021916908367ffffffffffffffff16021790555090505050565b61064581610d82565b600960008201518160000160008201518160000190816106659190612e10565b5060208201518160010160006101000a81548160ff021916908315150217905550505090505050565b6000805461069b90612bfa565b80601f01602080910402602001604051908101604052809291908181526020018280546106c790612bfa565b80156107145780601f106106e957610100808354040283529160200191610714565b820191906000526020600020905b8154815290600101906020018083116106f757829003601f168201915b505050505081565b60048060000160009054906101000a900460070b908060000160089054906101000a900460070b905082565b600160009054906101000a900467ffffffffffffffff1681565b61076b81610e1f565b60000151600160006101000a81548167ffffffffffffffff021916908367ffffffffffffffff16021790555050565b6007806000016040518060400160405290816000820180546107bb90612bfa565b80601f01602080910402602001604051908101604052809291908181526020018280546107e790612bfa565b80156108345780601f1061080957610100808354040283529160200191610834565b820191906000526020600020905b81548152906001019060200180831161081757829003601f168201915b505050505081526020016001820160009054906101000a900460ff161515151581525050905081565b600b8060000160009054906101000a900460070b908060000160089054906101000a900460070b905082565b600160089054906101000a900467ffffffffffffffff1681565b6108ac81610ebc565b600560008201518160000160008201518160000190816108cc9190612e10565b5060208201518160010160006101000a81548160ff021916908315150217905550505090505050565b6108fe81610f59565b6007600082015181600001600082015181600001908161091e9190612e10565b5060208201518160010160006101000a81548160ff021916908315150217905550505090505050565b61095081610ff6565b600460008201518160000160006101000a81548167ffffffffffffffff021916908360070b67ffffffffffffffff16021790555060208201518160000160086101000a81548167ffffffffffffffff021916908360070b67ffffffffffffffff16021790555090505050565b600160109054906101000a900460ff1681565b6005806000016040518060400160405290816000820180546109f090612bfa565b80601f0160208091040260200160405190810160405280929190818152602001828054610a1c90612bfa565b8015610a695780601f10610a3e57610100808354040283529160200191610a69565b820191906000526020600020905b815481529060010190602001808311610a4c57829003601f168201915b505050505081526020016001820160009054906101000a900460ff161515151581525050905081565b610a9b81610aef565b610aa481610762565b610aad816105ae565b610ab6816105e6565b610abf81610947565b610ac8816108a3565b610ad1816108f5565b610ada8161063c565b610ae381610510565b610aec81610539565b50565b610af881611093565b6000015160009081610b0a9190612f3d565b5050565b610b1661274f565b6000610b2b8367ffffffffffffffff16611130565b90506000610b75639c9ac8196040518060400160405280600281526020017e0500000000000000000000000000000000000000000000000000000000000081525084607134611164565b90506000610b828261129f565b9050610b8c61274f565b610b9f828261139090919063ffffffff16565b80945050505050919050565b610bb3612764565b6000610bc88367ffffffffffffffff16611130565b90506000610c12639904f2ff6040518060400160405280600281526020017e0500000000000000000000000000000000000000000000000000000000000081525084607134611164565b90506000610c1f8261129f565b9050610c29612764565b610c3c82826113c890919063ffffffff16565b80945050505050919050565b610c50612784565b6000610c658367ffffffffffffffff16611130565b90506000610caf6337bc36da6040518060400160405280600281526020017e0500000000000000000000000000000000000000000000000000000000000081525084607134611164565b90506000610cbc8261129f565b9050610cc6612784565b610cd9828261145c90919063ffffffff16565b80945050505050919050565b610ced6127a1565b6000610d028367ffffffffffffffff16611130565b90506000610d4c634505760a6040518060400160405280600281526020017e0500000000000000000000000000000000000000000000000000000000000081525084607134611164565b90506000610d598261129f565b9050610d636127a1565b610d76828261149790919063ffffffff16565b80945050505050919050565b610d8a6127c5565b6000610d9f8367ffffffffffffffff16611130565b90506000610de963b2059c496040518060400160405280600281526020017e0500000000000000000000000000000000000000000000000000000000000081525084607134611164565b90506000610df68261129f565b9050610e006127c5565b610e13828261151890919063ffffffff16565b80945050505050919050565b610e276127de565b6000610e3c8367ffffffffffffffff16611130565b90506000610e866307a1f0516040518060400160405280600281526020017e0500000000000000000000000000000000000000000000000000000000000081525084607134611164565b90506000610e938261129f565b9050610e9d6127de565b610eb0828261154e90919063ffffffff16565b80945050505050919050565b610ec46127fb565b6000610ed98367ffffffffffffffff16611130565b90506000610f2363ff88e83c6040518060400160405280600281526020017e0500000000000000000000000000000000000000000000000000000000000081525084607134611164565b90506000610f308261129f565b9050610f3a6127fb565b610f4d828261158990919063ffffffff16565b80945050505050919050565b610f61612814565b6000610f768367ffffffffffffffff16611130565b90506000610fc0630bf46c576040518060400160405280600281526020017e0500000000000000000000000000000000000000000000000000000000000081525084607134611164565b90506000610fcd8261129f565b9050610fd7612814565b610fea82826115bf90919063ffffffff16565b80945050505050919050565b610ffe61282d565b60006110138367ffffffffffffffff16611130565b9050600061105d6309c30b206040518060400160405280600281526020017e0500000000000000000000000000000000000000000000000000000000000081525084607134611164565b9050600061106a8261129f565b905061107461282d565b61108782826115f590919063ffffffff16565b80945050505050919050565b61109b61284d565b60006110b08367ffffffffffffffff16611130565b905060006110fa6302c373866040518060400160405280600281526020017e0500000000000000000000000000000000000000000000000000000000000081525084607134611164565b905060006111078261129f565b905061111161284d565b611124828261168990919063ffffffff16565b80945050505050919050565b6060600061113e60406116b7565b905061115383826116de90919063ffffffff16565b61115c816116ee565b915050919050565b606060008073fe0000000000000000000000000000000000000373ffffffffffffffffffffffffffffffffffffffff1688856000888a8c6040516020016111b09695949392919061301e565b6040516020818303038152906040526040516111cc91906130c9565b600060405180830381855af49150503d8060008114611207576040519150601f19603f3d011682016040523d82523d6000602084013e61120c565b606091505b509150915060011515821515146040518060400160405280601181526020017f6163746f722063616c6c206661696c656400000000000000000000000000000081525090611290576040517f08c379a00000000000000000000000000000000000000000000000000000000081526004016112879190612b1f565b60405180910390fd5b50809250505095945050505050565b60606000806000848060200190518101906112ba9190613222565b925092509250600067ffffffffffffffff168267ffffffffffffffff1614806112f75750607167ffffffffffffffff168267ffffffffffffffff16145b611336576040517f08c379a000000000000000000000000000000000000000000000000000000000815260040161132d906132dd565b60405180910390fd5b6000831461134384611747565b90611384576040517f08c379a000000000000000000000000000000000000000000000000000000000815260040161137b9190612b1f565b60405180910390fd5b50809350505050919050565b600080600090506113aa81846117b190919063ffffffff16565b80925081935050508184600001901515908115158152505050505050565b6000806000806113e1828661182990919063ffffffff16565b8093508192505050600281146113fa576113f96132fd565b5b61140d828661187890919063ffffffff16565b8093508195505050611428828661187890919063ffffffff16565b809350819450505083866000019060070b908160070b8152505082866020019060070b908160070b81525050505050505050565b600061147181836118d890919063ffffffff16565b846000018193508267ffffffffffffffff1667ffffffffffffffff168152505050505050565b6000806114ad828461182990919063ffffffff16565b80935081925050506000811115611512576114d1828461192790919063ffffffff16565b8560000181945082905250506114f082846118d890919063ffffffff16565b856020018194508267ffffffffffffffff1667ffffffffffffffff1681525050505b50505050565b6060600061152f818461192790919063ffffffff16565b809250819350505061154082611ad1565b846000018190525050505050565b600061156381836118d890919063ffffffff16565b846000018193508267ffffffffffffffff1667ffffffffffffffff168152505050505050565b606060006115a0818461192790919063ffffffff16565b80925081935050506115b182611ad1565b846000018190525050505050565b606060006115d6818461192790919063ffffffff16565b80925081935050506115e782611ad1565b846000018190525050505050565b60008060008061160e828661182990919063ffffffff16565b809350819250505060028114611627576116266132fd565b5b61163a828661187890919063ffffffff16565b8093508195505050611655828661187890919063ffffffff16565b809350819450505083866000019060070b908160070b8152505082866020019060070b908160070b81525050505050505050565b606060006116a08184611c7890919063ffffffff16565b809250819350505081846000018190525050505050565b6116bf612860565b6116cd816000015183611dc8565b506000816020018181525050919050565b6116ea82600083611e41565b5050565b60606000826020015114611737576040517f08c379a000000000000000000000000000000000000000000000000000000000815260040161172e90613378565b60405180910390fd5b8160000151600001519050919050565b606060008212156117815761175b82611fea565b60405160200161176b91906133fa565b60405160208183030381529060405290506117ac565b61178a82611fea565b60405160200161179a91906133fa565b60405160208183030381529060405290505b919050565b6000806000806117c186866120b8565b8167ffffffffffffffff169150809750819350829450505050600760ff168260ff16146117f1576117f06132fd565b5b601560ff168114806118065750601460ff1681145b611813576118126132fd565b5b601460ff16811415859350935050509250929050565b60008060008061183986866120b8565b8167ffffffffffffffff169150809750819350829450505050600460ff168260ff1614611869576118686132fd565b5b80859350935050509250929050565b60008060008061188886866120b8565b8167ffffffffffffffff169150809750819350829450505050600160ff168260ff1614806118bc5750600060ff168260ff16145b6118c9576118c86132fd565b5b80859350935050509250929050565b6000806000806118e886866120b8565b8167ffffffffffffffff169150809750819350829450505050600060ff168260ff1614611918576119176132fd565b5b80859350935050509250929050565b6060600080600061193886866120b8565b8167ffffffffffffffff169150809750819350829450505050600660ff168260ff16148061196c5750600260ff168260ff16145b611979576119786132fd565b5b600660ff168260ff16036119c25761199186866120b8565b8167ffffffffffffffff169150809750819350829450505050600260ff168260ff16146119c1576119c06132fd565b5b5b600081866119d0919061344f565b905060008267ffffffffffffffff8111156119ee576119ed612c2b565b5b6040519080825280601f01601f191660200182016040528015611a205781602001600182028036833780820191505090505b5090506000808890505b83811015611ab357898181518110611a4557611a44613483565b5b602001015160f81c60f81b838381518110611a6357611a62613483565b5b60200101907effffffffffffffffffffffffffffffffffffffffffffffffffffffffffffff1916908160001a9053508180611a9d906134b2565b9250508080611aab906134b2565b915050611a2a565b50818489611ac1919061344f565b9650965050505050509250929050565b611ad9612880565b6000825103611b1757604051806040016040528060405180604001604052806001815260200160008152508152602001600015158152509050611c73565b600060018351611b2791906134fa565b67ffffffffffffffff811115611b4057611b3f612c2b565b5b6040519080825280601f01601f191660200182016040528015611b725781602001600182028036833780820191505090505b5090506000600160f81b84600081518110611b9057611b8f613483565b5b602001015160f81c60f81b7effffffffffffffffffffffffffffffffffffffffffffffffffffffffffffff191603611bc757600190505b6000600190505b8451811015611c5657848181518110611bea57611be9613483565b5b602001015160f81c60f81b83600183611c0391906134fa565b81518110611c1457611c13613483565b5b60200101907effffffffffffffffffffffffffffffffffffffffffffffffffffffffffffff1916908160001a9053508080611c4e906134b2565b915050611bce565b506040518060400160405280838152602001821515815250925050505b919050565b60606000806000611c8986866120b8565b8167ffffffffffffffff169150809750819350829450505050600360ff168260ff1614611cb957611cb86132fd565b5b60008186611cc7919061344f565b905060008267ffffffffffffffff811115611ce557611ce4612c2b565b5b6040519080825280601f01601f191660200182016040528015611d175781602001600182028036833780820191505090505b5090506000808890505b83811015611daa57898181518110611d3c57611d3b613483565b5b602001015160f81c60f81b838381518110611d5a57611d59613483565b5b60200101907effffffffffffffffffffffffffffffffffffffffffffffffffffffffffffff1916908160001a9053508180611d94906134b2565b9250508080611da2906134b2565b915050611d21565b50818489611db8919061344f565b9650965050505050509250929050565b611dd061289c565b6000602083611ddf919061355d565b14611e0b57602082611df1919061355d565b6020611dfd91906134fa565b82611e08919061344f565b91505b818360200181815250506040518084526000815282810160200181811015611e3257600080fd5b80604052505082905092915050565b60178167ffffffffffffffff1611611e7c57611e768160058460ff16901b60ff1617846000015161224690919063ffffffff16565b50611fe5565b60ff8167ffffffffffffffff1611611eda57611eaf601860058460ff16901b17846000015161224690919063ffffffff16565b50611ed48167ffffffffffffffff16600185600001516122b09092919063ffffffff16565b50611fe4565b61ffff8167ffffffffffffffff1611611f3957611f0e601960058460ff16901b17846000015161224690919063ffffffff16565b50611f338167ffffffffffffffff16600285600001516122b09092919063ffffffff16565b50611fe3565b63ffffffff8167ffffffffffffffff1611611f9a57611f6f601a60058460ff16901b17846000015161224690919063ffffffff16565b50611f948167ffffffffffffffff16600485600001516122b09092919063ffffffff16565b50611fe2565b611fbb601b60058460ff16901b17846000015161224690919063ffffffff16565b50611fe08167ffffffffffffffff16600885600001516122b09092919063ffffffff16565b505b5b5b5b505050565b606060006001611ff98461233d565b01905060008167ffffffffffffffff81111561201857612017612c2b565b5b6040519080825280601f01601f19166020018201604052801561204a5781602001600182028036833780820191505090505b509050600082602001820190505b6001156120ad578080600190039150507f3031323334353637383961626364656600000000000000000000000000000000600a86061a8153600a85816120a1576120a061352e565b5b04945060008503612058575b819350505050919050565b6000806000806120c88686612490565b90506001856120d7919061344f565b94506000600560e0831660ff16901c90506000601f83169050601c8160ff1610612104576121036132fd565b5b60188160ff161015612127578181888160ff16915095509550955050505061223f565b60188160ff160361217c57600061213e8989612490565b905060018861214d919061344f565b975060188160ff161015612164576121636132fd565b5b8281898160ff1691509650965096505050505061223f565b60198160ff16036121bd57600061219389896124f7565b90506002886121a2919061344f565b97508281898161ffff1691509650965096505050505061223f565b601a8160ff16036122005760006121d4898961255e565b90506004886121e3919061344f565b97508281898163ffffffff1691509650965096505050505061223f565b601b8160ff1614612214576122136132fd565b5b600061222089896125c5565b905060088861222f919061344f565b9750828189965096509650505050505b9250925092565b61224e61289c565b600083600001515190506000600182612267919061344f565b90508460200151821061228b5761228a85600283612285919061358e565b61262c565b5b845160208382010185815381518311156122a3578282525b5050849250505092915050565b6122b861289c565b60008460000151519050600081846122d0919061344f565b905085602001518111156122f5576122f4866002836122ef919061358e565b61262c565b5b60006001856101006123079190613703565b61231191906134fa565b90508651828101878319825116178152815184111561232e578382525b50508693505050509392505050565b600080600090507a184f03e93ff9f4daa797ed6e38ed64bf6a1f010000000000000000831061239b577a184f03e93ff9f4daa797ed6e38ed64bf6a1f01000000000000000083816123915761239061352e565b5b0492506040810190505b6d04ee2d6d415b85acef810000000083106123d8576d04ee2d6d415b85acef810000000083816123ce576123cd61352e565b5b0492506020810190505b662386f26fc10000831061240757662386f26fc1000083816123fd576123fc61352e565b5b0492506010810190505b6305f5e1008310612430576305f5e10083816124265761242561352e565b5b0492506008810190505b612710831061245557612710838161244b5761244a61352e565b5b0492506004810190505b60648310612478576064838161246e5761246d61352e565b5b0492506002810190505b600a8310612487576001810190505b80915050919050565b600060018261249f919061344f565b835110156124e2576040517f08c379a00000000000000000000000000000000000000000000000000000000081526004016124d99061379a565b60405180910390fd5b60008260010184015190508091505092915050565b6000600282612506919061344f565b83511015612549576040517f08c379a00000000000000000000000000000000000000000000000000000000081526004016125409061379a565b60405180910390fd5b60008260020184015190508091505092915050565b600060048261256d919061344f565b835110156125b0576040517f08c379a00000000000000000000000000000000000000000000000000000000081526004016125a79061379a565b60405180910390fd5b60008260040184015190508091505092915050565b60006008826125d4919061344f565b83511015612617576040517f08c379a000000000000000000000000000000000000000000000000000000000815260040161260e9061379a565b60405180910390fd5b60008260080184015190508091505092915050565b60008260000151905061263f8383611dc8565b5061264a8382612650565b50505050565b61265861289c565b6126648383845161266c565b905092915050565b61267461289c565b825182111561268257600080fd5b600084600001515190506000838261269a919061344f565b905085602001518111156126bf576126be866002836126b9919061358e565b61262c565b5b600080875180518560208301019350808511156126da578482525b60208901925050505b6020861061272157805182526020826126fc919061344f565b915060208161270b919061344f565b905060208661271a91906134fa565b95506126e3565b60006001876020036101000a0390508019825116818451168181178552505050879450505050509392505050565b60405180602001604052806000151581525090565b6040518060400160405280600060070b8152602001600060070b81525090565b6040518060200160405280600067ffffffffffffffff1681525090565b604051806040016040528060608152602001600067ffffffffffffffff1681525090565b60405180602001604052806127d8612880565b81525090565b6040518060200160405280600067ffffffffffffffff1681525090565b604051806020016040528061280e612880565b81525090565b6040518060200160405280612827612880565b81525090565b6040518060400160405280600060070b8152602001600060070b81525090565b6040518060200160405280606081525090565b604051806040016040528061287361289c565b8152602001600081525090565b6040518060400160405280606081526020016000151581525090565b604051806040016040528060608152602001600081525090565b600081519050919050565b600082825260208201905092915050565b60005b838110156128f05780820151818401526020810190506128d5565b60008484015250505050565b6000601f19601f8301169050919050565b6000612918826128b6565b61292281856128c1565b93506129328185602086016128d2565b61293b816128fc565b840191505092915050565b600067ffffffffffffffff82169050919050565b61296381612946565b82525050565b60006040820190508181036000830152612983818561290d565b9050612992602083018461295a565b9392505050565b600082825260208201905092915050565b60006129b5826128b6565b6129bf8185612999565b93506129cf8185602086016128d2565b6129d8816128fc565b840191505092915050565b60008115159050919050565b6129f8816129e3565b82525050565b60006040830160008301518482036000860152612a1b82826129aa565b9150506020830151612a3060208601826129ef565b508091505092915050565b60006020820190508181036000830152612a5581846129fe565b905092915050565b6000604051905090565b600080fd5b600080fd5b612a7a81612946565b8114612a8557600080fd5b50565b600081359050612a9781612a71565b92915050565b600060208284031215612ab357612ab2612a67565b5b6000612ac184828501612a88565b91505092915050565b600081519050919050565b600082825260208201905092915050565b6000612af182612aca565b612afb8185612ad5565b9350612b0b8185602086016128d2565b612b14816128fc565b840191505092915050565b60006020820190508181036000830152612b398184612ae6565b905092915050565b60008160070b9050919050565b612b5781612b41565b82525050565b6000604082019050612b726000830185612b4e565b612b7f6020830184612b4e565b9392505050565b6000602082019050612b9b600083018461295a565b92915050565b612baa816129e3565b82525050565b6000602082019050612bc56000830184612ba1565b92915050565b7f4e487b7100000000000000000000000000000000000000000000000000000000600052602260045260246000fd5b60006002820490506001821680612c1257607f821691505b602082108103612c2557612c24612bcb565b5b50919050565b7f4e487b7100000000000000000000000000000000000000000000000000000000600052604160045260246000fd5b60008190508160005260206000209050919050565b60006020601f8301049050919050565b600082821b905092915050565b600060088302612cbc7fffffffffffffffffffffffffffffffffffffffffffffffffffffffffffffffff82612c7f565b612cc68683612c7f565b95508019841693508086168417925050509392505050565b6000819050919050565b6000819050919050565b6000612d0d612d08612d0384612cde565b612ce8565b612cde565b9050919050565b6000819050919050565b612d2783612cf2565b612d3b612d3382612d14565b848454612c8c565b825550505050565b600090565b612d50612d43565b612d5b818484612d1e565b505050565b5b81811015612d7f57612d74600082612d48565b600181019050612d61565b5050565b601f821115612dc457612d9581612c5a565b612d9e84612c6f565b81016020851015612dad578190505b612dc1612db985612c6f565b830182612d60565b50505b505050565b600082821c905092915050565b6000612de760001984600802612dc9565b1980831691505092915050565b6000612e008383612dd6565b9150826002028217905092915050565b612e19826128b6565b67ffffffffffffffff811115612e3257612e31612c2b565b5b612e3c8254612bfa565b612e47828285612d83565b600060209050601f831160018114612e7a5760008415612e68578287015190505b612e728582612df4565b865550612eda565b601f198416612e8886612c5a565b60005b82811015612eb057848901518255600182019150602085019450602081019050612e8b565b86831015612ecd5784890151612ec9601f891682612dd6565b8355505b6001600288020188555050505b505050505050565b60008190508160005260206000209050919050565b601f821115612f3857612f0981612ee2565b612f1284612c6f565b81016020851015612f21578190505b612f35612f2d85612c6f565b830182612d60565b50505b505050565b612f4682612aca565b67ffffffffffffffff811115612f5f57612f5e612c2b565b5b612f698254612bfa565b612f74828285612ef7565b600060209050601f831160018114612fa75760008415612f95578287015190505b612f9f8582612df4565b865550613007565b601f198416612fb586612ee2565b60005b82811015612fdd57848901518255600182019150602085019450602081019050612fb8565b86831015612ffa5784890151612ff6601f891682612dd6565b8355505b6001600288020188555050505b505050505050565b61301881612cde565b82525050565b600060c082019050613033600083018961295a565b613040602083018861300f565b61304d604083018761295a565b61305a606083018661295a565b818103608083015261306c818561290d565b905081810360a0830152613080818461290d565b9050979650505050505050565b600081905092915050565b60006130a3826128b6565b6130ad818561308d565b93506130bd8185602086016128d2565b80840191505092915050565b60006130d58284613098565b915081905092915050565b6000819050919050565b6130f3816130e0565b81146130fe57600080fd5b50565b600081519050613110816130ea565b92915050565b60008151905061312581612a71565b92915050565b600080fd5b600080fd5b61313e826128fc565b810181811067ffffffffffffffff8211171561315d5761315c612c2b565b5b80604052505050565b6000613170612a5d565b905061317c8282613135565b919050565b600067ffffffffffffffff82111561319c5761319b612c2b565b5b6131a5826128fc565b9050602081019050919050565b60006131c56131c084613181565b613166565b9050828152602081018484840111156131e1576131e0613130565b5b6131ec8482856128d2565b509392505050565b600082601f8301126132095761320861312b565b5b81516132198482602086016131b2565b91505092915050565b60008060006060848603121561323b5761323a612a67565b5b600061324986828701613101565b935050602061325a86828701613116565b925050604084015167ffffffffffffffff81111561327b5761327a612a6c565b5b613287868287016131f4565b9150509250925092565b7f726573706f6e736520636f646563206e6f7420737570706f7274656400000000600082015250565b60006132c7601c83612ad5565b91506132d282613291565b602082019050919050565b600060208201905081810360008301526132f6816132ba565b9050919050565b7f4e487b7100000000000000000000000000000000000000000000000000000000600052600160045260246000fd5b7f496e76616c69642043424f520000000000000000000000000000000000000000600082015250565b6000613362600c83612ad5565b915061336d8261332c565b602082019050919050565b6000602082019050818103600083015261339181613355565b9050919050565b7f6163746f72206572726f7220636f6465202d0000000000000000000000000000815250565b600081905092915050565b60006133d482612aca565b6133de81856133be565b93506133ee8185602086016128d2565b80840191505092915050565b600061340582613398565b60128201915061341582846133c9565b915081905092915050565b7f4e487b7100000000000000000000000000000000000000000000000000000000600052601160045260246000fd5b600061345a82612cde565b915061346583612cde565b925082820190508082111561347d5761347c613420565b5b92915050565b7f4e487b7100000000000000000000000000000000000000000000000000000000600052603260045260246000fd5b60006134bd82612cde565b91507fffffffffffffffffffffffffffffffffffffffffffffffffffffffffffffffff82036134ef576134ee613420565b5b600182019050919050565b600061350582612cde565b915061351083612cde565b925082820390508181111561352857613527613420565b5b92915050565b7f4e487b7100000000000000000000000000000000000000000000000000000000600052601260045260246000fd5b600061356882612cde565b915061357383612cde565b9250826135835761358261352e565b5b828206905092915050565b600061359982612cde565b91506135a483612cde565b92508282026135b281612cde565b915082820484148315176135c9576135c8613420565b5b5092915050565b60008160011c9050919050565b6000808291508390505b60018511156136275780860481111561360357613602613420565b5b60018516156136125780820291505b8081029050613620856135d0565b94506135e7565b94509492505050565b60008261364057600190506136fc565b8161364e57600090506136fc565b8160018114613664576002811461366e5761369d565b60019150506136fc565b60ff8411156136805761367f613420565b5b8360020a91508482111561369757613696613420565b5b506136fc565b5060208310610133831016604e8410600b84101617156136d25782820a9050838111156136cd576136cc613420565b5b6136fc565b6136df84848460016135dd565b925090508184048111156136f6576136f5613420565b5b81810290505b9392505050565b600061370e82612cde565b915061371983612cde565b92506137467fffffffffffffffffffffffffffffffffffffffffffffffffffffffffffffffff8484613630565b905092915050565b7f736c6963696e67206f7574206f662072616e6765000000000000000000000000600082015250565b6000613784601483612ad5565b915061378f8261374e565b602082019050919050565b600060208201905081810360008301526137b381613777565b905091905056fea2646970667358221220ad22be9b6afa716f840bca91cf08022de7d4bd74f6c43df541bdb1d452fb4a9164736f6c63430008110033",
  "linkReferences": {},
  "deployedLinkReferences": {}
}