{
  "_format": "hh-sol-artifact-1",
  "contractName": "userTable",
  "sourceName": "contracts/UserTable.sol",
  "abi": [
    {
      "inputs": [],
      "stateMutability": "nonpayable",
      "type": "constructor"
    },
    {
      "anonymous": false,
      "inputs": [
        {
          "indexed": true,
          "internalType": "address",
          "name": "owner",
          "type": "address"
        },
        {
          "indexed": true,
          "internalType": "address",
          "name": "approved",
          "type": "address"
        },
        {
          "indexed": true,
          "internalType": "uint256",
          "name": "tokenId",
          "type": "uint256"
        }
      ],
      "name": "Approval",
      "type": "event"
    },
    {
      "anonymous": false,
      "inputs": [
        {
          "indexed": true,
          "internalType": "address",
          "name": "owner",
          "type": "address"
        },
        {
          "indexed": true,
          "internalType": "address",
          "name": "operator",
          "type": "address"
        },
        {
          "indexed": false,
          "internalType": "bool",
          "name": "approved",
          "type": "bool"
        }
      ],
      "name": "ApprovalForAll",
      "type": "event"
    },
    {
      "anonymous": false,
      "inputs": [
        {
          "indexed": true,
          "internalType": "address",
          "name": "from",
          "type": "address"
        },
        {
          "indexed": true,
          "internalType": "address",
          "name": "to",
          "type": "address"
        },
        {
          "indexed": true,
          "internalType": "uint256",
          "name": "tokenId",
          "type": "uint256"
        }
      ],
      "name": "Transfer",
      "type": "event"
    },
    {
      "inputs": [
        {
          "internalType": "address",
          "name": "to",
          "type": "address"
        },
        {
          "internalType": "uint256",
          "name": "tokenId",
          "type": "uint256"
        }
      ],
      "name": "approve",
      "outputs": [],
      "stateMutability": "nonpayable",
      "type": "function"
    },
    {
      "inputs": [
        {
          "internalType": "address",
          "name": "owner",
          "type": "address"
        }
      ],
      "name": "balanceOf",
      "outputs": [
        {
          "internalType": "uint256",
          "name": "",
          "type": "uint256"
        }
      ],
      "stateMutability": "view",
      "type": "function"
    },
    {
      "inputs": [],
      "name": "getAllFiles",
      "outputs": [
        {
          "components": [
            {
              "internalType": "uint256",
              "name": "fileIndex",
              "type": "uint256"
            },
            {
              "internalType": "string",
              "name": "name",
              "type": "string"
            },
            {
              "internalType": "string",
              "name": "imageURI",
              "type": "string"
            },
            {
              "internalType": "uint256",
              "name": "forAll",
              "type": "uint256"
            },
            {
              "internalType": "bool",
              "name": "sharable",
              "type": "bool"
            }
          ],
          "internalType": "struct userTable.FileDetails[]",
          "name": "",
          "type": "tuple[]"
        }
      ],
      "stateMutability": "view",
      "type": "function"
    },
    {
      "inputs": [
        {
          "internalType": "uint256",
          "name": "tokenId",
          "type": "uint256"
        }
      ],
      "name": "getApproved",
      "outputs": [
        {
          "internalType": "address",
          "name": "",
          "type": "address"
        }
      ],
      "stateMutability": "view",
      "type": "function"
    },
    {
      "inputs": [],
      "name": "getCounter",
      "outputs": [
        {
          "internalType": "uint256",
          "name": "",
          "type": "uint256"
        }
      ],
      "stateMutability": "view",
      "type": "function"
    },
    {
      "inputs": [],
      "name": "getUserFiless",
      "outputs": [
        {
          "internalType": "uint256[]",
          "name": "",
          "type": "uint256[]"
        }
      ],
      "stateMutability": "view",
      "type": "function"
    },
    {
      "inputs": [
        {
          "internalType": "address",
          "name": "owner",
          "type": "address"
        },
        {
          "internalType": "address",
          "name": "operator",
          "type": "address"
        }
      ],
      "name": "isApprovedForAll",
      "outputs": [
        {
          "internalType": "bool",
          "name": "",
          "type": "bool"
        }
      ],
      "stateMutability": "view",
      "type": "function"
    },
    {
      "inputs": [
        {
          "internalType": "uint256",
          "name": "_characterIndex",
          "type": "uint256"
        }
      ],
      "name": "mintFileNFT",
      "outputs": [],
      "stateMutability": "nonpayable",
      "type": "function"
    },
    {
      "inputs": [],
      "name": "name",
      "outputs": [
        {
          "internalType": "string",
          "name": "",
          "type": "string"
        }
      ],
      "stateMutability": "view",
      "type": "function"
    },
    {
      "inputs": [
        {
          "internalType": "uint256",
          "name": "",
          "type": "uint256"
        }
      ],
      "name": "nftHolders",
      "outputs": [
        {
          "internalType": "address",
          "name": "",
          "type": "address"
        }
      ],
      "stateMutability": "view",
      "type": "function"
    },
    {
      "inputs": [
        {
          "internalType": "address",
          "name": "",
          "type": "address"
        },
        {
          "internalType": "uint256",
          "name": "",
          "type": "uint256"
        }
      ],
      "name": "ownerItems",
      "outputs": [
        {
          "internalType": "uint256",
          "name": "",
          "type": "uint256"
        }
      ],
      "stateMutability": "view",
      "type": "function"
    },
    {
      "inputs": [
        {
          "internalType": "uint256",
          "name": "tokenId",
          "type": "uint256"
        }
      ],
      "name": "ownerOf",
      "outputs": [
        {
          "internalType": "address",
          "name": "",
          "type": "address"
        }
      ],
      "stateMutability": "view",
      "type": "function"
    },
    {
      "inputs": [
        {
          "internalType": "address",
          "name": "from",
          "type": "address"
        },
        {
          "internalType": "address",
          "name": "to",
          "type": "address"
        },
        {
          "internalType": "uint256",
          "name": "tokenId",
          "type": "uint256"
        }
      ],
      "name": "safeTransferFrom",
      "outputs": [],
      "stateMutability": "nonpayable",
      "type": "function"
    },
    {
      "inputs": [
        {
          "internalType": "address",
          "name": "from",
          "type": "address"
        },
        {
          "internalType": "address",
          "name": "to",
          "type": "address"
        },
        {
          "internalType": "uint256",
          "name": "tokenId",
          "type": "uint256"
        },
        {
          "internalType": "bytes",
          "name": "data",
          "type": "bytes"
        }
      ],
      "name": "safeTransferFrom",
      "outputs": [],
      "stateMutability": "nonpayable",
      "type": "function"
    },
    {
      "inputs": [
        {
          "internalType": "address",
          "name": "operator",
          "type": "address"
        },
        {
          "internalType": "bool",
          "name": "approved",
          "type": "bool"
        }
      ],
      "name": "setApprovalForAll",
      "outputs": [],
      "stateMutability": "nonpayable",
      "type": "function"
    },
    {
      "inputs": [
        {
          "internalType": "string",
          "name": "BaseURI",
          "type": "string"
        }
      ],
      "name": "setBaseURI",
      "outputs": [],
      "stateMutability": "nonpayable",
      "type": "function"
    },
    {
      "inputs": [
        {
          "internalType": "bytes4",
          "name": "interfaceId",
          "type": "bytes4"
        }
      ],
      "name": "supportsInterface",
      "outputs": [
        {
          "internalType": "bool",
          "name": "",
          "type": "bool"
        }
      ],
      "stateMutability": "view",
      "type": "function"
    },
    {
      "inputs": [],
      "name": "symbol",
      "outputs": [
        {
          "internalType": "string",
          "name": "",
          "type": "string"
        }
      ],
      "stateMutability": "view",
      "type": "function"
    },
    {
      "inputs": [],
      "name": "tokenCounter",
      "outputs": [
        {
          "internalType": "uint256",
          "name": "",
          "type": "uint256"
        }
      ],
      "stateMutability": "view",
      "type": "function"
    },
    {
      "inputs": [
        {
          "internalType": "uint256",
          "name": "_tokenId",
          "type": "uint256"
        }
      ],
      "name": "tokenURI",
      "outputs": [
        {
          "internalType": "string",
          "name": "",
          "type": "string"
        }
      ],
      "stateMutability": "pure",
      "type": "function"
    },
    {
      "inputs": [
        {
          "internalType": "address",
          "name": "from",
          "type": "address"
        },
        {
          "internalType": "address",
          "name": "to",
          "type": "address"
        },
        {
          "internalType": "uint256",
          "name": "tokenId",
          "type": "uint256"
        }
      ],
      "name": "transferFrom",
      "outputs": [],
      "stateMutability": "nonpayable",
      "type": "function"
    }
  ],
  "bytecode": "0x60806040523480156200001157600080fd5b506040518060400160405280600c81526020016b53747265616d6147656e696360a01b8152506040518060400160405280600581526020016447656e696360d81b815250816000908162000066919062000128565b50600162000075828262000128565b5050600060065550620001f4565b634e487b7160e01b600052604160045260246000fd5b600181811c90821680620000ae57607f821691505b602082108103620000cf57634e487b7160e01b600052602260045260246000fd5b50919050565b601f8211156200012357600081815260208120601f850160051c81016020861015620000fe5750805b601f850160051c820191505b818110156200011f578281556001016200010a565b5050505b505050565b81516001600160401b0381111562000144576200014462000083565b6200015c8162000155845462000099565b84620000d5565b602080601f8311600181146200019457600084156200017b5750858301515b600019600386901b1c1916600185901b1785556200011f565b600085815260208120601f198616915b82811015620001c557888601518255948401946001909101908401620001a4565b5085821015620001e45787850151600019600388901b60f8161c191681555b5050505050600190811b01905550565b61197480620002046000396000f3fe608060405234801561001057600080fd5b50600436106101375760003560e01c806395d89b41116100b8578063cc6c1a5e1161007c578063cc6c1a5e14610282578063d082e38114610297578063e985e9c5146102a0578063f524c151146102b3578063fd32dd9e146102c6578063ff24b5d5146102ef57600080fd5b806395d89b411461022e578063a22cb46514610236578063b29c489614610249578063b88d4fde1461025c578063c87b56dd1461026f57600080fd5b806342842e0e116100ff57806342842e0e146101cc57806355f804b3146101df5780636352211e146101f257806370a08231146102055780638ada066e1461022657600080fd5b806301ffc9a71461013c57806306fdde0314610164578063081812fc14610179578063095ea7b3146101a457806323b872dd146101b9575b600080fd5b61014f61014a3660046111b8565b610304565b60405190151581526020015b60405180910390f35b61016c610356565b60405161015b919061122c565b61018c61018736600461123f565b6103e8565b6040516001600160a01b03909116815260200161015b565b6101b76101b2366004611274565b61040f565b005b6101b76101c736600461129e565b610529565b6101b76101da36600461129e565b61055a565b6101b76101ed366004611366565b610575565b61018c61020036600461123f565b610585565b6102186102133660046113af565b6105e5565b60405190815260200161015b565b600654610218565b61016c61066b565b6101b76102443660046113ca565b61067a565b6101b761025736600461123f565b610685565b6101b761026a366004611406565b610703565b61016c61027d36600461123f565b61073b565b61028a610772565b60405161015b9190611482565b61021860065481565b61014f6102ae3660046114c6565b6107d2565b6102186102c1366004611274565b610800565b61018c6102d436600461123f565b6009602052600090815260409020546001600160a01b031681565b6102f7610831565b60405161015b91906114f9565b60006001600160e01b031982166380ac58cd60e01b148061033557506001600160e01b03198216635b5e139f60e01b145b8061035057506301ffc9a760e01b6001600160e01b03198316145b92915050565b606060008054610365906115a0565b80601f0160208091040260200160405190810160405280929190818152602001828054610391906115a0565b80156103de5780601f106103b3576101008083540402835291602001916103de565b820191906000526020600020905b8154815290600101906020018083116103c157829003601f168201915b5050505050905090565b60006103f3826109dd565b506000908152600460205260409020546001600160a01b031690565b600061041a82610585565b9050806001600160a01b0316836001600160a01b03160361048c5760405162461bcd60e51b815260206004820152602160248201527f4552433732313a20617070726f76616c20746f2063757272656e74206f776e656044820152603960f91b60648201526084015b60405180910390fd5b336001600160a01b03821614806104a857506104a881336107d2565b61051a5760405162461bcd60e51b815260206004820152603e60248201527f4552433732313a20617070726f76652063616c6c6572206973206e6f7420746f60448201527f6b656e206f776e6572206e6f7220617070726f76656420666f7220616c6c00006064820152608401610483565b6105248383610a3f565b505050565b6105333382610aad565b61054f5760405162461bcd60e51b8152600401610483906115da565b610524838383610b0c565b61052483838360405180602001604052806000815250610703565b60076105818282611676565b5050565b6000818152600260205260408120546001600160a01b0316806103505760405162461bcd60e51b8152602060048201526018602482015277115490cdcc8c4e881a5b9d985b1a59081d1bdad95b88125160421b6044820152606401610483565b60006001600160a01b03821661064f5760405162461bcd60e51b815260206004820152602960248201527f4552433732313a2061646472657373207a65726f206973206e6f7420612076616044820152683634b21037bbb732b960b91b6064820152608401610483565b506001600160a01b031660009081526003602052604090205490565b606060018054610365906115a0565b610581338383610ca8565b61069133600654610d76565b336000908152600a60209081526040808320600654815460018101835591855293839020019290925581516060810190925260308083526106e8929161190f908301396006546106e290600161174c565b83610d90565b6001600660008282546106fb919061174c565b909155505050565b61070d3383610aad565b6107295760405162461bcd60e51b8152600401610483906115da565b61073584848484610dd7565b50505050565b6060600061074883610e0a565b90508060405160200161075b919061175f565b604051602081830303815290604052915050919050565b336000908152600a60209081526040918290208054835181840281018401909452808452606093928301828280156103de57602002820191906000526020600020905b8154815260200190600101908083116107b5575050505050905090565b6001600160a01b03918216600090815260056020908152604080832093909416825291909152205460ff1690565b600a602052816000526040600020818154811061081c57600080fd5b90600052602060002001600091509150505481565b60606008805480602002602001604051908101604052809291908181526020016000905b828210156109d457838290600052602060002090600502016040518060a001604052908160008201548152602001600182018054610892906115a0565b80601f01602080910402602001604051908101604052809291908181526020018280546108be906115a0565b801561090b5780601f106108e05761010080835404028352916020019161090b565b820191906000526020600020905b8154815290600101906020018083116108ee57829003601f168201915b50505050508152602001600282018054610924906115a0565b80601f0160208091040260200160405190810160405280929190818152602001828054610950906115a0565b801561099d5780601f106109725761010080835404028352916020019161099d565b820191906000526020600020905b81548152906001019060200180831161098057829003601f168201915b5050509183525050600382015460208083019190915260049092015460ff1615156040909101529082526001929092019101610855565b50505050905090565b6000818152600260205260409020546001600160a01b0316610a3c5760405162461bcd60e51b8152602060048201526018602482015277115490cdcc8c4e881a5b9d985b1a59081d1bdad95b88125160421b6044820152606401610483565b50565b600081815260046020526040902080546001600160a01b0319166001600160a01b0384169081179091558190610a7482610585565b6001600160a01b03167f8c5be1e5ebec7d5bd14f71427d1e84f3dd0314c0f7b2291e5b200ac8c7c3b92560405160405180910390a45050565b600080610ab983610585565b9050806001600160a01b0316846001600160a01b03161480610ae05750610ae081856107d2565b80610b045750836001600160a01b0316610af9846103e8565b6001600160a01b0316145b949350505050565b826001600160a01b0316610b1f82610585565b6001600160a01b031614610b835760405162461bcd60e51b815260206004820152602560248201527f4552433732313a207472616e736665722066726f6d20696e636f72726563742060448201526437bbb732b960d91b6064820152608401610483565b6001600160a01b038216610be55760405162461bcd60e51b8152602060048201526024808201527f4552433732313a207472616e7366657220746f20746865207a65726f206164646044820152637265737360e01b6064820152608401610483565b610bf0600082610a3f565b6001600160a01b0383166000908152600360205260408120805460019290610c199084906117bd565b90915550506001600160a01b0382166000908152600360205260408120805460019290610c4790849061174c565b909155505060008181526002602052604080822080546001600160a01b0319166001600160a01b0386811691821790925591518493918716917fddf252ad1be2c89b69c2b068fc378daa952ba7f163c4a11628f55a4df523b3ef91a4505050565b816001600160a01b0316836001600160a01b031603610d095760405162461bcd60e51b815260206004820152601960248201527f4552433732313a20617070726f766520746f2063616c6c6572000000000000006044820152606401610483565b6001600160a01b03838116600081815260056020908152604080832094871680845294825291829020805460ff191686151590811790915591519182527f17307eab39ab6107e8899845ad3d59bd9653f200f220920489ca2b5937696c31910160405180910390a3505050565b610581828260405180602001604052806000815250610f0b565b610524838383604051602401610da8939291906117d0565b60408051601f198184030181529190526020810180516001600160e01b031663969cdd0360e01b179052610f3e565b610de2848484610b0c565b610dee84848484610f5f565b6107355760405162461bcd60e51b8152600401610483906117f5565b606081600003610e315750506040805180820190915260018152600360fc1b602082015290565b8160005b8115610e5b5780610e4581611847565b9150610e549050600a83611876565b9150610e35565b60008167ffffffffffffffff811115610e7657610e766112da565b6040519080825280601f01601f191660200182016040528015610ea0576020820181803683370190505b5090505b8415610b0457610eb56001836117bd565b9150610ec2600a8661188a565b610ecd90603061174c565b60f81b818381518110610ee257610ee261189e565b60200101906001600160f81b031916908160001a905350610f04600a86611876565b9450610ea4565b610f158383611060565b610f226000848484610f5f565b6105245760405162461bcd60e51b8152600401610483906117f5565b80516a636f6e736f6c652e6c6f67602083016000808483855afa5050505050565b60006001600160a01b0384163b1561105557604051630a85bd0160e11b81526001600160a01b0385169063150b7a0290610fa39033908990889088906004016118b4565b6020604051808303816000875af1925050508015610fde575060408051601f3d908101601f19168201909252610fdb918101906118f1565b60015b61103b573d80801561100c576040519150601f19603f3d011682016040523d82523d6000602084013e611011565b606091505b5080516000036110335760405162461bcd60e51b8152600401610483906117f5565b805181602001fd5b6001600160e01b031916630a85bd0160e11b149050610b04565b506001949350505050565b6001600160a01b0382166110b65760405162461bcd60e51b815260206004820181905260248201527f4552433732313a206d696e7420746f20746865207a65726f20616464726573736044820152606401610483565b6000818152600260205260409020546001600160a01b03161561111b5760405162461bcd60e51b815260206004820152601c60248201527f4552433732313a20746f6b656e20616c7265616479206d696e746564000000006044820152606401610483565b6001600160a01b038216600090815260036020526040812080546001929061114490849061174c565b909155505060008181526002602052604080822080546001600160a01b0319166001600160a01b03861690811790915590518392907fddf252ad1be2c89b69c2b068fc378daa952ba7f163c4a11628f55a4df523b3ef908290a45050565b6001600160e01b031981168114610a3c57600080fd5b6000602082840312156111ca57600080fd5b81356111d5816111a2565b9392505050565b60005b838110156111f75781810151838201526020016111df565b50506000910152565b600081518084526112188160208601602086016111dc565b601f01601f19169290920160200192915050565b6020815260006111d56020830184611200565b60006020828403121561125157600080fd5b5035919050565b80356001600160a01b038116811461126f57600080fd5b919050565b6000806040838503121561128757600080fd5b61129083611258565b946020939093013593505050565b6000806000606084860312156112b357600080fd5b6112bc84611258565b92506112ca60208501611258565b9150604084013590509250925092565b634e487b7160e01b600052604160045260246000fd5b600067ffffffffffffffff8084111561130b5761130b6112da565b604051601f8501601f19908116603f01168101908282118183101715611333576113336112da565b8160405280935085815286868601111561134c57600080fd5b858560208301376000602087830101525050509392505050565b60006020828403121561137857600080fd5b813567ffffffffffffffff81111561138f57600080fd5b8201601f810184136113a057600080fd5b610b04848235602084016112f0565b6000602082840312156113c157600080fd5b6111d582611258565b600080604083850312156113dd57600080fd5b6113e683611258565b9150602083013580151581146113fb57600080fd5b809150509250929050565b6000806000806080858703121561141c57600080fd5b61142585611258565b935061143360208601611258565b925060408501359150606085013567ffffffffffffffff81111561145657600080fd5b8501601f8101871361146757600080fd5b611476878235602084016112f0565b91505092959194509250565b6020808252825182820181905260009190848201906040850190845b818110156114ba5783518352928401929184019160010161149e565b50909695505050505050565b600080604083850312156114d957600080fd5b6114e283611258565b91506114f060208401611258565b90509250929050565b60006020808301818452808551808352604092508286019150828160051b87010184880160005b8381101561159257603f19898403018552815160a08151855288820151818a87015261154e82870182611200565b91505087820151858203898701526115668282611200565b606084810151908801526080938401511515939096019290925250509386019390860190600101611520565b509098975050505050505050565b600181811c908216806115b457607f821691505b6020821081036115d457634e487b7160e01b600052602260045260246000fd5b50919050565b6020808252602e908201527f4552433732313a2063616c6c6572206973206e6f7420746f6b656e206f776e6560408201526d1c881b9bdc88185c1c1c9bdd995960921b606082015260800190565b601f82111561052457600081815260208120601f850160051c8101602086101561164f5750805b601f850160051c820191505b8181101561166e5782815560010161165b565b505050505050565b815167ffffffffffffffff811115611690576116906112da565b6116a48161169e84546115a0565b84611628565b602080601f8311600181146116d957600084156116c15750858301515b600019600386901b1c1916600185901b17855561166e565b600085815260208120601f198616915b82811015611708578886015182559484019460019091019084016116e9565b50858210156117265787850151600019600388901b60f8161c191681555b5050505050600190811b01905550565b634e487b7160e01b600052601160045260246000fd5b8082018082111561035057610350611736565b7f68747470733a2f2f746573746e65742e7461626c656c616e642e6e6574776f7281526f6b2f7461626c65732f3436392f69642f60801b6020820152600082516117b08160308501602087016111dc565b9190910160300192915050565b8181038181111561035057610350611736565b6060815260006117e36060830186611200565b60208301949094525060400152919050565b60208082526032908201527f4552433732313a207472616e7366657220746f206e6f6e20455243373231526560408201527131b2b4bb32b91034b6b83632b6b2b73a32b960711b606082015260800190565b60006001820161185957611859611736565b5060010190565b634e487b7160e01b600052601260045260246000fd5b60008261188557611885611860565b500490565b60008261189957611899611860565b500690565b634e487b7160e01b600052603260045260246000fd5b6001600160a01b03858116825284166020820152604081018390526080606082018190526000906118e790830184611200565b9695505050505050565b60006020828403121561190357600080fd5b81516111d5816111a256fe46696c65206372656174656420772f20746f6b656e496420257320616e6420636861726163746572496e646578202573a26469706673582212206756ef889495503e4e48ccb33c612607b04e3e6a5eea35aba185c5a40266ff1e64736f6c63430008110033",
  "linkReferences": {},
  "deployedLinkReferences": {}
}