{
  "_format": "hh-sol-artifact-1",
  "contractName": "Artifacts",
  "sourceName": "contracts/Artifacts.sol",
  "abi": [
    {
      "inputs": [],
      "stateMutability": "nonpayable",
      "type": "constructor"
    },
    {
      "anonymous": false,
      "inputs": [
        {
          "indexed": true,
          "internalType": "address",
          "name": "owner",
          "type": "address"
        },
        {
          "indexed": true,
          "internalType": "address",
          "name": "approved",
          "type": "address"
        },
        {
          "indexed": true,
          "internalType": "uint256",
          "name": "tokenId",
          "type": "uint256"
        }
      ],
      "name": "Approval",
      "type": "event"
    },
    {
      "anonymous": false,
      "inputs": [
        {
          "indexed": true,
          "internalType": "uint256",
          "name": "tokenId",
          "type": "uint256"
        },
        {
          "indexed": false,
          "internalType": "address",
          "name": "admin",
          "type": "address"
        },
        {
          "indexed": false,
          "internalType": "uint256",
          "name": "dateApproved",
          "type": "uint256"
        }
      ],
      "name": "ApprovalCreated",
      "type": "event"
    },
    {
      "anonymous": false,
      "inputs": [
        {
          "indexed": true,
          "internalType": "address",
          "name": "owner",
          "type": "address"
        },
        {
          "indexed": true,
          "internalType": "address",
          "name": "operator",
          "type": "address"
        },
        {
          "indexed": false,
          "internalType": "bool",
          "name": "approved",
          "type": "bool"
        }
      ],
      "name": "ApprovalForAll",
      "type": "event"
    },
    {
      "anonymous": false,
      "inputs": [
        {
          "indexed": true,
          "internalType": "uint256",
          "name": "tokenId",
          "type": "uint256"
        },
        {
          "indexed": false,
          "internalType": "address",
          "name": "author",
          "type": "address"
        },
        {
          "indexed": false,
          "internalType": "address",
          "name": "owner",
          "type": "address"
        },
        {
          "indexed": false,
          "internalType": "uint256",
          "name": "dateCreated",
          "type": "uint256"
        },
        {
          "indexed": false,
          "internalType": "bool",
          "name": "approved",
          "type": "bool"
        }
      ],
      "name": "ArtifactItemCreated",
      "type": "event"
    },
    {
      "anonymous": false,
      "inputs": [
        {
          "indexed": true,
          "internalType": "address",
          "name": "from",
          "type": "address"
        },
        {
          "indexed": true,
          "internalType": "address",
          "name": "to",
          "type": "address"
        },
        {
          "indexed": true,
          "internalType": "uint256",
          "name": "tokenId",
          "type": "uint256"
        }
      ],
      "name": "Transfer",
      "type": "event"
    },
    {
      "anonymous": false,
      "inputs": [
        {
          "indexed": true,
          "internalType": "uint256",
          "name": "vId",
          "type": "uint256"
        },
        {
          "indexed": false,
          "internalType": "uint256",
          "name": "tokenId",
          "type": "uint256"
        },
        {
          "indexed": false,
          "internalType": "address",
          "name": "visitor",
          "type": "address"
        }
      ],
      "name": "ViewItemCreated",
      "type": "event"
    },
    {
      "inputs": [
        {
          "internalType": "string",
          "name": "",
          "type": "string"
        }
      ],
      "name": "ArtifactRepos",
      "outputs": [
        {
          "internalType": "string",
          "name": "url",
          "type": "string"
        },
        {
          "internalType": "string",
          "name": "dealId",
          "type": "string"
        },
        {
          "internalType": "string",
          "name": "pieceCid",
          "type": "string"
        },
        {
          "internalType": "address",
          "name": "spAddress",
          "type": "address"
        },
        {
          "internalType": "uint256",
          "name": "numberOfVotes",
          "type": "uint256"
        },
        {
          "internalType": "bool",
          "name": "stored",
          "type": "bool"
        },
        {
          "internalType": "bool",
          "name": "accepted",
          "type": "bool"
        },
        {
          "internalType": "uint256",
          "name": "yesVotes",
          "type": "uint256"
        },
        {
          "internalType": "uint256",
          "name": "noVotes",
          "type": "uint256"
        },
        {
          "internalType": "bool",
          "name": "isValue",
          "type": "bool"
        }
      ],
      "stateMutability": "view",
      "type": "function"
    },
    {
      "inputs": [],
      "name": "_itemApproved",
      "outputs": [
        {
          "internalType": "uint256",
          "name": "_value",
          "type": "uint256"
        }
      ],
      "stateMutability": "view",
      "type": "function"
    },
    {
      "inputs": [],
      "name": "_viewIds",
      "outputs": [
        {
          "internalType": "uint256",
          "name": "_value",
          "type": "uint256"
        }
      ],
      "stateMutability": "view",
      "type": "function"
    },
    {
      "inputs": [],
      "name": "admin",
      "outputs": [
        {
          "internalType": "address",
          "name": "",
          "type": "address"
        }
      ],
      "stateMutability": "view",
      "type": "function"
    },
    {
      "inputs": [],
      "name": "adminAdvanceEpoch",
      "outputs": [],
      "stateMutability": "nonpayable",
      "type": "function"
    },
    {
      "inputs": [],
      "name": "adminAdvanceStage",
      "outputs": [],
      "stateMutability": "nonpayable",
      "type": "function"
    },
    {
      "inputs": [
        {
          "internalType": "address",
          "name": "to",
          "type": "address"
        },
        {
          "internalType": "uint256",
          "name": "tokenId",
          "type": "uint256"
        }
      ],
      "name": "approve",
      "outputs": [],
      "stateMutability": "nonpayable",
      "type": "function"
    },
    {
      "inputs": [
        {
          "internalType": "address",
          "name": "owner",
          "type": "address"
        }
      ],
      "name": "balanceOf",
      "outputs": [
        {
          "internalType": "uint256",
          "name": "",
          "type": "uint256"
        }
      ],
      "stateMutability": "view",
      "type": "function"
    },
    {
      "inputs": [
        {
          "internalType": "uint256",
          "name": "tokenId",
          "type": "uint256"
        }
      ],
      "name": "createArtifactApproval",
      "outputs": [],
      "stateMutability": "nonpayable",
      "type": "function"
    },
    {
      "inputs": [
        {
          "internalType": "string",
          "name": "tokenURI",
          "type": "string"
        }
      ],
      "name": "createToken",
      "outputs": [
        {
          "internalType": "uint256",
          "name": "",
          "type": "uint256"
        }
      ],
      "stateMutability": "payable",
      "type": "function"
    },
    {
      "inputs": [
        {
          "internalType": "uint256",
          "name": "tokenId",
          "type": "uint256"
        }
      ],
      "name": "createViewItem",
      "outputs": [],
      "stateMutability": "nonpayable",
      "type": "function"
    },
    {
      "inputs": [],
      "name": "currentEpoch",
      "outputs": [
        {
          "internalType": "uint256",
          "name": "",
          "type": "uint256"
        }
      ],
      "stateMutability": "view",
      "type": "function"
    },
    {
      "inputs": [
        {
          "internalType": "address",
          "name": "",
          "type": "address"
        }
      ],
      "name": "daoMembers",
      "outputs": [
        {
          "internalType": "address",
          "name": "addr",
          "type": "address"
        },
        {
          "internalType": "uint256",
          "name": "availableVotes",
          "type": "uint256"
        },
        {
          "internalType": "uint256",
          "name": "votingPower",
          "type": "uint256"
        },
        {
          "internalType": "bool",
          "name": "isValue",
          "type": "bool"
        }
      ],
      "stateMutability": "view",
      "type": "function"
    },
    {
      "inputs": [],
      "name": "epochStage",
      "outputs": [
        {
          "internalType": "uint256",
          "name": "",
          "type": "uint256"
        }
      ],
      "stateMutability": "view",
      "type": "function"
    },
    {
      "inputs": [],
      "name": "fetchAllArtifacts",
      "outputs": [
        {
          "components": [
            {
              "internalType": "uint256",
              "name": "tokenId",
              "type": "uint256"
            },
            {
              "internalType": "address payable",
              "name": "author",
              "type": "address"
            },
            {
              "internalType": "address payable",
              "name": "owner",
              "type": "address"
            },
            {
              "internalType": "uint256",
              "name": "dateCreated",
              "type": "uint256"
            },
            {
              "internalType": "bool",
              "name": "approved",
              "type": "bool"
            }
          ],
          "internalType": "struct Artifacts.ArtifactItem[]",
          "name": "",
          "type": "tuple[]"
        }
      ],
      "stateMutability": "view",
      "type": "function"
    },
    {
      "inputs": [],
      "name": "fetchArtifactsApproved",
      "outputs": [
        {
          "components": [
            {
              "internalType": "uint256",
              "name": "tokenId",
              "type": "uint256"
            },
            {
              "internalType": "address payable",
              "name": "author",
              "type": "address"
            },
            {
              "internalType": "address payable",
              "name": "owner",
              "type": "address"
            },
            {
              "internalType": "uint256",
              "name": "dateCreated",
              "type": "uint256"
            },
            {
              "internalType": "bool",
              "name": "approved",
              "type": "bool"
            }
          ],
          "internalType": "struct Artifacts.ArtifactItem[]",
          "name": "",
          "type": "tuple[]"
        }
      ],
      "stateMutability": "view",
      "type": "function"
    },
    {
      "inputs": [
        {
          "internalType": "uint256",
          "name": "tokenId",
          "type": "uint256"
        }
      ],
      "name": "fetchItemViews",
      "outputs": [
        {
          "internalType": "uint256",
          "name": "",
          "type": "uint256"
        }
      ],
      "stateMutability": "view",
      "type": "function"
    },
    {
      "inputs": [],
      "name": "fetchMyArtifacts",
      "outputs": [
        {
          "components": [
            {
              "internalType": "uint256",
              "name": "tokenId",
              "type": "uint256"
            },
            {
              "internalType": "address payable",
              "name": "author",
              "type": "address"
            },
            {
              "internalType": "address payable",
              "name": "owner",
              "type": "address"
            },
            {
              "internalType": "uint256",
              "name": "dateCreated",
              "type": "uint256"
            },
            {
              "internalType": "bool",
              "name": "approved",
              "type": "bool"
            }
          ],
          "internalType": "struct Artifacts.ArtifactItem[]",
          "name": "",
          "type": "tuple[]"
        }
      ],
      "stateMutability": "view",
      "type": "function"
    },
    {
      "inputs": [
        {
          "internalType": "uint256",
          "name": "_tokenId",
          "type": "uint256"
        }
      ],
      "name": "fetchOneArtifact",
      "outputs": [
        {
          "components": [
            {
              "internalType": "uint256",
              "name": "tokenId",
              "type": "uint256"
            },
            {
              "internalType": "address payable",
              "name": "author",
              "type": "address"
            },
            {
              "internalType": "address payable",
              "name": "owner",
              "type": "address"
            },
            {
              "internalType": "uint256",
              "name": "dateCreated",
              "type": "uint256"
            },
            {
              "internalType": "bool",
              "name": "approved",
              "type": "bool"
            }
          ],
          "internalType": "struct Artifacts.ArtifactItem[]",
          "name": "",
          "type": "tuple[]"
        }
      ],
      "stateMutability": "view",
      "type": "function"
    },
    {
      "inputs": [],
      "name": "fetchTotalViews",
      "outputs": [
        {
          "internalType": "uint256",
          "name": "",
          "type": "uint256"
        }
      ],
      "stateMutability": "view",
      "type": "function"
    },
    {
      "inputs": [
        {
          "internalType": "uint256",
          "name": "tokenId",
          "type": "uint256"
        }
      ],
      "name": "getApproved",
      "outputs": [
        {
          "internalType": "address",
          "name": "",
          "type": "address"
        }
      ],
      "stateMutability": "view",
      "type": "function"
    },
    {
      "inputs": [
        {
          "internalType": "address",
          "name": "owner",
          "type": "address"
        },
        {
          "internalType": "address",
          "name": "operator",
          "type": "address"
        }
      ],
      "name": "isApprovedForAll",
      "outputs": [
        {
          "internalType": "bool",
          "name": "",
          "type": "bool"
        }
      ],
      "stateMutability": "view",
      "type": "function"
    },
    {
      "inputs": [],
      "name": "joinDao",
      "outputs": [],
      "stateMutability": "payable",
      "type": "function"
    },
    {
      "inputs": [
        {
          "internalType": "string",
          "name": "url",
          "type": "string"
        },
        {
          "internalType": "string",
          "name": "dealId",
          "type": "string"
        },
        {
          "internalType": "string",
          "name": "pieceCid",
          "type": "string"
        }
      ],
      "name": "minerSubmission",
      "outputs": [],
      "stateMutability": "nonpayable",
      "type": "function"
    },
    {
      "inputs": [],
      "name": "name",
      "outputs": [
        {
          "internalType": "string",
          "name": "",
          "type": "string"
        }
      ],
      "stateMutability": "view",
      "type": "function"
    },
    {
      "inputs": [
        {
          "internalType": "uint256",
          "name": "tokenId",
          "type": "uint256"
        }
      ],
      "name": "ownerOf",
      "outputs": [
        {
          "internalType": "address",
          "name": "",
          "type": "address"
        }
      ],
      "stateMutability": "view",
      "type": "function"
    },
    {
      "inputs": [
        {
          "internalType": "address",
          "name": "from",
          "type": "address"
        },
        {
          "internalType": "address",
          "name": "to",
          "type": "address"
        },
        {
          "internalType": "uint256",
          "name": "tokenId",
          "type": "uint256"
        }
      ],
      "name": "safeTransferFrom",
      "outputs": [],
      "stateMutability": "nonpayable",
      "type": "function"
    },
    {
      "inputs": [
        {
          "internalType": "address",
          "name": "from",
          "type": "address"
        },
        {
          "internalType": "address",
          "name": "to",
          "type": "address"
        },
        {
          "internalType": "uint256",
          "name": "tokenId",
          "type": "uint256"
        },
        {
          "internalType": "bytes",
          "name": "data",
          "type": "bytes"
        }
      ],
      "name": "safeTransferFrom",
      "outputs": [],
      "stateMutability": "nonpayable",
      "type": "function"
    },
    {
      "inputs": [
        {
          "internalType": "address",
          "name": "operator",
          "type": "address"
        },
        {
          "internalType": "bool",
          "name": "approved",
          "type": "bool"
        }
      ],
      "name": "setApprovalForAll",
      "outputs": [],
      "stateMutability": "nonpayable",
      "type": "function"
    },
    {
      "inputs": [
        {
          "internalType": "bytes4",
          "name": "interfaceId",
          "type": "bytes4"
        }
      ],
      "name": "supportsInterface",
      "outputs": [
        {
          "internalType": "bool",
          "name": "",
          "type": "bool"
        }
      ],
      "stateMutability": "view",
      "type": "function"
    },
    {
      "inputs": [],
      "name": "symbol",
      "outputs": [
        {
          "internalType": "string",
          "name": "",
          "type": "string"
        }
      ],
      "stateMutability": "view",
      "type": "function"
    },
    {
      "inputs": [
        {
          "internalType": "uint256",
          "name": "tokenId",
          "type": "uint256"
        }
      ],
      "name": "tokenURI",
      "outputs": [
        {
          "internalType": "string",
          "name": "",
          "type": "string"
        }
      ],
      "stateMutability": "view",
      "type": "function"
    },
    {
      "inputs": [],
      "name": "totalVotes",
      "outputs": [
        {
          "internalType": "uint256",
          "name": "",
          "type": "uint256"
        }
      ],
      "stateMutability": "view",
      "type": "function"
    },
    {
      "inputs": [
        {
          "internalType": "address",
          "name": "from",
          "type": "address"
        },
        {
          "internalType": "address",
          "name": "to",
          "type": "address"
        },
        {
          "internalType": "uint256",
          "name": "tokenId",
          "type": "uint256"
        }
      ],
      "name": "transferFrom",
      "outputs": [],
      "stateMutability": "nonpayable",
      "type": "function"
    },
    {
      "inputs": [
        {
          "internalType": "string",
          "name": "url",
          "type": "string"
        },
        {
          "internalType": "bool",
          "name": "acceptSubmission",
          "type": "bool"
        }
      ],
      "name": "voteForMinerSubmission",
      "outputs": [],
      "stateMutability": "nonpayable",
      "type": "function"
    },
    {
      "inputs": [
        {
          "internalType": "string",
          "name": "url",
          "type": "string"
        }
      ],
      "name": "voteForRepo",
      "outputs": [],
      "stateMutability": "nonpayable",
      "type": "function"
    },
    {
      "inputs": [
        {
          "internalType": "uint256",
          "name": "value",
          "type": "uint256"
        }
      ],
      "name": "withdraw",
      "outputs": [],
      "stateMutability": "nonpayable",
      "type": "function"
    }
  ],
  "bytecode": "0x60806040523480156200001157600080fd5b506040518060400160405280601581526020017f41727469666163747344414f204a6f75726e616c7300000000000000000000008152506040518060400160405280600481526020017f415254440000000000000000000000000000000000000000000000000000000081525081600090816200008f9190620003a6565b508060019081620000a19190620003a6565b50505033600a60006101000a81548173ffffffffffffffffffffffffffffffffffffffff021916908373ffffffffffffffffffffffffffffffffffffffff16021790555033600b60006101000a81548173ffffffffffffffffffffffffffffffffffffffff021916908373ffffffffffffffffffffffffffffffffffffffff1602179055506200048d565b600081519050919050565b7f4e487b7100000000000000000000000000000000000000000000000000000000600052604160045260246000fd5b7f4e487b7100000000000000000000000000000000000000000000000000000000600052602260045260246000fd5b60006002820490506001821680620001ae57607f821691505b602082108103620001c457620001c362000166565b5b50919050565b60008190508160005260206000209050919050565b60006020601f8301049050919050565b600082821b905092915050565b6000600883026200022e7fffffffffffffffffffffffffffffffffffffffffffffffffffffffffffffffff82620001ef565b6200023a8683620001ef565b95508019841693508086168417925050509392505050565b6000819050919050565b6000819050919050565b600062000287620002816200027b8462000252565b6200025c565b62000252565b9050919050565b6000819050919050565b620002a38362000266565b620002bb620002b2826200028e565b848454620001fc565b825550505050565b600090565b620002d2620002c3565b620002df81848462000298565b505050565b5b818110156200030757620002fb600082620002c8565b600181019050620002e5565b5050565b601f82111562000356576200032081620001ca565b6200032b84620001df565b810160208510156200033b578190505b620003536200034a85620001df565b830182620002e4565b50505b505050565b600082821c905092915050565b60006200037b600019846008026200035b565b1980831691505092915050565b600062000396838362000368565b9150826002028217905092915050565b620003b1826200012c565b67ffffffffffffffff811115620003cd57620003cc62000137565b5b620003d9825462000195565b620003e68282856200030b565b600060209050601f8311600181146200041e576000841562000409578287015190505b62000415858262000388565b86555062000485565b601f1984166200042e86620001ca565b60005b82811015620004585784890151825560018201915060208501945060208101905062000431565b8683101562000478578489015162000474601f89168262000368565b8355505b6001600288020188555050505b505050505050565b615aa2806200049d6000396000f3fe60806040526004361061021a5760003560e01c806370a0823111610123578063b7ebf235116100ab578063e985e9c51161006f578063e985e9c5146107d3578063f37cd59214610810578063f55be0861461083b578063f851a44014610866578063fef6b327146108915761021a565b8063b7ebf23514610711578063b88d4fde1461073a578063c87b56dd14610763578063ccaa69ea146107a0578063dd61fc89146107c95761021a565b8063921a063d116100f2578063921a063d1461063b578063959068ea1461066657806395d89b41146106a6578063999136d0146106d1578063a22cb465146106e85761021a565b806370a082311461056d57806376671808146105aa5780638727f720146105d5578063893e1f96146106125761021a565b806338c1ee7f116101a657806352bed1711161017557806352bed1711461046b57806361ca6cc3146104a85780636352211e146104bf578063637bba09146104fc5780636a072bf1146105275761021a565b806338c1ee7f146103be5780633c8f2823146103e957806342842e0e1461041257806345576f941461043b5761021a565b80630d15fd77116101ed5780630d15fd77146102ed57806321ab018a1461031857806323b872dd146103435780632e1a7d4d1461036c5780633152d38b146103955761021a565b806301ffc9a71461021f57806306fdde031461025c578063081812fc14610287578063095ea7b3146102c4575b600080fd5b34801561022b57600080fd5b506102466004803603810190610241919061402e565b6108bc565b6040516102539190614076565b60405180910390f35b34801561026857600080fd5b5061027161099e565b60405161027e9190614121565b60405180910390f35b34801561029357600080fd5b506102ae60048036038101906102a99190614179565b610a30565b6040516102bb91906141e7565b60405180910390f35b3480156102d057600080fd5b506102eb60048036038101906102e6919061422e565b610a76565b005b3480156102f957600080fd5b50610302610b8d565b60405161030f919061427d565b60405180910390f35b34801561032457600080fd5b5061032d610b93565b60405161033a919061427d565b60405180910390f35b34801561034f57600080fd5b5061036a60048036038101906103659190614298565b610b99565b005b34801561037857600080fd5b50610393600480360381019061038e9190614179565b610bf9565b005b3480156103a157600080fd5b506103bc60048036038101906103b79190614420565b610d9e565b005b3480156103ca57600080fd5b506103d3611224565b6040516103e0919061427d565b60405180910390f35b3480156103f557600080fd5b50610410600480360381019061040b9190614179565b611230565b005b34801561041e57600080fd5b5061043960048036038101906104349190614298565b611328565b005b610455600480360381019061045091906144c7565b611348565b604051610462919061427d565b60405180910390f35b34801561047757600080fd5b50610492600480360381019061048d9190614179565b611388565b60405161049f9190614666565b60405180910390f35b3480156104b457600080fd5b506104bd6115de565b005b3480156104cb57600080fd5b506104e660048036038101906104e19190614179565b61168a565b6040516104f391906141e7565b60405180910390f35b34801561050857600080fd5b50610511611710565b60405161051e9190614666565b60405180910390f35b34801561053357600080fd5b5061054e600480360381019061054991906144c7565b6119fc565b6040516105649a99989796959493929190614688565b60405180910390f35b34801561057957600080fd5b50610594600480360381019061058f9190614739565b611c45565b6040516105a1919061427d565b60405180910390f35b3480156105b657600080fd5b506105bf611cfc565b6040516105cc919061427d565b60405180910390f35b3480156105e157600080fd5b506105fc60048036038101906105f79190614179565b611d02565b604051610609919061427d565b60405180910390f35b34801561061e57600080fd5b5061063960048036038101906106349190614792565b611d74565b005b34801561064757600080fd5b50610650611f48565b60405161065d9190614666565b60405180910390f35b34801561067257600080fd5b5061068d60048036038101906106889190614739565b61219c565b60405161069d94939291906147ee565b60405180910390f35b3480156106b257600080fd5b506106bb6121f9565b6040516106c89190614121565b60405180910390f35b3480156106dd57600080fd5b506106e661228b565b005b3480156106f457600080fd5b5061070f600480360381019061070a9190614833565b612337565b005b34801561071d57600080fd5b50610738600480360381019061073391906144c7565b61234d565b005b34801561074657600080fd5b50610761600480360381019061075c9190614914565b612751565b005b34801561076f57600080fd5b5061078a60048036038101906107859190614179565b6127b3565b6040516107979190614121565b60405180910390f35b3480156107ac57600080fd5b506107c760048036038101906107c29190614179565b6128c5565b005b6107d16129cb565b005b3480156107df57600080fd5b506107fa60048036038101906107f59190614997565b612b28565b6040516108079190614076565b60405180910390f35b34801561081c57600080fd5b50610825612bbc565b6040516108329190614666565b60405180910390f35b34801561084757600080fd5b50610850612e34565b60405161085d919061427d565b60405180910390f35b34801561087257600080fd5b5061087b612e4a565b60405161088891906141e7565b60405180910390f35b34801561089d57600080fd5b506108a6612e70565b6040516108b3919061427d565b60405180910390f35b60007f80ac58cd000000000000000000000000000000000000000000000000000000007bffffffffffffffffffffffffffffffffffffffffffffffffffffffff1916827bffffffffffffffffffffffffffffffffffffffffffffffffffffffff1916148061098757507f5b5e139f000000000000000000000000000000000000000000000000000000007bffffffffffffffffffffffffffffffffffffffffffffffffffffffff1916827bffffffffffffffffffffffffffffffffffffffffffffffffffffffff1916145b80610997575061099682612e7c565b5b9050919050565b6060600080546109ad90614a06565b80601f01602080910402602001604051908101604052809291908181526020018280546109d990614a06565b8015610a265780601f106109fb57610100808354040283529160200191610a26565b820191906000526020600020905b815481529060010190602001808311610a0957829003601f168201915b5050505050905090565b6000610a3b82612ee6565b6004600083815260200190815260200160002060009054906101000a900473ffffffffffffffffffffffffffffffffffffffff169050919050565b6000610a818261168a565b90508073ffffffffffffffffffffffffffffffffffffffff168373ffffffffffffffffffffffffffffffffffffffff1603610af1576040517f08c379a0000000000000000000000000000000000000000000000000000000008152600401610ae890614aa9565b60405180910390fd5b8073ffffffffffffffffffffffffffffffffffffffff16610b10612f31565b73ffffffffffffffffffffffffffffffffffffffff161480610b3f5750610b3e81610b39612f31565b612b28565b5b610b7e576040517f08c379a0000000000000000000000000000000000000000000000000000000008152600401610b7590614b3b565b60405180910390fd5b610b888383612f39565b505050565b600e5481565b600d5481565b610baa610ba4612f31565b82612ff2565b610be9576040517f08c379a0000000000000000000000000000000000000000000000000000000008152600401610be090614bcd565b60405180910390fd5b610bf4838383613087565b505050565b600a60009054906101000a900473ffffffffffffffffffffffffffffffffffffffff1673ffffffffffffffffffffffffffffffffffffffff163373ffffffffffffffffffffffffffffffffffffffff1614610c89576040517f08c379a0000000000000000000000000000000000000000000000000000000008152600401610c8090614c39565b60405180910390fd5b47811115610ccc576040517f08c379a0000000000000000000000000000000000000000000000000000000008152600401610cc390614ca5565b60405180910390fd5b6000600a60009054906101000a900473ffffffffffffffffffffffffffffffffffffffff1673ffffffffffffffffffffffffffffffffffffffff1682604051610d1490614cf6565b60006040518083038185875af1925050503d8060008114610d51576040519150601f19603f3d011682016040523d82523d6000602084013e610d56565b606091505b5050905080610d9a576040517f08c379a0000000000000000000000000000000000000000000000000000000008152600401610d9190614d57565b60405180910390fd5b5050565b6002600d5414610de3576040517f08c379a0000000000000000000000000000000000000000000000000000000008152600401610dda90614de9565b60405180910390fd5b6000601084604051610df59190614e45565b908152602001604051809103902060405180610140016040529081600082018054610e1f90614a06565b80601f0160208091040260200160405190810160405280929190818152602001828054610e4b90614a06565b8015610e985780601f10610e6d57610100808354040283529160200191610e98565b820191906000526020600020905b815481529060010190602001808311610e7b57829003601f168201915b50505050508152602001600182018054610eb190614a06565b80601f0160208091040260200160405190810160405280929190818152602001828054610edd90614a06565b8015610f2a5780601f10610eff57610100808354040283529160200191610f2a565b820191906000526020600020905b815481529060010190602001808311610f0d57829003601f168201915b50505050508152602001600282018054610f4390614a06565b80601f0160208091040260200160405190810160405280929190818152602001828054610f6f90614a06565b8015610fbc5780601f10610f9157610100808354040283529160200191610fbc565b820191906000526020600020905b815481529060010190602001808311610f9f57829003601f168201915b505050505081526020016003820160009054906101000a900473ffffffffffffffffffffffffffffffffffffffff1673ffffffffffffffffffffffffffffffffffffffff1673ffffffffffffffffffffffffffffffffffffffff168152602001600482015481526020016005820160009054906101000a900460ff161515151581526020016005820160019054906101000a900460ff1615151515815260200160068201548152602001600782015481526020016008820160009054906101000a900460ff1615151515815250509050806101200151156110f35782816020018190525081816040018190525060018160a001901515908115158152505033816060019073ffffffffffffffffffffffffffffffffffffffff16908173ffffffffffffffffffffffffffffffffffffffff16815250505b806010856040516111049190614e45565b908152602001604051809103902060008201518160000190816111279190615008565b50602082015181600101908161113d9190615008565b5060408201518160020190816111539190615008565b5060608201518160030160006101000a81548173ffffffffffffffffffffffffffffffffffffffff021916908373ffffffffffffffffffffffffffffffffffffffff1602179055506080820151816004015560a08201518160050160006101000a81548160ff02191690831515021790555060c08201518160050160016101000a81548160ff02191690831515021790555060e0820151816006015561010082015181600701556101208201518160080160006101000a81548160ff02191690831515021790555090505050505050565b60098060000154905081565b61123a6008613380565b60006112466008613396565b905060405180606001604052808281526020018381526020013373ffffffffffffffffffffffffffffffffffffffff1681525060126000838152602001908152602001600020600082015181600001556020820151816001015560408201518160020160006101000a81548173ffffffffffffffffffffffffffffffffffffffff021916908373ffffffffffffffffffffffffffffffffffffffff160217905550905050807f76eeab97092ad834df0b561eae45cd54f5583ebef4240be2483d115d9fb4ed61833360405161131c9291906150da565b60405180910390a25050565b61134383838360405180602001604052806000815250612751565b505050565b60006113546007613380565b60006113606007613396565b905061136c33826133a4565b61137681846135c1565b61137f8161362e565b80915050919050565b606060006113966007613396565b905060008060005b838110156113f25785601160006001846113b89190615132565b815260200190815260200160002060000154036113df576001836113dc9190615132565b92505b80806113ea90615166565b91505061139e565b5060008267ffffffffffffffff81111561140f5761140e6142f5565b5b60405190808252806020026020018201604052801561144857816020015b611435613f65565b81526020019060019003908161142d5790505b50905060005b848110156115d15786601160006001846114689190615132565b815260200190815260200160002060000154036115be57600060018261148e9190615132565b90506000601160008381526020019081526020016000209050806040518060a0016040529081600082015481526020016001820160009054906101000a900473ffffffffffffffffffffffffffffffffffffffff1673ffffffffffffffffffffffffffffffffffffffff1673ffffffffffffffffffffffffffffffffffffffff1681526020016002820160009054906101000a900473ffffffffffffffffffffffffffffffffffffffff1673ffffffffffffffffffffffffffffffffffffffff1673ffffffffffffffffffffffffffffffffffffffff168152602001600382015481526020016004820160009054906101000a900460ff1615151515815250508486815181106115a1576115a06151ae565b5b60200260200101819052506001856115b99190615132565b945050505b80806115c990615166565b91505061144e565b5080945050505050919050565b600b60009054906101000a900473ffffffffffffffffffffffffffffffffffffffff1673ffffffffffffffffffffffffffffffffffffffff163373ffffffffffffffffffffffffffffffffffffffff161461166e576040517f08c379a000000000000000000000000000000000000000000000000000000000815260040161166590615229565b60405180910390fd5b6001600d60008282546116819190615132565b92505081905550565b600080611696836137a9565b9050600073ffffffffffffffffffffffffffffffffffffffff168173ffffffffffffffffffffffffffffffffffffffff1603611707576040517f08c379a00000000000000000000000000000000000000000000000000000000081526004016116fe90615295565b60405180910390fd5b80915050919050565b6060600061171e6007613396565b905060008060005b838110156117c6573373ffffffffffffffffffffffffffffffffffffffff16601160006001846117569190615132565b815260200190815260200160002060010160009054906101000a900473ffffffffffffffffffffffffffffffffffffffff1673ffffffffffffffffffffffffffffffffffffffff16036117b3576001836117b09190615132565b92505b80806117be90615166565b915050611726565b5060008267ffffffffffffffff8111156117e3576117e26142f5565b5b60405190808252806020026020018201604052801561181c57816020015b611809613f65565b8152602001906001900390816118015790505b50905060005b848110156119f1573373ffffffffffffffffffffffffffffffffffffffff16601160006001846118529190615132565b815260200190815260200160002060010160009054906101000a900473ffffffffffffffffffffffffffffffffffffffff1673ffffffffffffffffffffffffffffffffffffffff16036119de5760006001826118ae9190615132565b90506000601160008381526020019081526020016000209050806040518060a0016040529081600082015481526020016001820160009054906101000a900473ffffffffffffffffffffffffffffffffffffffff1673ffffffffffffffffffffffffffffffffffffffff1673ffffffffffffffffffffffffffffffffffffffff1681526020016002820160009054906101000a900473ffffffffffffffffffffffffffffffffffffffff1673ffffffffffffffffffffffffffffffffffffffff1673ffffffffffffffffffffffffffffffffffffffff168152602001600382015481526020016004820160009054906101000a900460ff1615151515815250508486815181106119c1576119c06151ae565b5b60200260200101819052506001856119d99190615132565b945050505b80806119e990615166565b915050611822565b508094505050505090565b601081805160208101820180518482526020830160208501208183528095505050505050600091509050806000018054611a3590614a06565b80601f0160208091040260200160405190810160405280929190818152602001828054611a6190614a06565b8015611aae5780601f10611a8357610100808354040283529160200191611aae565b820191906000526020600020905b815481529060010190602001808311611a9157829003601f168201915b505050505090806001018054611ac390614a06565b80601f0160208091040260200160405190810160405280929190818152602001828054611aef90614a06565b8015611b3c5780601f10611b1157610100808354040283529160200191611b3c565b820191906000526020600020905b815481529060010190602001808311611b1f57829003601f168201915b505050505090806002018054611b5190614a06565b80601f0160208091040260200160405190810160405280929190818152602001828054611b7d90614a06565b8015611bca5780601f10611b9f57610100808354040283529160200191611bca565b820191906000526020600020905b815481529060010190602001808311611bad57829003601f168201915b5050505050908060030160009054906101000a900473ffffffffffffffffffffffffffffffffffffffff16908060040154908060050160009054906101000a900460ff16908060050160019054906101000a900460ff16908060060154908060070154908060080160009054906101000a900460ff1690508a565b60008073ffffffffffffffffffffffffffffffffffffffff168273ffffffffffffffffffffffffffffffffffffffff1603611cb5576040517f08c379a0000000000000000000000000000000000000000000000000000000008152600401611cac90615327565b60405180910390fd5b600360008373ffffffffffffffffffffffffffffffffffffffff1673ffffffffffffffffffffffffffffffffffffffff168152602001908152602001600020549050919050565b600c5481565b600080611d0f6008613396565b90506000805b82811015611d69578460126000600184611d2f9190615132565b81526020019081526020016000206001015403611d5657600182611d539190615132565b91505b8080611d6190615166565b915050611d15565b508092505050919050565b600f60003373ffffffffffffffffffffffffffffffffffffffff1673ffffffffffffffffffffffffffffffffffffffff16815260200190815260200160002060030160009054906101000a900460ff1615611f44576003600d5414611e0e576040517f08c379a0000000000000000000000000000000000000000000000000000000008152600401611e05906153b9565b60405180910390fd5b601082604051611e1e9190614e45565b908152602001604051809103902060080160009054906101000a900460ff1615611f43578015611ec757600f60003373ffffffffffffffffffffffffffffffffffffffff1673ffffffffffffffffffffffffffffffffffffffff16815260200190815260200160002060020154601083604051611e9b9190614e45565b90815260200160405180910390206006016000828254611ebb9190615132565b92505081905550611f42565b600f60003373ffffffffffffffffffffffffffffffffffffffff1673ffffffffffffffffffffffffffffffffffffffff16815260200190815260200160002060020154601083604051611f1a9190614e45565b90815260200160405180910390206007016000828254611f3a9190615132565b925050819055505b5b5b5050565b60606000611f566007613396565b90506000611f646007613396565b90506000808267ffffffffffffffff811115611f8357611f826142f5565b5b604051908082528060200260200182016040528015611fbc57816020015b611fa9613f65565b815260200190600190039081611fa15790505b50905060005b84811015612191573073ffffffffffffffffffffffffffffffffffffffff1660116000600184611ff29190615132565b815260200190815260200160002060020160009054906101000a900473ffffffffffffffffffffffffffffffffffffffff1673ffffffffffffffffffffffffffffffffffffffff160361217e57600060018261204e9190615132565b90506000601160008381526020019081526020016000209050806040518060a0016040529081600082015481526020016001820160009054906101000a900473ffffffffffffffffffffffffffffffffffffffff1673ffffffffffffffffffffffffffffffffffffffff1673ffffffffffffffffffffffffffffffffffffffff1681526020016002820160009054906101000a900473ffffffffffffffffffffffffffffffffffffffff1673ffffffffffffffffffffffffffffffffffffffff1673ffffffffffffffffffffffffffffffffffffffff168152602001600382015481526020016004820160009054906101000a900460ff161515151581525050848681518110612161576121606151ae565b5b60200260200101819052506001856121799190615132565b945050505b808061218990615166565b915050611fc2565b508094505050505090565b600f6020528060005260406000206000915090508060000160009054906101000a900473ffffffffffffffffffffffffffffffffffffffff16908060010154908060020154908060030160009054906101000a900460ff16905084565b60606001805461220890614a06565b80601f016020809104026020016040519081016040528092919081815260200182805461223490614a06565b80156122815780601f1061225657610100808354040283529160200191612281565b820191906000526020600020905b81548152906001019060200180831161226457829003601f168201915b5050505050905090565b600b60009054906101000a900473ffffffffffffffffffffffffffffffffffffffff1673ffffffffffffffffffffffffffffffffffffffff163373ffffffffffffffffffffffffffffffffffffffff161461231b576040517f08c379a000000000000000000000000000000000000000000000000000000000815260040161231290615229565b60405180910390fd5b6001600c600082825461232e9190615132565b92505081905550565b612349612342612f31565b83836137e6565b5050565b600f60003373ffffffffffffffffffffffffffffffffffffffff1673ffffffffffffffffffffffffffffffffffffffff16815260200190815260200160002060030160009054906101000a900460ff161561274e576001600d54146123e7576040517f08c379a00000000000000000000000000000000000000000000000000000000081526004016123de90615425565b60405180910390fd5b6010816040516123f79190614e45565b908152602001604051809103902060080160009054906101000a900460ff161561255457600f60003373ffffffffffffffffffffffffffffffffffffffff1673ffffffffffffffffffffffffffffffffffffffff1681526020019081526020016000206001015460108260405161246e9190614e45565b9081526020016040518091039020600401600082825461248e9190615132565b925050819055506000600f60003373ffffffffffffffffffffffffffffffffffffffff1673ffffffffffffffffffffffffffffffffffffffff168152602001908152602001600020600101819055506002600e546124ec9190615474565b6010826040516124fc9190614e45565b908152602001604051809103902060040154111561254f5760016010826040516125269190614e45565b908152602001604051809103902060050160016101000a81548160ff0219169083151502179055505b61274d565b6000604051806101400160405280838152602001604051806020016040528060008152508152602001604051806020016040528060008152508152602001600073ffffffffffffffffffffffffffffffffffffffff168152602001600f60003373ffffffffffffffffffffffffffffffffffffffff1673ffffffffffffffffffffffffffffffffffffffff1681526020019081526020016000206001015481526020016000151581526020016000151581526020016000815260200160008152602001600115158152509050806010836040516126319190614e45565b908152602001604051809103902060008201518160000190816126549190615008565b50602082015181600101908161266a9190615008565b5060408201518160020190816126809190615008565b5060608201518160030160006101000a81548173ffffffffffffffffffffffffffffffffffffffff021916908373ffffffffffffffffffffffffffffffffffffffff1602179055506080820151816004015560a08201518160050160006101000a81548160ff02191690831515021790555060c08201518160050160016101000a81548160ff02191690831515021790555060e0820151816006015561010082015181600701556101208201518160080160006101000a81548160ff021916908315150217905550905050505b5b50565b61276261275c612f31565b83612ff2565b6127a1576040517f08c379a000000000000000000000000000000000000000000000000000000000815260040161279890614bcd565b60405180910390fd5b6127ad84848484613952565b50505050565b60606127be82612ee6565b60006006600084815260200190815260200160002080546127de90614a06565b80601f016020809104026020016040519081016040528092919081815260200182805461280a90614a06565b80156128575780601f1061282c57610100808354040283529160200191612857565b820191906000526020600020905b81548152906001019060200180831161283a57829003601f168201915b5050505050905060006128686139ae565b9050600081510361287d5781925050506128c0565b6000825111156128b257808260405160200161289a9291906154a5565b604051602081830303815290604052925050506128c0565b6128bb846139c5565b925050505b919050565b600b60009054906101000a900473ffffffffffffffffffffffffffffffffffffffff1673ffffffffffffffffffffffffffffffffffffffff163373ffffffffffffffffffffffffffffffffffffffff1614612955576040517f08c379a000000000000000000000000000000000000000000000000000000000815260040161294c90615229565b60405180910390fd5b60016011600083815260200190815260200160002060040160006101000a81548160ff02191690831515021790555061298e6009613380565b807f7b3e57f92a64bfa12c15cfbeddc70d341fcd97a16b9e40d978ac7250d653de1833426040516129c09291906154c9565b60405180910390a250565b6000600d5414612a10576040517f08c379a0000000000000000000000000000000000000000000000000000000008152600401612a0790615564565b60405180910390fd5b600060405180608001604052803373ffffffffffffffffffffffffffffffffffffffff16815260200134815260200134815260200160011515815250905034600e6000828254612a609190615132565b9250508190555080600f60003373ffffffffffffffffffffffffffffffffffffffff1673ffffffffffffffffffffffffffffffffffffffff16815260200190815260200160002060008201518160000160006101000a81548173ffffffffffffffffffffffffffffffffffffffff021916908373ffffffffffffffffffffffffffffffffffffffff160217905550602082015181600101556040820151816002015560608201518160030160006101000a81548160ff02191690831515021790555090505050565b6000600560008473ffffffffffffffffffffffffffffffffffffffff1673ffffffffffffffffffffffffffffffffffffffff16815260200190815260200160002060008373ffffffffffffffffffffffffffffffffffffffff1673ffffffffffffffffffffffffffffffffffffffff16815260200190815260200160002060009054906101000a900460ff16905092915050565b60606000612bca6007613396565b905060008060005b83811015612c38576001151560116000600184612bef9190615132565b815260200190815260200160002060040160009054906101000a900460ff16151503612c2557600183612c229190615132565b92505b8080612c3090615166565b915050612bd2565b5060008267ffffffffffffffff811115612c5557612c546142f5565b5b604051908082528060200260200182016040528015612c8e57816020015b612c7b613f65565b815260200190600190039081612c735790505b50905060005b84811015612e29576001151560116000600184612cb19190615132565b815260200190815260200160002060040160009054906101000a900460ff16151503612e16576000600182612ce69190615132565b90506000601160008381526020019081526020016000209050806040518060a0016040529081600082015481526020016001820160009054906101000a900473ffffffffffffffffffffffffffffffffffffffff1673ffffffffffffffffffffffffffffffffffffffff1673ffffffffffffffffffffffffffffffffffffffff1681526020016002820160009054906101000a900473ffffffffffffffffffffffffffffffffffffffff1673ffffffffffffffffffffffffffffffffffffffff1673ffffffffffffffffffffffffffffffffffffffff168152602001600382015481526020016004820160009054906101000a900460ff161515151581525050848681518110612df957612df86151ae565b5b6020026020010181905250600185612e119190615132565b945050505b8080612e2190615166565b915050612c94565b508094505050505090565b600080612e416008613396565b90508091505090565b600b60009054906101000a900473ffffffffffffffffffffffffffffffffffffffff1681565b60088060000154905081565b60007f01ffc9a7000000000000000000000000000000000000000000000000000000007bffffffffffffffffffffffffffffffffffffffffffffffffffffffff1916827bffffffffffffffffffffffffffffffffffffffffffffffffffffffff1916149050919050565b612eef81613a2d565b612f2e576040517f08c379a0000000000000000000000000000000000000000000000000000000008152600401612f2590615295565b60405180910390fd5b50565b600033905090565b816004600083815260200190815260200160002060006101000a81548173ffffffffffffffffffffffffffffffffffffffff021916908373ffffffffffffffffffffffffffffffffffffffff160217905550808273ffffffffffffffffffffffffffffffffffffffff16612fac8361168a565b73ffffffffffffffffffffffffffffffffffffffff167f8c5be1e5ebec7d5bd14f71427d1e84f3dd0314c0f7b2291e5b200ac8c7c3b92560405160405180910390a45050565b600080612ffe8361168a565b90508073ffffffffffffffffffffffffffffffffffffffff168473ffffffffffffffffffffffffffffffffffffffff161480613040575061303f8185612b28565b5b8061307e57508373ffffffffffffffffffffffffffffffffffffffff1661306684610a30565b73ffffffffffffffffffffffffffffffffffffffff16145b91505092915050565b8273ffffffffffffffffffffffffffffffffffffffff166130a78261168a565b73ffffffffffffffffffffffffffffffffffffffff16146130fd576040517f08c379a00000000000000000000000000000000000000000000000000000000081526004016130f4906155f6565b60405180910390fd5b600073ffffffffffffffffffffffffffffffffffffffff168273ffffffffffffffffffffffffffffffffffffffff160361316c576040517f08c379a000000000000000000000000000000000000000000000000000000000815260040161316390615688565b60405180910390fd5b6131798383836001613a6e565b8273ffffffffffffffffffffffffffffffffffffffff166131998261168a565b73ffffffffffffffffffffffffffffffffffffffff16146131ef576040517f08c379a00000000000000000000000000000000000000000000000000000000081526004016131e6906155f6565b60405180910390fd5b6004600082815260200190815260200160002060006101000a81549073ffffffffffffffffffffffffffffffffffffffff02191690556001600360008573ffffffffffffffffffffffffffffffffffffffff1673ffffffffffffffffffffffffffffffffffffffff168152602001908152602001600020600082825403925050819055506001600360008473ffffffffffffffffffffffffffffffffffffffff1673ffffffffffffffffffffffffffffffffffffffff16815260200190815260200160002060008282540192505081905550816002600083815260200190815260200160002060006101000a81548173ffffffffffffffffffffffffffffffffffffffff021916908373ffffffffffffffffffffffffffffffffffffffff160217905550808273ffffffffffffffffffffffffffffffffffffffff168473ffffffffffffffffffffffffffffffffffffffff167fddf252ad1be2c89b69c2b068fc378daa952ba7f163c4a11628f55a4df523b3ef60405160405180910390a461337b8383836001613b94565b505050565b6001816000016000828254019250508190555050565b600081600001549050919050565b600073ffffffffffffffffffffffffffffffffffffffff168273ffffffffffffffffffffffffffffffffffffffff1603613413576040517f08c379a000000000000000000000000000000000000000000000000000000000815260040161340a906156f4565b60405180910390fd5b61341c81613a2d565b1561345c576040517f08c379a000000000000000000000000000000000000000000000000000000000815260040161345390615760565b60405180910390fd5b61346a600083836001613a6e565b61347381613a2d565b156134b3576040517f08c379a00000000000000000000000000000000000000000000000000000000081526004016134aa90615760565b60405180910390fd5b6001600360008473ffffffffffffffffffffffffffffffffffffffff1673ffffffffffffffffffffffffffffffffffffffff16815260200190815260200160002060008282540192505081905550816002600083815260200190815260200160002060006101000a81548173ffffffffffffffffffffffffffffffffffffffff021916908373ffffffffffffffffffffffffffffffffffffffff160217905550808273ffffffffffffffffffffffffffffffffffffffff16600073ffffffffffffffffffffffffffffffffffffffff167fddf252ad1be2c89b69c2b068fc378daa952ba7f163c4a11628f55a4df523b3ef60405160405180910390a46135bd600083836001613b94565b5050565b6135ca82613a2d565b613609576040517f08c379a0000000000000000000000000000000000000000000000000000000008152600401613600906157f2565b60405180910390fd5b806006600084815260200190815260200160002090816136299190615008565b505050565b6040518060a001604052808281526020013373ffffffffffffffffffffffffffffffffffffffff1681526020013073ffffffffffffffffffffffffffffffffffffffff16815260200142815260200160001515815250601160008381526020019081526020016000206000820151816000015560208201518160010160006101000a81548173ffffffffffffffffffffffffffffffffffffffff021916908373ffffffffffffffffffffffffffffffffffffffff16021790555060408201518160020160006101000a81548173ffffffffffffffffffffffffffffffffffffffff021916908373ffffffffffffffffffffffffffffffffffffffff1602179055506060820151816003015560808201518160040160006101000a81548160ff021916908315150217905550905050613767333083613087565b807f5c53df2c71307fea3cb2d42a91d7dd7b6a7afb98864a11e8aba0a5a50eb762e8333042600060405161379e9493929190615812565b60405180910390a250565b60006002600083815260200190815260200160002060009054906101000a900473ffffffffffffffffffffffffffffffffffffffff169050919050565b8173ffffffffffffffffffffffffffffffffffffffff168373ffffffffffffffffffffffffffffffffffffffff1603613854576040517f08c379a000000000000000000000000000000000000000000000000000000000815260040161384b906158a3565b60405180910390fd5b80600560008573ffffffffffffffffffffffffffffffffffffffff1673ffffffffffffffffffffffffffffffffffffffff16815260200190815260200160002060008473ffffffffffffffffffffffffffffffffffffffff1673ffffffffffffffffffffffffffffffffffffffff16815260200190815260200160002060006101000a81548160ff0219169083151502179055508173ffffffffffffffffffffffffffffffffffffffff168373ffffffffffffffffffffffffffffffffffffffff167f17307eab39ab6107e8899845ad3d59bd9653f200f220920489ca2b5937696c31836040516139459190614076565b60405180910390a3505050565b61395d848484613087565b61396984848484613b9a565b6139a8576040517f08c379a000000000000000000000000000000000000000000000000000000000815260040161399f90615935565b60405180910390fd5b50505050565b606060405180602001604052806000815250905090565b60606139d082612ee6565b60006139da6139ae565b905060008151116139fa5760405180602001604052806000815250613a25565b80613a0484613d21565b604051602001613a159291906154a5565b6040516020818303038152906040525b915050919050565b60008073ffffffffffffffffffffffffffffffffffffffff16613a4f836137a9565b73ffffffffffffffffffffffffffffffffffffffff1614159050919050565b6001811115613b8e57600073ffffffffffffffffffffffffffffffffffffffff168473ffffffffffffffffffffffffffffffffffffffff1614613b025780600360008673ffffffffffffffffffffffffffffffffffffffff1673ffffffffffffffffffffffffffffffffffffffff1681526020019081526020016000206000828254613afa9190615955565b925050819055505b600073ffffffffffffffffffffffffffffffffffffffff168373ffffffffffffffffffffffffffffffffffffffff1614613b8d5780600360008573ffffffffffffffffffffffffffffffffffffffff1673ffffffffffffffffffffffffffffffffffffffff1681526020019081526020016000206000828254613b859190615132565b925050819055505b5b50505050565b50505050565b6000613bbb8473ffffffffffffffffffffffffffffffffffffffff16613def565b15613d14578373ffffffffffffffffffffffffffffffffffffffff1663150b7a02613be4612f31565b8786866040518563ffffffff1660e01b8152600401613c0694939291906159de565b6020604051808303816000875af1925050508015613c4257506040513d601f19601f82011682018060405250810190613c3f9190615a3f565b60015b613cc4573d8060008114613c72576040519150601f19603f3d011682016040523d82523d6000602084013e613c77565b606091505b506000815103613cbc576040517f08c379a0000000000000000000000000000000000000000000000000000000008152600401613cb390615935565b60405180910390fd5b805181602001fd5b63150b7a0260e01b7bffffffffffffffffffffffffffffffffffffffffffffffffffffffff1916817bffffffffffffffffffffffffffffffffffffffffffffffffffffffff191614915050613d19565b600190505b949350505050565b606060006001613d3084613e12565b01905060008167ffffffffffffffff811115613d4f57613d4e6142f5565b5b6040519080825280601f01601f191660200182016040528015613d815781602001600182028036833780820191505090505b509050600082602001820190505b600115613de4578080600190039150507f3031323334353637383961626364656600000000000000000000000000000000600a86061a8153600a8581613dd857613dd7615445565b5b04945060008503613d8f575b819350505050919050565b6000808273ffffffffffffffffffffffffffffffffffffffff163b119050919050565b600080600090507a184f03e93ff9f4daa797ed6e38ed64bf6a1f0100000000000000008310613e70577a184f03e93ff9f4daa797ed6e38ed64bf6a1f0100000000000000008381613e6657613e65615445565b5b0492506040810190505b6d04ee2d6d415b85acef81000000008310613ead576d04ee2d6d415b85acef81000000008381613ea357613ea2615445565b5b0492506020810190505b662386f26fc100008310613edc57662386f26fc100008381613ed257613ed1615445565b5b0492506010810190505b6305f5e1008310613f05576305f5e1008381613efb57613efa615445565b5b0492506008810190505b6127108310613f2a576127108381613f2057613f1f615445565b5b0492506004810190505b60648310613f4d5760648381613f4357613f42615445565b5b0492506002810190505b600a8310613f5c576001810190505b80915050919050565b6040518060a0016040528060008152602001600073ffffffffffffffffffffffffffffffffffffffff168152602001600073ffffffffffffffffffffffffffffffffffffffff168152602001600081526020016000151581525090565b6000604051905090565b600080fd5b600080fd5b60007fffffffff0000000000000000000000000000000000000000000000000000000082169050919050565b61400b81613fd6565b811461401657600080fd5b50565b60008135905061402881614002565b92915050565b60006020828403121561404457614043613fcc565b5b600061405284828501614019565b91505092915050565b60008115159050919050565b6140708161405b565b82525050565b600060208201905061408b6000830184614067565b92915050565b600081519050919050565b600082825260208201905092915050565b60005b838110156140cb5780820151818401526020810190506140b0565b60008484015250505050565b6000601f19601f8301169050919050565b60006140f382614091565b6140fd818561409c565b935061410d8185602086016140ad565b614116816140d7565b840191505092915050565b6000602082019050818103600083015261413b81846140e8565b905092915050565b6000819050919050565b61415681614143565b811461416157600080fd5b50565b6000813590506141738161414d565b92915050565b60006020828403121561418f5761418e613fcc565b5b600061419d84828501614164565b91505092915050565b600073ffffffffffffffffffffffffffffffffffffffff82169050919050565b60006141d1826141a6565b9050919050565b6141e1816141c6565b82525050565b60006020820190506141fc60008301846141d8565b92915050565b61420b816141c6565b811461421657600080fd5b50565b60008135905061422881614202565b92915050565b6000806040838503121561424557614244613fcc565b5b600061425385828601614219565b925050602061426485828601614164565b9150509250929050565b61427781614143565b82525050565b6000602082019050614292600083018461426e565b92915050565b6000806000606084860312156142b1576142b0613fcc565b5b60006142bf86828701614219565b93505060206142d086828701614219565b92505060406142e186828701614164565b9150509250925092565b600080fd5b600080fd5b7f4e487b7100000000000000000000000000000000000000000000000000000000600052604160045260246000fd5b61432d826140d7565b810181811067ffffffffffffffff8211171561434c5761434b6142f5565b5b80604052505050565b600061435f613fc2565b905061436b8282614324565b919050565b600067ffffffffffffffff82111561438b5761438a6142f5565b5b614394826140d7565b9050602081019050919050565b82818337600083830152505050565b60006143c36143be84614370565b614355565b9050828152602081018484840111156143df576143de6142f0565b5b6143ea8482856143a1565b509392505050565b600082601f830112614407576144066142eb565b5b81356144178482602086016143b0565b91505092915050565b60008060006060848603121561443957614438613fcc565b5b600084013567ffffffffffffffff81111561445757614456613fd1565b5b614463868287016143f2565b935050602084013567ffffffffffffffff81111561448457614483613fd1565b5b614490868287016143f2565b925050604084013567ffffffffffffffff8111156144b1576144b0613fd1565b5b6144bd868287016143f2565b9150509250925092565b6000602082840312156144dd576144dc613fcc565b5b600082013567ffffffffffffffff8111156144fb576144fa613fd1565b5b614507848285016143f2565b91505092915050565b600081519050919050565b600082825260208201905092915050565b6000819050602082019050919050565b61454581614143565b82525050565b6000614556826141a6565b9050919050565b6145668161454b565b82525050565b6145758161405b565b82525050565b60a082016000820151614591600085018261453c565b5060208201516145a4602085018261455d565b5060408201516145b7604085018261455d565b5060608201516145ca606085018261453c565b5060808201516145dd608085018261456c565b50505050565b60006145ef838361457b565b60a08301905092915050565b6000602082019050919050565b600061461382614510565b61461d818561451b565b93506146288361452c565b8060005b8381101561465957815161464088826145e3565b975061464b836145fb565b92505060018101905061462c565b5085935050505092915050565b600060208201905081810360008301526146808184614608565b905092915050565b60006101408201905081810360008301526146a3818d6140e8565b905081810360208301526146b7818c6140e8565b905081810360408301526146cb818b6140e8565b90506146da606083018a6141d8565b6146e7608083018961426e565b6146f460a0830188614067565b61470160c0830187614067565b61470e60e083018661426e565b61471c61010083018561426e565b61472a610120830184614067565b9b9a5050505050505050505050565b60006020828403121561474f5761474e613fcc565b5b600061475d84828501614219565b91505092915050565b61476f8161405b565b811461477a57600080fd5b50565b60008135905061478c81614766565b92915050565b600080604083850312156147a9576147a8613fcc565b5b600083013567ffffffffffffffff8111156147c7576147c6613fd1565b5b6147d3858286016143f2565b92505060206147e48582860161477d565b9150509250929050565b600060808201905061480360008301876141d8565b614810602083018661426e565b61481d604083018561426e565b61482a6060830184614067565b95945050505050565b6000806040838503121561484a57614849613fcc565b5b600061485885828601614219565b92505060206148698582860161477d565b9150509250929050565b600067ffffffffffffffff82111561488e5761488d6142f5565b5b614897826140d7565b9050602081019050919050565b60006148b76148b284614873565b614355565b9050828152602081018484840111156148d3576148d26142f0565b5b6148de8482856143a1565b509392505050565b600082601f8301126148fb576148fa6142eb565b5b813561490b8482602086016148a4565b91505092915050565b6000806000806080858703121561492e5761492d613fcc565b5b600061493c87828801614219565b945050602061494d87828801614219565b935050604061495e87828801614164565b925050606085013567ffffffffffffffff81111561497f5761497e613fd1565b5b61498b878288016148e6565b91505092959194509250565b600080604083850312156149ae576149ad613fcc565b5b60006149bc85828601614219565b92505060206149cd85828601614219565b9150509250929050565b7f4e487b7100000000000000000000000000000000000000000000000000000000600052602260045260246000fd5b60006002820490506001821680614a1e57607f821691505b602082108103614a3157614a306149d7565b5b50919050565b7f4552433732313a20617070726f76616c20746f2063757272656e74206f776e6560008201527f7200000000000000000000000000000000000000000000000000000000000000602082015250565b6000614a9360218361409c565b9150614a9e82614a37565b604082019050919050565b60006020820190508181036000830152614ac281614a86565b9050919050565b7f4552433732313a20617070726f76652063616c6c6572206973206e6f7420746f60008201527f6b656e206f776e6572206f7220617070726f76656420666f7220616c6c000000602082015250565b6000614b25603d8361409c565b9150614b3082614ac9565b604082019050919050565b60006020820190508181036000830152614b5481614b18565b9050919050565b7f4552433732313a2063616c6c6572206973206e6f7420746f6b656e206f776e6560008201527f72206f7220617070726f76656400000000000000000000000000000000000000602082015250565b6000614bb7602d8361409c565b9150614bc282614b5b565b604082019050919050565b60006020820190508181036000830152614be681614baa565b9050919050565b7f41646472657373206973206e6f7420746865206f776e65720000000000000000600082015250565b6000614c2360188361409c565b9150614c2e82614bed565b602082019050919050565b60006020820190508181036000830152614c5281614c16565b9050919050565b7f56616c756520686967686572207468616e2062616c616e63652e000000000000600082015250565b6000614c8f601a8361409c565b9150614c9a82614c59565b602082019050919050565b60006020820190508181036000830152614cbe81614c82565b9050919050565b600081905092915050565b50565b6000614ce0600083614cc5565b9150614ceb82614cd0565b600082019050919050565b6000614d0182614cd3565b9150819050919050565b7f54686572652077617320616e206572726f722100000000000000000000000000600082015250565b6000614d4160138361409c565b9150614d4c82614d0b565b602082019050919050565b60006020820190508181036000830152614d7081614d34565b9050919050565b7f496e636f727265637420737461676520666f72206d696e65725375626d69737360008201527f696f6e0000000000000000000000000000000000000000000000000000000000602082015250565b6000614dd360238361409c565b9150614dde82614d77565b604082019050919050565b60006020820190508181036000830152614e0281614dc6565b9050919050565b600081905092915050565b6000614e1f82614091565b614e298185614e09565b9350614e398185602086016140ad565b80840191505092915050565b6000614e518284614e14565b915081905092915050565b60008190508160005260206000209050919050565b60006020601f8301049050919050565b600082821b905092915050565b600060088302614ebe7fffffffffffffffffffffffffffffffffffffffffffffffffffffffffffffffff82614e81565b614ec88683614e81565b95508019841693508086168417925050509392505050565b6000819050919050565b6000614f05614f00614efb84614143565b614ee0565b614143565b9050919050565b6000819050919050565b614f1f83614eea565b614f33614f2b82614f0c565b848454614e8e565b825550505050565b600090565b614f48614f3b565b614f53818484614f16565b505050565b5b81811015614f7757614f6c600082614f40565b600181019050614f59565b5050565b601f821115614fbc57614f8d81614e5c565b614f9684614e71565b81016020851015614fa5578190505b614fb9614fb185614e71565b830182614f58565b50505b505050565b600082821c905092915050565b6000614fdf60001984600802614fc1565b1980831691505092915050565b6000614ff88383614fce565b9150826002028217905092915050565b61501182614091565b67ffffffffffffffff81111561502a576150296142f5565b5b6150348254614a06565b61503f828285614f7b565b600060209050601f8311600181146150725760008415615060578287015190505b61506a8582614fec565b8655506150d2565b601f19841661508086614e5c565b60005b828110156150a857848901518255600182019150602085019450602081019050615083565b868310156150c557848901516150c1601f891682614fce565b8355505b6001600288020188555050505b505050505050565b60006040820190506150ef600083018561426e565b6150fc60208301846141d8565b9392505050565b7f4e487b7100000000000000000000000000000000000000000000000000000000600052601160045260246000fd5b600061513d82614143565b915061514883614143565b92508282019050808211156151605761515f615103565b5b92915050565b600061517182614143565b91507fffffffffffffffffffffffffffffffffffffffffffffffffffffffffffffffff82036151a3576151a2615103565b5b600182019050919050565b7f4e487b7100000000000000000000000000000000000000000000000000000000600052603260045260246000fd5b7f4f6e6c792061646d696e2063616e206372656174650000000000000000000000600082015250565b600061521360158361409c565b915061521e826151dd565b602082019050919050565b6000602082019050818103600083015261524281615206565b9050919050565b7f4552433732313a20696e76616c696420746f6b656e2049440000000000000000600082015250565b600061527f60188361409c565b915061528a82615249565b602082019050919050565b600060208201905081810360008301526152ae81615272565b9050919050565b7f4552433732313a2061646472657373207a65726f206973206e6f74206120766160008201527f6c6964206f776e65720000000000000000000000000000000000000000000000602082015250565b600061531160298361409c565b915061531c826152b5565b604082019050919050565b6000602082019050818103600083015261534081615304565b9050919050565b7f496e636f727265637420737461676520666f7220766f7465466f724d696e657260008201527f5375626d697373696f6e00000000000000000000000000000000000000000000602082015250565b60006153a3602a8361409c565b91506153ae82615347565b604082019050919050565b600060208201905081810360008301526153d281615396565b9050919050565b7f496e636f727265637420737461676520666f7220766f7465466f725265706f00600082015250565b600061540f601f8361409c565b915061541a826153d9565b602082019050919050565b6000602082019050818103600083015261543e81615402565b9050919050565b7f4e487b7100000000000000000000000000000000000000000000000000000000600052601260045260246000fd5b600061547f82614143565b915061548a83614143565b92508261549a57615499615445565b5b828204905092915050565b60006154b18285614e14565b91506154bd8284614e14565b91508190509392505050565b60006040820190506154de60008301856141d8565b6154eb602083018461426e565b9392505050565b7f496e636f727265637420737461676520666f72206a6f696e44616f2c2077616960008201527f7420666f72206e6578742045706f636800000000000000000000000000000000602082015250565b600061554e60308361409c565b9150615559826154f2565b604082019050919050565b6000602082019050818103600083015261557d81615541565b9050919050565b7f4552433732313a207472616e736665722066726f6d20696e636f72726563742060008201527f6f776e6572000000000000000000000000000000000000000000000000000000602082015250565b60006155e060258361409c565b91506155eb82615584565b604082019050919050565b6000602082019050818103600083015261560f816155d3565b9050919050565b7f4552433732313a207472616e7366657220746f20746865207a65726f2061646460008201527f7265737300000000000000000000000000000000000000000000000000000000602082015250565b600061567260248361409c565b915061567d82615616565b604082019050919050565b600060208201905081810360008301526156a181615665565b9050919050565b7f4552433732313a206d696e7420746f20746865207a65726f2061646472657373600082015250565b60006156de60208361409c565b91506156e9826156a8565b602082019050919050565b6000602082019050818103600083015261570d816156d1565b9050919050565b7f4552433732313a20746f6b656e20616c7265616479206d696e74656400000000600082015250565b600061574a601c8361409c565b915061575582615714565b602082019050919050565b600060208201905081810360008301526157798161573d565b9050919050565b7f45524337323155524953746f726167653a2055524920736574206f66206e6f6e60008201527f6578697374656e7420746f6b656e000000000000000000000000000000000000602082015250565b60006157dc602e8361409c565b91506157e782615780565b604082019050919050565b6000602082019050818103600083015261580b816157cf565b9050919050565b600060808201905061582760008301876141d8565b61583460208301866141d8565b615841604083018561426e565b61584e6060830184614067565b95945050505050565b7f4552433732313a20617070726f766520746f2063616c6c657200000000000000600082015250565b600061588d60198361409c565b915061589882615857565b602082019050919050565b600060208201905081810360008301526158bc81615880565b9050919050565b7f4552433732313a207472616e7366657220746f206e6f6e20455243373231526560008201527f63656976657220696d706c656d656e7465720000000000000000000000000000602082015250565b600061591f60328361409c565b915061592a826158c3565b604082019050919050565b6000602082019050818103600083015261594e81615912565b9050919050565b600061596082614143565b915061596b83614143565b925082820390508181111561598357615982615103565b5b92915050565b600081519050919050565b600082825260208201905092915050565b60006159b082615989565b6159ba8185615994565b93506159ca8185602086016140ad565b6159d3816140d7565b840191505092915050565b60006080820190506159f360008301876141d8565b615a0060208301866141d8565b615a0d604083018561426e565b8181036060830152615a1f81846159a5565b905095945050505050565b600081519050615a3981614002565b92915050565b600060208284031215615a5557615a54613fcc565b5b6000615a6384828501615a2a565b9150509291505056fea264697066735822122023cab2b675adfe3f4c1b06233861cc2381c1007923541f6da4aa0713cabcb6b164736f6c63430008110033",
  "linkReferences": {},
  "deployedLinkReferences": {}
}