{
  "_format": "hh-sol-artifact-1",
  "contractName": "Artifacts",
  "sourceName": "contracts/Artifacts.sol",
  "abi": [
    {
      "inputs": [],
      "stateMutability": "nonpayable",
      "type": "constructor"
    },
    {
      "anonymous": false,
      "inputs": [
        {
          "indexed": true,
          "internalType": "address",
          "name": "owner",
          "type": "address"
        },
        {
          "indexed": true,
          "internalType": "address",
          "name": "approved",
          "type": "address"
        },
        {
          "indexed": true,
          "internalType": "uint256",
          "name": "tokenId",
          "type": "uint256"
        }
      ],
      "name": "Approval",
      "type": "event"
    },
    {
      "anonymous": false,
      "inputs": [
        {
          "indexed": true,
          "internalType": "uint256",
          "name": "tokenId",
          "type": "uint256"
        },
        {
          "indexed": false,
          "internalType": "address",
          "name": "admin",
          "type": "address"
        },
        {
          "indexed": false,
          "internalType": "uint256",
          "name": "dateApproved",
          "type": "uint256"
        }
      ],
      "name": "ApprovalCreated",
      "type": "event"
    },
    {
      "anonymous": false,
      "inputs": [
        {
          "indexed": true,
          "internalType": "address",
          "name": "owner",
          "type": "address"
        },
        {
          "indexed": true,
          "internalType": "address",
          "name": "operator",
          "type": "address"
        },
        {
          "indexed": false,
          "internalType": "bool",
          "name": "approved",
          "type": "bool"
        }
      ],
      "name": "ApprovalForAll",
      "type": "event"
    },
    {
      "anonymous": false,
      "inputs": [
        {
          "indexed": true,
          "internalType": "uint256",
          "name": "tokenId",
          "type": "uint256"
        },
        {
          "indexed": false,
          "internalType": "address",
          "name": "author",
          "type": "address"
        },
        {
          "indexed": false,
          "internalType": "address",
          "name": "owner",
          "type": "address"
        },
        {
          "indexed": false,
          "internalType": "uint256",
          "name": "dateCreated",
          "type": "uint256"
        },
        {
          "indexed": false,
          "internalType": "bool",
          "name": "approved",
          "type": "bool"
        }
      ],
      "name": "ArtifactItemCreated",
      "type": "event"
    },
    {
      "anonymous": false,
      "inputs": [
        {
          "indexed": true,
          "internalType": "address",
          "name": "from",
          "type": "address"
        },
        {
          "indexed": true,
          "internalType": "address",
          "name": "to",
          "type": "address"
        },
        {
          "indexed": true,
          "internalType": "uint256",
          "name": "tokenId",
          "type": "uint256"
        }
      ],
      "name": "Transfer",
      "type": "event"
    },
    {
      "anonymous": false,
      "inputs": [
        {
          "indexed": true,
          "internalType": "uint256",
          "name": "vId",
          "type": "uint256"
        },
        {
          "indexed": false,
          "internalType": "uint256",
          "name": "tokenId",
          "type": "uint256"
        },
        {
          "indexed": false,
          "internalType": "address",
          "name": "visitor",
          "type": "address"
        }
      ],
      "name": "ViewItemCreated",
      "type": "event"
    },
    {
      "inputs": [
        {
          "internalType": "string",
          "name": "",
          "type": "string"
        }
      ],
      "name": "ArtifactRepos",
      "outputs": [
        {
          "internalType": "string",
          "name": "url",
          "type": "string"
        },
        {
          "internalType": "string",
          "name": "dealId",
          "type": "string"
        },
        {
          "internalType": "string",
          "name": "pieceCid",
          "type": "string"
        },
        {
          "internalType": "address",
          "name": "spAddress",
          "type": "address"
        },
        {
          "internalType": "uint256",
          "name": "numberOfVotes",
          "type": "uint256"
        },
        {
          "internalType": "bool",
          "name": "stored",
          "type": "bool"
        },
        {
          "internalType": "bool",
          "name": "accepted",
          "type": "bool"
        },
        {
          "internalType": "uint256",
          "name": "yesVotes",
          "type": "uint256"
        },
        {
          "internalType": "uint256",
          "name": "noVotes",
          "type": "uint256"
        },
        {
          "internalType": "bool",
          "name": "isValue",
          "type": "bool"
        }
      ],
      "stateMutability": "view",
      "type": "function"
    },
    {
      "inputs": [],
      "name": "_itemApproved",
      "outputs": [
        {
          "internalType": "uint256",
          "name": "_value",
          "type": "uint256"
        }
      ],
      "stateMutability": "view",
      "type": "function"
    },
    {
      "inputs": [],
      "name": "_viewIds",
      "outputs": [
        {
          "internalType": "uint256",
          "name": "_value",
          "type": "uint256"
        }
      ],
      "stateMutability": "view",
      "type": "function"
    },
    {
      "inputs": [],
      "name": "admin",
      "outputs": [
        {
          "internalType": "address",
          "name": "",
          "type": "address"
        }
      ],
      "stateMutability": "view",
      "type": "function"
    },
    {
      "inputs": [],
      "name": "adminAdvanceEpoch",
      "outputs": [],
      "stateMutability": "nonpayable",
      "type": "function"
    },
    {
      "inputs": [],
      "name": "adminAdvanceStage",
      "outputs": [],
      "stateMutability": "nonpayable",
      "type": "function"
    },
    {
      "inputs": [
        {
          "internalType": "address",
          "name": "to",
          "type": "address"
        },
        {
          "internalType": "uint256",
          "name": "tokenId",
          "type": "uint256"
        }
      ],
      "name": "approve",
      "outputs": [],
      "stateMutability": "nonpayable",
      "type": "function"
    },
    {
      "inputs": [
        {
          "internalType": "address",
          "name": "owner",
          "type": "address"
        }
      ],
      "name": "balanceOf",
      "outputs": [
        {
          "internalType": "uint256",
          "name": "",
          "type": "uint256"
        }
      ],
      "stateMutability": "view",
      "type": "function"
    },
    {
      "inputs": [
        {
          "internalType": "uint256",
          "name": "tokenId",
          "type": "uint256"
        }
      ],
      "name": "createArtifactApproval",
      "outputs": [],
      "stateMutability": "nonpayable",
      "type": "function"
    },
    {
      "inputs": [
        {
          "internalType": "string",
          "name": "tokenURI",
          "type": "string"
        }
      ],
      "name": "createToken",
      "outputs": [
        {
          "internalType": "uint256",
          "name": "",
          "type": "uint256"
        }
      ],
      "stateMutability": "payable",
      "type": "function"
    },
    {
      "inputs": [
        {
          "internalType": "uint256",
          "name": "tokenId",
          "type": "uint256"
        }
      ],
      "name": "createViewItem",
      "outputs": [],
      "stateMutability": "nonpayable",
      "type": "function"
    },
    {
      "inputs": [],
      "name": "currentEpoch",
      "outputs": [
        {
          "internalType": "uint256",
          "name": "",
          "type": "uint256"
        }
      ],
      "stateMutability": "view",
      "type": "function"
    },
    {
      "inputs": [
        {
          "internalType": "address",
          "name": "",
          "type": "address"
        }
      ],
      "name": "daoMembers",
      "outputs": [
        {
          "internalType": "address",
          "name": "addr",
          "type": "address"
        },
        {
          "internalType": "uint256",
          "name": "availableVotes",
          "type": "uint256"
        },
        {
          "internalType": "uint256",
          "name": "votingPower",
          "type": "uint256"
        },
        {
          "internalType": "bool",
          "name": "isValue",
          "type": "bool"
        }
      ],
      "stateMutability": "view",
      "type": "function"
    },
    {
      "inputs": [],
      "name": "epochStage",
      "outputs": [
        {
          "internalType": "uint256",
          "name": "",
          "type": "uint256"
        }
      ],
      "stateMutability": "view",
      "type": "function"
    },
    {
      "inputs": [],
      "name": "fetchAllArtifacts",
      "outputs": [
        {
          "components": [
            {
              "internalType": "uint256",
              "name": "tokenId",
              "type": "uint256"
            },
            {
              "internalType": "address payable",
              "name": "author",
              "type": "address"
            },
            {
              "internalType": "address payable",
              "name": "owner",
              "type": "address"
            },
            {
              "internalType": "uint256",
              "name": "dateCreated",
              "type": "uint256"
            },
            {
              "internalType": "bool",
              "name": "approved",
              "type": "bool"
            }
          ],
          "internalType": "struct Artifacts.ArtifactItem[]",
          "name": "",
          "type": "tuple[]"
        }
      ],
      "stateMutability": "view",
      "type": "function"
    },
    {
      "inputs": [],
      "name": "fetchArtifactsApproved",
      "outputs": [
        {
          "components": [
            {
              "internalType": "uint256",
              "name": "tokenId",
              "type": "uint256"
            },
            {
              "internalType": "address payable",
              "name": "author",
              "type": "address"
            },
            {
              "internalType": "address payable",
              "name": "owner",
              "type": "address"
            },
            {
              "internalType": "uint256",
              "name": "dateCreated",
              "type": "uint256"
            },
            {
              "internalType": "bool",
              "name": "approved",
              "type": "bool"
            }
          ],
          "internalType": "struct Artifacts.ArtifactItem[]",
          "name": "",
          "type": "tuple[]"
        }
      ],
      "stateMutability": "view",
      "type": "function"
    },
    {
      "inputs": [
        {
          "internalType": "uint256",
          "name": "tokenId",
          "type": "uint256"
        }
      ],
      "name": "fetchItemViews",
      "outputs": [
        {
          "internalType": "uint256",
          "name": "",
          "type": "uint256"
        }
      ],
      "stateMutability": "view",
      "type": "function"
    },
    {
      "inputs": [],
      "name": "fetchMyArtifacts",
      "outputs": [
        {
          "components": [
            {
              "internalType": "uint256",
              "name": "tokenId",
              "type": "uint256"
            },
            {
              "internalType": "address payable",
              "name": "author",
              "type": "address"
            },
            {
              "internalType": "address payable",
              "name": "owner",
              "type": "address"
            },
            {
              "internalType": "uint256",
              "name": "dateCreated",
              "type": "uint256"
            },
            {
              "internalType": "bool",
              "name": "approved",
              "type": "bool"
            }
          ],
          "internalType": "struct Artifacts.ArtifactItem[]",
          "name": "",
          "type": "tuple[]"
        }
      ],
      "stateMutability": "view",
      "type": "function"
    },
    {
      "inputs": [
        {
          "internalType": "uint256",
          "name": "_tokenId",
          "type": "uint256"
        }
      ],
      "name": "fetchOneArtifact",
      "outputs": [
        {
          "components": [
            {
              "internalType": "uint256",
              "name": "tokenId",
              "type": "uint256"
            },
            {
              "internalType": "address payable",
              "name": "author",
              "type": "address"
            },
            {
              "internalType": "address payable",
              "name": "owner",
              "type": "address"
            },
            {
              "internalType": "uint256",
              "name": "dateCreated",
              "type": "uint256"
            },
            {
              "internalType": "bool",
              "name": "approved",
              "type": "bool"
            }
          ],
          "internalType": "struct Artifacts.ArtifactItem[]",
          "name": "",
          "type": "tuple[]"
        }
      ],
      "stateMutability": "view",
      "type": "function"
    },
    {
      "inputs": [],
      "name": "fetchTotalViews",
      "outputs": [
        {
          "internalType": "uint256",
          "name": "",
          "type": "uint256"
        }
      ],
      "stateMutability": "view",
      "type": "function"
    },
    {
      "inputs": [
        {
          "internalType": "uint256",
          "name": "tokenId",
          "type": "uint256"
        }
      ],
      "name": "getApproved",
      "outputs": [
        {
          "internalType": "address",
          "name": "",
          "type": "address"
        }
      ],
      "stateMutability": "view",
      "type": "function"
    },
    {
      "inputs": [
        {
          "internalType": "address",
          "name": "owner",
          "type": "address"
        },
        {
          "internalType": "address",
          "name": "operator",
          "type": "address"
        }
      ],
      "name": "isApprovedForAll",
      "outputs": [
        {
          "internalType": "bool",
          "name": "",
          "type": "bool"
        }
      ],
      "stateMutability": "view",
      "type": "function"
    },
    {
      "inputs": [],
      "name": "joinDao",
      "outputs": [],
      "stateMutability": "payable",
      "type": "function"
    },
    {
      "inputs": [
        {
          "internalType": "string",
          "name": "url",
          "type": "string"
        },
        {
          "internalType": "string",
          "name": "dealId",
          "type": "string"
        },
        {
          "internalType": "string",
          "name": "pieceCid",
          "type": "string"
        }
      ],
      "name": "minerSubmission",
      "outputs": [],
      "stateMutability": "nonpayable",
      "type": "function"
    },
    {
      "inputs": [],
      "name": "name",
      "outputs": [
        {
          "internalType": "string",
          "name": "",
          "type": "string"
        }
      ],
      "stateMutability": "view",
      "type": "function"
    },
    {
      "inputs": [
        {
          "internalType": "uint256",
          "name": "tokenId",
          "type": "uint256"
        }
      ],
      "name": "ownerOf",
      "outputs": [
        {
          "internalType": "address",
          "name": "",
          "type": "address"
        }
      ],
      "stateMutability": "view",
      "type": "function"
    },
    {
      "inputs": [
        {
          "internalType": "address",
          "name": "from",
          "type": "address"
        },
        {
          "internalType": "address",
          "name": "to",
          "type": "address"
        },
        {
          "internalType": "uint256",
          "name": "tokenId",
          "type": "uint256"
        }
      ],
      "name": "safeTransferFrom",
      "outputs": [],
      "stateMutability": "nonpayable",
      "type": "function"
    },
    {
      "inputs": [
        {
          "internalType": "address",
          "name": "from",
          "type": "address"
        },
        {
          "internalType": "address",
          "name": "to",
          "type": "address"
        },
        {
          "internalType": "uint256",
          "name": "tokenId",
          "type": "uint256"
        },
        {
          "internalType": "bytes",
          "name": "data",
          "type": "bytes"
        }
      ],
      "name": "safeTransferFrom",
      "outputs": [],
      "stateMutability": "nonpayable",
      "type": "function"
    },
    {
      "inputs": [
        {
          "internalType": "address",
          "name": "operator",
          "type": "address"
        },
        {
          "internalType": "bool",
          "name": "approved",
          "type": "bool"
        }
      ],
      "name": "setApprovalForAll",
      "outputs": [],
      "stateMutability": "nonpayable",
      "type": "function"
    },
    {
      "inputs": [
        {
          "internalType": "bytes4",
          "name": "interfaceId",
          "type": "bytes4"
        }
      ],
      "name": "supportsInterface",
      "outputs": [
        {
          "internalType": "bool",
          "name": "",
          "type": "bool"
        }
      ],
      "stateMutability": "view",
      "type": "function"
    },
    {
      "inputs": [],
      "name": "symbol",
      "outputs": [
        {
          "internalType": "string",
          "name": "",
          "type": "string"
        }
      ],
      "stateMutability": "view",
      "type": "function"
    },
    {
      "inputs": [
        {
          "internalType": "uint256",
          "name": "tokenId",
          "type": "uint256"
        }
      ],
      "name": "tokenURI",
      "outputs": [
        {
          "internalType": "string",
          "name": "",
          "type": "string"
        }
      ],
      "stateMutability": "view",
      "type": "function"
    },
    {
      "inputs": [],
      "name": "totalVotes",
      "outputs": [
        {
          "internalType": "uint256",
          "name": "",
          "type": "uint256"
        }
      ],
      "stateMutability": "view",
      "type": "function"
    },
    {
      "inputs": [
        {
          "internalType": "address",
          "name": "from",
          "type": "address"
        },
        {
          "internalType": "address",
          "name": "to",
          "type": "address"
        },
        {
          "internalType": "uint256",
          "name": "tokenId",
          "type": "uint256"
        }
      ],
      "name": "transferFrom",
      "outputs": [],
      "stateMutability": "nonpayable",
      "type": "function"
    },
    {
      "inputs": [
        {
          "internalType": "string",
          "name": "url",
          "type": "string"
        },
        {
          "internalType": "bool",
          "name": "acceptSubmission",
          "type": "bool"
        }
      ],
      "name": "voteForMinerSubmission",
      "outputs": [],
      "stateMutability": "nonpayable",
      "type": "function"
    },
    {
      "inputs": [
        {
          "internalType": "string",
          "name": "url",
          "type": "string"
        }
      ],
      "name": "voteForRepo",
      "outputs": [],
      "stateMutability": "nonpayable",
      "type": "function"
    },
    {
      "inputs": [
        {
          "internalType": "uint256",
          "name": "value",
          "type": "uint256"
        }
      ],
      "name": "withdraw",
      "outputs": [],
      "stateMutability": "nonpayable",
      "type": "function"
    }
  ],
  "bytecode": "0x60806040523480156200001157600080fd5b506040518060400160405280601581526020017f41727469666163747344414f204a6f75726e616c730000000000000000000000815250604051806040016040528060048152602001631054951160e21b815250816000908162000076919062000155565b50600162000085828262000155565b5050600a8054336001600160a01b03199182168117909255600b805490911690911790555062000221565b634e487b7160e01b600052604160045260246000fd5b600181811c90821680620000db57607f821691505b602082108103620000fc57634e487b7160e01b600052602260045260246000fd5b50919050565b601f8211156200015057600081815260208120601f850160051c810160208610156200012b5750805b601f850160051c820191505b818110156200014c5782815560010162000137565b5050505b505050565b81516001600160401b03811115620001715762000171620000b0565b6200018981620001828454620000c6565b8462000102565b602080601f831160018114620001c15760008415620001a85750858301515b600019600386901b1c1916600185901b1785556200014c565b600085815260208120601f198616915b82811015620001f257888601518255948401946001909101908401620001d1565b5085821015620002115787850151600019600388901b60f8161c191681555b5050505050600190811b01905550565b61325c80620002316000396000f3fe60806040526004361061021a5760003560e01c806370a0823111610123578063b7ebf235116100ab578063e985e9c51161006f578063e985e9c514610659578063f37cd59214610679578063f55be0861461068e578063f851a440146106a3578063fef6b327146106c357600080fd5b8063b7ebf235146105d1578063b88d4fde146105f1578063c87b56dd14610611578063ccaa69ea14610631578063dd61fc891461065157600080fd5b8063921a063d116100f2578063921a063d146104f7578063959068ea1461050c57806395d89b4114610587578063999136d01461059c578063a22cb465146105b157600080fd5b806370a082311461048157806376671808146104a15780638727f720146104b7578063893e1f96146104d757600080fd5b806338c1ee7f116101a657806352bed1711161017557806352bed171146103d457806361ca6cc3146104015780636352211e14610416578063637bba09146104365780636a072bf11461044b57600080fd5b806338c1ee7f1461036a5780633c8f28231461038157806342842e0e146103a157806345576f94146103c157600080fd5b80630d15fd77116101ed5780630d15fd77146102d057806321ab018a146102f457806323b872dd1461030a5780632e1a7d4d1461032a5780633152d38b1461034a57600080fd5b806301ffc9a71461021f57806306fdde0314610254578063081812fc14610276578063095ea7b3146102ae575b600080fd5b34801561022b57600080fd5b5061023f61023a3660046129f6565b6106da565b60405190151581526020015b60405180910390f35b34801561026057600080fd5b5061026961072c565b60405161024b9190612a63565b34801561028257600080fd5b50610296610291366004612a76565b6107be565b6040516001600160a01b03909116815260200161024b565b3480156102ba57600080fd5b506102ce6102c9366004612aab565b6107e5565b005b3480156102dc57600080fd5b506102e6600e5481565b60405190815260200161024b565b34801561030057600080fd5b506102e6600d5481565b34801561031657600080fd5b506102ce610325366004612ad5565b6108ff565b34801561033657600080fd5b506102ce610345366004612a76565b610930565b34801561035657600080fd5b506102ce610365366004612bbd565b610a77565b34801561037657600080fd5b506009546102e69081565b34801561038d57600080fd5b506102ce61039c366004612a76565b610e2c565b3480156103ad57600080fd5b506102ce6103bc366004612ad5565b610edd565b6102e66103cf366004612c45565b610ef8565b3480156103e057600080fd5b506103f46103ef366004612a76565b610f32565b60405161024b9190612c7a565b34801561040d57600080fd5b506102ce6110da565b34801561042257600080fd5b50610296610431366004612a76565b61111e565b34801561044257600080fd5b506103f461117e565b34801561045757600080fd5b5061046b610466366004612c45565b61133b565b60405161024b9a99989796959493929190612cf6565b34801561048d57600080fd5b506102e661049c366004612d78565b611540565b3480156104ad57600080fd5b506102e6600c5481565b3480156104c357600080fd5b506102e66104d2366004612a76565b6115c6565b3480156104e357600080fd5b506102ce6104f2366004612da3565b61162f565b34801561050357600080fd5b506103f461177e565b34801561051857600080fd5b5061055b610527366004612d78565b600f6020526000908152604090208054600182015460028301546003909301546001600160a01b0390921692909160ff1684565b604080516001600160a01b0390951685526020850193909352918301521515606082015260800161024b565b34801561059357600080fd5b506102696118df565b3480156105a857600080fd5b506102ce6118ee565b3480156105bd57600080fd5b506102ce6105cc366004612df1565b61192b565b3480156105dd57600080fd5b506102ce6105ec366004612c45565b611936565b3480156105fd57600080fd5b506102ce61060c366004612e1b565b611bfa565b34801561061d57600080fd5b5061026961062c366004612a76565b611c32565b34801561063d57600080fd5b506102ce61064c366004612a76565b611d42565b6102ce611dd4565b34801561066557600080fd5b5061023f610674366004612e97565b611ed6565b34801561068557600080fd5b506103f4611f04565b34801561069a57600080fd5b506102e66120b2565b3480156106af57600080fd5b50600b54610296906001600160a01b031681565b3480156106cf57600080fd5b506008546102e69081565b60006001600160e01b031982166380ac58cd60e01b148061070b57506001600160e01b03198216635b5e139f60e01b145b8061072657506301ffc9a760e01b6001600160e01b03198316145b92915050565b60606000805461073b90612ec1565b80601f016020809104026020016040519081016040528092919081815260200182805461076790612ec1565b80156107b45780601f10610789576101008083540402835291602001916107b4565b820191906000526020600020905b81548152906001019060200180831161079757829003601f168201915b5050505050905090565b60006107c9826120be565b506000908152600460205260409020546001600160a01b031690565b60006107f08261111e565b9050806001600160a01b0316836001600160a01b0316036108625760405162461bcd60e51b815260206004820152602160248201527f4552433732313a20617070726f76616c20746f2063757272656e74206f776e656044820152603960f91b60648201526084015b60405180910390fd5b336001600160a01b038216148061087e575061087e8133611ed6565b6108f05760405162461bcd60e51b815260206004820152603e60248201527f4552433732313a20617070726f76652063616c6c6572206973206e6f7420746f60448201527f6b656e206f776e6572206e6f7220617070726f76656420666f7220616c6c00006064820152608401610859565b6108fa838361211d565b505050565b610909338261218b565b6109255760405162461bcd60e51b815260040161085990612efb565b6108fa8383836121e9565b600a546001600160a01b0316331461098a5760405162461bcd60e51b815260206004820152601860248201527f41646472657373206973206e6f7420746865206f776e657200000000000000006044820152606401610859565b478111156109da5760405162461bcd60e51b815260206004820152601a60248201527f56616c756520686967686572207468616e2062616c616e63652e0000000000006044820152606401610859565b600a546040516000916001600160a01b03169083908381818185875af1925050503d8060008114610a27576040519150601f19603f3d011682016040523d82523d6000602084013e610a2c565b606091505b5050905080610a735760405162461bcd60e51b815260206004820152601360248201527254686572652077617320616e206572726f722160681b6044820152606401610859565b5050565b600d54600214610ad55760405162461bcd60e51b815260206004820152602360248201527f496e636f727265637420737461676520666f72206d696e65725375626d69737360448201526234b7b760e91b6064820152608401610859565b6000601084604051610ae79190612f49565b908152602001604051809103902060405180610140016040529081600082018054610b1190612ec1565b80601f0160208091040260200160405190810160405280929190818152602001828054610b3d90612ec1565b8015610b8a5780601f10610b5f57610100808354040283529160200191610b8a565b820191906000526020600020905b815481529060010190602001808311610b6d57829003601f168201915b50505050508152602001600182018054610ba390612ec1565b80601f0160208091040260200160405190810160405280929190818152602001828054610bcf90612ec1565b8015610c1c5780601f10610bf157610100808354040283529160200191610c1c565b820191906000526020600020905b815481529060010190602001808311610bff57829003601f168201915b50505050508152602001600282018054610c3590612ec1565b80601f0160208091040260200160405190810160405280929190818152602001828054610c6190612ec1565b8015610cae5780601f10610c8357610100808354040283529160200191610cae565b820191906000526020600020905b815481529060010190602001808311610c9157829003601f168201915b505050918352505060038201546001600160a01b0316602082015260048201546040820152600582015460ff80821615156060840152610100909104811615156080830152600683015460a0830152600783015460c0830152600890920154909116151560e09091015261012081015190915015610d42576020810183905260408101829052600160a08201523360608201525b80601085604051610d539190612f49565b90815260405190819003602001902081518190610d709082612fb3565b5060208201516001820190610d859082612fb3565b5060408201516002820190610d9a9082612fb3565b5060608201516003820180546001600160a01b0319166001600160a01b039092169190911790556080820151600482015560a082015160058201805460c085015161ffff1990911692151561ff00191692909217610100921515830217905560e083015160068301558201516007820155610120909101516008909101805460ff191691151591909117905550505050565b610e3a600880546001019055565b6000610e4560085490565b6040805160608101825282815260208082018681523383850181815260008781526012855286902094518555915160018501559051600290930180546001600160a01b0319166001600160a01b039094169390931790925582518681529081019190915291925082917f76eeab97092ad834df0b561eae45cd54f5583ebef4240be2483d115d9fb4ed61910160405180910390a25050565b6108fa83838360405180602001604052806000815250611bfa565b6000610f08600780546001019055565b6000610f1360075490565b9050610f1f3382612385565b610f2981846124c7565b6107268161255a565b60606000610f3f60075490565b905060008060005b83811015610f96578560116000610f5f846001613089565b81526020019081526020016000206000015403610f8457610f81600184613089565b92505b80610f8e8161309c565b915050610f47565b5060008267ffffffffffffffff811115610fb257610fb2612b11565b604051908082528060200260200182016040528015610feb57816020015b610fd86129b2565b815260200190600190039081610fd05790505b50905060005b848110156110d0578660116000611009846001613089565b815260200190815260200160002060000154036110be57600061102d826001613089565b600081815260116020908152604091829020825160a0810184528154815260018201546001600160a01b039081169382019390935260028201549092169282019290925260038201546060820152600482015460ff1615156080820152855192935090918590879081106110a3576110a36130b5565b60209081029190910101526110b9600186613089565b945050505b806110c88161309c565b915050610ff1565b5095945050505050565b600b546001600160a01b031633146111045760405162461bcd60e51b8152600401610859906130cb565b6001600d60008282546111179190613089565b9091555050565b6000818152600260205260408120546001600160a01b0316806107265760405162461bcd60e51b8152602060048201526018602482015277115490cdcc8c4e881a5b9d985b1a59081d1bdad95b88125160421b6044820152606401610859565b6060600061118b60075490565b905060008060005b838110156111ed5733601160006111ab846001613089565b81526020810191909152604001600020600101546001600160a01b0316036111db576111d8600184613089565b92505b806111e58161309c565b915050611193565b5060008267ffffffffffffffff81111561120957611209612b11565b60405190808252806020026020018201604052801561124257816020015b61122f6129b2565b8152602001906001900390816112275790505b50905060005b84811015611332573360116000611260846001613089565b81526020810191909152604001600020600101546001600160a01b03160361132057600061128f826001613089565b600081815260116020908152604091829020825160a0810184528154815260018201546001600160a01b039081169382019390935260028201549092169282019290925260038201546060820152600482015460ff161515608082015285519293509091859087908110611305576113056130b5565b602090810291909101015261131b600186613089565b945050505b8061132a8161309c565b915050611248565b50949350505050565b805160208183018101805160108252928201919093012091528054819061136190612ec1565b80601f016020809104026020016040519081016040528092919081815260200182805461138d90612ec1565b80156113da5780601f106113af576101008083540402835291602001916113da565b820191906000526020600020905b8154815290600101906020018083116113bd57829003601f168201915b5050505050908060010180546113ef90612ec1565b80601f016020809104026020016040519081016040528092919081815260200182805461141b90612ec1565b80156114685780601f1061143d57610100808354040283529160200191611468565b820191906000526020600020905b81548152906001019060200180831161144b57829003601f168201915b50505050509080600201805461147d90612ec1565b80601f01602080910402602001604051908101604052809291908181526020018280546114a990612ec1565b80156114f65780601f106114cb576101008083540402835291602001916114f6565b820191906000526020600020905b8154815290600101906020018083116114d957829003601f168201915b505050506003830154600484015460058501546006860154600787015460089097015495966001600160a01b039094169592945060ff80831694610100909304811693919291168a565b60006001600160a01b0382166115aa5760405162461bcd60e51b815260206004820152602960248201527f4552433732313a2061646472657373207a65726f206973206e6f7420612076616044820152683634b21037bbb732b960b91b6064820152608401610859565b506001600160a01b031660009081526003602052604090205490565b6000806115d260085490565b90506000805b828110156116275784601260006115f0846001613089565b8152602001908152602001600020600101540361161557611612600183613089565b91505b8061161f8161309c565b9150506115d8565b509392505050565b336000908152600f602052604090206003015460ff1615610a7357600d546003146116af5760405162461bcd60e51b815260206004820152602a60248201527f496e636f727265637420737461676520666f7220766f7465466f724d696e657260448201526929bab136b4b9b9b4b7b760b11b6064820152608401610859565b6010826040516116bf9190612f49565b9081526040519081900360200190206008015460ff1615610a7357801561173057336000908152600f602052604090819020600201549051601090611705908590612f49565b908152602001604051809103902060060160008282546117259190613089565b90915550610a739050565b336000908152600f602052604090819020600201549051601090611755908590612f49565b908152602001604051809103902060070160008282546117759190613089565b90915550505050565b6060600061178b60075490565b9050600061179860075490565b90506000808267ffffffffffffffff8111156117b6576117b6612b11565b6040519080825280602002602001820160405280156117ef57816020015b6117dc6129b2565b8152602001906001900390816117d45790505b50905060005b8481101561133257306011600061180d846001613089565b81526020810191909152604001600020600201546001600160a01b0316036118cd57600061183c826001613089565b600081815260116020908152604091829020825160a0810184528154815260018201546001600160a01b039081169382019390935260028201549092169282019290925260038201546060820152600482015460ff1615156080820152855192935090918590879081106118b2576118b26130b5565b60209081029190910101526118c8600186613089565b945050505b806118d78161309c565b9150506117f5565b60606001805461073b90612ec1565b600b546001600160a01b031633146119185760405162461bcd60e51b8152600401610859906130cb565b6001600c60008282546111179190613089565b610a7333838361263b565b336000908152600f602052604090206003015460ff1615611a9d57600d546001146119a35760405162461bcd60e51b815260206004820152601f60248201527f496e636f727265637420737461676520666f7220766f7465466f725265706f006044820152606401610859565b6010816040516119b39190612f49565b9081526040519081900360200190206008015460ff1615611aa057336000908152600f6020526040908190206001015490516010906119f3908490612f49565b90815260200160405180910390206004016000828254611a139190613089565b9091555050336000908152600f6020526040812060010155600e54611a3a90600290613110565b601082604051611a4a9190612f49565b9081526020016040518091039020600401541115611a9d576001601082604051611a749190612f49565b90815260405190819003602001902060050180549115156101000261ff00199092169190911790555b50565b6040805161014081018252828152815160208181018452600080835281840192909252835180820185528281528385015260608301829052338252600f9052828120600190810154608084015260a0830182905260c0830182905260e0830182905261010083019190915261012082015290518190601090611b23908590612f49565b90815260405190819003602001902081518190611b409082612fb3565b5060208201516001820190611b559082612fb3565b5060408201516002820190611b6a9082612fb3565b5060608201516003820180546001600160a01b0319166001600160a01b039092169190911790556080820151600482015560a082015160058201805460c085015161ffff1990911692151561ff00191692909217610100921515830217905560e083015160068301558201516007820155610120909101516008909101805460ff19169115159190911790555050565b611c04338361218b565b611c205760405162461bcd60e51b815260040161085990612efb565b611c2c84848484612709565b50505050565b6060611c3d826120be565b60008281526006602052604081208054611c5690612ec1565b80601f0160208091040260200160405190810160405280929190818152602001828054611c8290612ec1565b8015611ccf5780601f10611ca457610100808354040283529160200191611ccf565b820191906000526020600020905b815481529060010190602001808311611cb257829003601f168201915b505050505090506000611ced60408051602081019091526000815290565b90508051600003611cff575092915050565b815115611d31578082604051602001611d19929190613124565b60405160208183030381529060405292505050919050565b611d3a8461273c565b949350505050565b600b546001600160a01b03163314611d6c5760405162461bcd60e51b8152600401610859906130cb565b6000818152601160205260409020600401805460ff19166001179055611d96600980546001019055565b6040805133815242602082015282917f7b3e57f92a64bfa12c15cfbeddc70d341fcd97a16b9e40d978ac7250d653de1891015b60405180910390a250565b600d5415611e3d5760405162461bcd60e51b815260206004820152603060248201527f496e636f727265637420737461676520666f72206a6f696e44616f2c2077616960448201526f0e840ccdee440dccaf0e8408ae0dec6d60831b6064820152608401610859565b60408051608081018252338152346020820181905291810182905260016060820152600e8054919291600090611e74908490613089565b9091555050336000908152600f6020908152604091829020835181546001600160a01b0319166001600160a01b039091161781559083015160018201559082015160028201556060909101516003909101805460ff1916911515919091179055565b6001600160a01b03918216600090815260056020908152604080832093909416825291909152205460ff1690565b60606000611f1160075490565b905060008060005b83811015611f705760116000611f30836001613089565b815260208101919091526040016000206004015460ff161515600103611f5e57611f5b600184613089565b92505b80611f688161309c565b915050611f19565b5060008267ffffffffffffffff811115611f8c57611f8c612b11565b604051908082528060200260200182016040528015611fc557816020015b611fb26129b2565b815260200190600190039081611faa5790505b50905060005b848110156113325760116000611fe2836001613089565b815260208101919091526040016000206004015460ff1615156001036120a057600061200f826001613089565b600081815260116020908152604091829020825160a0810184528154815260018201546001600160a01b039081169382019390935260028201549092169282019290925260038201546060820152600482015460ff161515608082015285519293509091859087908110612085576120856130b5565b602090810291909101015261209b600186613089565b945050505b806120aa8161309c565b915050611fcb565b60008061072660085490565b6000818152600260205260409020546001600160a01b0316611a9d5760405162461bcd60e51b8152602060048201526018602482015277115490cdcc8c4e881a5b9d985b1a59081d1bdad95b88125160421b6044820152606401610859565b600081815260046020526040902080546001600160a01b0319166001600160a01b03841690811790915581906121528261111e565b6001600160a01b03167f8c5be1e5ebec7d5bd14f71427d1e84f3dd0314c0f7b2291e5b200ac8c7c3b92560405160405180910390a45050565b6000806121978361111e565b9050806001600160a01b0316846001600160a01b031614806121be57506121be8185611ed6565b80611d3a5750836001600160a01b03166121d7846107be565b6001600160a01b031614949350505050565b826001600160a01b03166121fc8261111e565b6001600160a01b0316146122605760405162461bcd60e51b815260206004820152602560248201527f4552433732313a207472616e736665722066726f6d20696e636f72726563742060448201526437bbb732b960d91b6064820152608401610859565b6001600160a01b0382166122c25760405162461bcd60e51b8152602060048201526024808201527f4552433732313a207472616e7366657220746f20746865207a65726f206164646044820152637265737360e01b6064820152608401610859565b6122cd60008261211d565b6001600160a01b03831660009081526003602052604081208054600192906122f6908490613153565b90915550506001600160a01b0382166000908152600360205260408120805460019290612324908490613089565b909155505060008181526002602052604080822080546001600160a01b0319166001600160a01b0386811691821790925591518493918716917fddf252ad1be2c89b69c2b068fc378daa952ba7f163c4a11628f55a4df523b3ef91a4505050565b6001600160a01b0382166123db5760405162461bcd60e51b815260206004820181905260248201527f4552433732313a206d696e7420746f20746865207a65726f20616464726573736044820152606401610859565b6000818152600260205260409020546001600160a01b0316156124405760405162461bcd60e51b815260206004820152601c60248201527f4552433732313a20746f6b656e20616c7265616479206d696e746564000000006044820152606401610859565b6001600160a01b0382166000908152600360205260408120805460019290612469908490613089565b909155505060008181526002602052604080822080546001600160a01b0319166001600160a01b03861690811790915590518392907fddf252ad1be2c89b69c2b068fc378daa952ba7f163c4a11628f55a4df523b3ef908290a45050565b6000828152600260205260409020546001600160a01b03166125425760405162461bcd60e51b815260206004820152602e60248201527f45524337323155524953746f726167653a2055524920736574206f66206e6f6e60448201526d32bc34b9ba32b73a103a37b5b2b760911b6064820152608401610859565b60008281526006602052604090206108fa8282612fb3565b6040805160a0810182528281523360208083018281523084860181815242606087019081526000608088018181528a82526011909652979097209551865591516001860180546001600160a01b03199081166001600160a01b0393841617909155925160028701805490941691161790915593516003840155516004909201805460ff1916921515929092179091556125f391836121e9565b6040805133815230602082015242918101919091526000606082015281907f5c53df2c71307fea3cb2d42a91d7dd7b6a7afb98864a11e8aba0a5a50eb762e890608001611dc9565b816001600160a01b0316836001600160a01b03160361269c5760405162461bcd60e51b815260206004820152601960248201527f4552433732313a20617070726f766520746f2063616c6c6572000000000000006044820152606401610859565b6001600160a01b03838116600081815260056020908152604080832094871680845294825291829020805460ff191686151590811790915591519182527f17307eab39ab6107e8899845ad3d59bd9653f200f220920489ca2b5937696c31910160405180910390a3505050565b6127148484846121e9565b612720848484846127b0565b611c2c5760405162461bcd60e51b815260040161085990613166565b6060612747826120be565b600061275e60408051602081019091526000815290565b9050600081511161277e57604051806020016040528060008152506127a9565b80612788846128b1565b604051602001612799929190613124565b6040516020818303038152906040525b9392505050565b60006001600160a01b0384163b156128a657604051630a85bd0160e11b81526001600160a01b0385169063150b7a02906127f49033908990889088906004016131b8565b6020604051808303816000875af192505050801561282f575060408051601f3d908101601f1916820190925261282c918101906131f5565b60015b61288c573d80801561285d576040519150601f19603f3d011682016040523d82523d6000602084013e612862565b606091505b5080516000036128845760405162461bcd60e51b815260040161085990613166565b805181602001fd5b6001600160e01b031916630a85bd0160e11b149050611d3a565b506001949350505050565b6060816000036128d85750506040805180820190915260018152600360fc1b602082015290565b8160005b811561290257806128ec8161309c565b91506128fb9050600a83613110565b91506128dc565b60008167ffffffffffffffff81111561291d5761291d612b11565b6040519080825280601f01601f191660200182016040528015612947576020820181803683370190505b5090505b8415611d3a5761295c600183613153565b9150612969600a86613212565b612974906030613089565b60f81b818381518110612989576129896130b5565b60200101906001600160f81b031916908160001a9053506129ab600a86613110565b945061294b565b6040805160a08101825260008082526020820181905291810182905260608101829052608081019190915290565b6001600160e01b031981168114611a9d57600080fd5b600060208284031215612a0857600080fd5b81356127a9816129e0565b60005b83811015612a2e578181015183820152602001612a16565b50506000910152565b60008151808452612a4f816020860160208601612a13565b601f01601f19169290920160200192915050565b6020815260006127a96020830184612a37565b600060208284031215612a8857600080fd5b5035919050565b80356001600160a01b0381168114612aa657600080fd5b919050565b60008060408385031215612abe57600080fd5b612ac783612a8f565b946020939093013593505050565b600080600060608486031215612aea57600080fd5b612af384612a8f565b9250612b0160208501612a8f565b9150604084013590509250925092565b634e487b7160e01b600052604160045260246000fd5b600067ffffffffffffffff80841115612b4257612b42612b11565b604051601f8501601f19908116603f01168101908282118183101715612b6a57612b6a612b11565b81604052809350858152868686011115612b8357600080fd5b858560208301376000602087830101525050509392505050565b600082601f830112612bae57600080fd5b6127a983833560208501612b27565b600080600060608486031215612bd257600080fd5b833567ffffffffffffffff80821115612bea57600080fd5b612bf687838801612b9d565b94506020860135915080821115612c0c57600080fd5b612c1887838801612b9d565b93506040860135915080821115612c2e57600080fd5b50612c3b86828701612b9d565b9150509250925092565b600060208284031215612c5757600080fd5b813567ffffffffffffffff811115612c6e57600080fd5b611d3a84828501612b9d565b602080825282518282018190526000919060409081850190868401855b82811015612ce957815180518552868101516001600160a01b03908116888701528682015116868601526060808201519086015260809081015115159085015260a09093019290850190600101612c97565b5091979650505050505050565b6000610140808352612d0a8184018e612a37565b90508281036020840152612d1e818d612a37565b90508281036040840152612d32818c612a37565b6001600160a01b039a909a1660608401525050608081019690965293151560a086015291151560c085015260e08401526101008301521515610120909101529392505050565b600060208284031215612d8a57600080fd5b6127a982612a8f565b80358015158114612aa657600080fd5b60008060408385031215612db657600080fd5b823567ffffffffffffffff811115612dcd57600080fd5b612dd985828601612b9d565b925050612de860208401612d93565b90509250929050565b60008060408385031215612e0457600080fd5b612e0d83612a8f565b9150612de860208401612d93565b60008060008060808587031215612e3157600080fd5b612e3a85612a8f565b9350612e4860208601612a8f565b925060408501359150606085013567ffffffffffffffff811115612e6b57600080fd5b8501601f81018713612e7c57600080fd5b612e8b87823560208401612b27565b91505092959194509250565b60008060408385031215612eaa57600080fd5b612eb383612a8f565b9150612de860208401612a8f565b600181811c90821680612ed557607f821691505b602082108103612ef557634e487b7160e01b600052602260045260246000fd5b50919050565b6020808252602e908201527f4552433732313a2063616c6c6572206973206e6f7420746f6b656e206f776e6560408201526d1c881b9bdc88185c1c1c9bdd995960921b606082015260800190565b60008251612f5b818460208701612a13565b9190910192915050565b601f8211156108fa57600081815260208120601f850160051c81016020861015612f8c5750805b601f850160051c820191505b81811015612fab57828155600101612f98565b505050505050565b815167ffffffffffffffff811115612fcd57612fcd612b11565b612fe181612fdb8454612ec1565b84612f65565b602080601f8311600181146130165760008415612ffe5750858301515b600019600386901b1c1916600185901b178555612fab565b600085815260208120601f198616915b8281101561304557888601518255948401946001909101908401613026565b50858210156130635787850151600019600388901b60f8161c191681555b5050505050600190811b01905550565b634e487b7160e01b600052601160045260246000fd5b8082018082111561072657610726613073565b6000600182016130ae576130ae613073565b5060010190565b634e487b7160e01b600052603260045260246000fd5b6020808252601590820152744f6e6c792061646d696e2063616e2063726561746560581b604082015260600190565b634e487b7160e01b600052601260045260246000fd5b60008261311f5761311f6130fa565b500490565b60008351613136818460208801612a13565b83519083019061314a818360208801612a13565b01949350505050565b8181038181111561072657610726613073565b60208082526032908201527f4552433732313a207472616e7366657220746f206e6f6e20455243373231526560408201527131b2b4bb32b91034b6b83632b6b2b73a32b960711b606082015260800190565b6001600160a01b03858116825284166020820152604081018390526080606082018190526000906131eb90830184612a37565b9695505050505050565b60006020828403121561320757600080fd5b81516127a9816129e0565b600082613221576132216130fa565b50069056fea2646970667358221220985ef1f80ab855beaa5ec3165cb9d4851a1e3c7e86fddf465d973bb00967397664736f6c63430008110033",
  "linkReferences": {},
  "deployedLinkReferences": {}
}