{
  "_format": "hh-sol-artifact-1",
  "contractName": "DealRewarder",
  "sourceName": "contracts/filecoin-api-examples/DealRewarder.sol",
  "abi": [
    {
      "inputs": [],
      "stateMutability": "nonpayable",
      "type": "constructor"
    },
    {
      "inputs": [
        {
          "internalType": "bytes",
          "name": "cidraw",
          "type": "bytes"
        },
        {
          "internalType": "uint256",
          "name": "size",
          "type": "uint256"
        }
      ],
      "name": "addCID",
      "outputs": [],
      "stateMutability": "nonpayable",
      "type": "function"
    },
    {
      "inputs": [
        {
          "internalType": "bytes",
          "name": "cidraw",
          "type": "bytes"
        },
        {
          "internalType": "uint64",
          "name": "provider",
          "type": "uint64"
        },
        {
          "internalType": "uint256",
          "name": "size",
          "type": "uint256"
        }
      ],
      "name": "authorizeData",
      "outputs": [],
      "stateMutability": "nonpayable",
      "type": "function"
    },
    {
      "inputs": [
        {
          "internalType": "uint64",
          "name": "method",
          "type": "uint64"
        },
        {
          "internalType": "uint256",
          "name": "value",
          "type": "uint256"
        },
        {
          "internalType": "uint64",
          "name": "flags",
          "type": "uint64"
        },
        {
          "internalType": "uint64",
          "name": "codec",
          "type": "uint64"
        },
        {
          "internalType": "bytes",
          "name": "params",
          "type": "bytes"
        },
        {
          "internalType": "uint64",
          "name": "id",
          "type": "uint64"
        }
      ],
      "name": "call_actor_id",
      "outputs": [
        {
          "internalType": "bool",
          "name": "",
          "type": "bool"
        },
        {
          "internalType": "int256",
          "name": "",
          "type": "int256"
        },
        {
          "internalType": "uint64",
          "name": "",
          "type": "uint64"
        },
        {
          "internalType": "bytes",
          "name": "",
          "type": "bytes"
        }
      ],
      "stateMutability": "nonpayable",
      "type": "function"
    },
    {
      "inputs": [
        {
          "internalType": "bytes",
          "name": "",
          "type": "bytes"
        },
        {
          "internalType": "uint64",
          "name": "",
          "type": "uint64"
        }
      ],
      "name": "cidProviders",
      "outputs": [
        {
          "internalType": "bool",
          "name": "",
          "type": "bool"
        }
      ],
      "stateMutability": "view",
      "type": "function"
    },
    {
      "inputs": [
        {
          "internalType": "bytes",
          "name": "",
          "type": "bytes"
        }
      ],
      "name": "cidSet",
      "outputs": [
        {
          "internalType": "bool",
          "name": "",
          "type": "bool"
        }
      ],
      "stateMutability": "view",
      "type": "function"
    },
    {
      "inputs": [
        {
          "internalType": "bytes",
          "name": "",
          "type": "bytes"
        }
      ],
      "name": "cidSizes",
      "outputs": [
        {
          "internalType": "uint256",
          "name": "",
          "type": "uint256"
        }
      ],
      "stateMutability": "view",
      "type": "function"
    },
    {
      "inputs": [
        {
          "internalType": "uint64",
          "name": "deal_id",
          "type": "uint64"
        }
      ],
      "name": "claim_bounty",
      "outputs": [],
      "stateMutability": "nonpayable",
      "type": "function"
    },
    {
      "inputs": [
        {
          "internalType": "uint64",
          "name": "unused",
          "type": "uint64"
        }
      ],
      "name": "fund",
      "outputs": [],
      "stateMutability": "payable",
      "type": "function"
    },
    {
      "inputs": [],
      "name": "owner",
      "outputs": [
        {
          "internalType": "address",
          "name": "",
          "type": "address"
        }
      ],
      "stateMutability": "view",
      "type": "function"
    }
  ],
  "bytecode": "0x608060405234801561001057600080fd5b5033600360006101000a81548173ffffffffffffffffffffffffffffffffffffffff021916908373ffffffffffffffffffffffffffffffffffffffff160217905550612ac9806100616000396000f3fe6080604052600436106100865760003560e01c80638da5cb5b116100595780638da5cb5b146101615780638f8a6d8f1461018c578063b97c601a146101c9578063d4a0cd0a146101f2578063e1fb0bba1461021b57610086565b80631a7fd6c61461008b5780633d7650b2146100c85780634f9c09cc146101055780636aba510b14610121575b600080fd5b34801561009757600080fd5b506100b260048036038101906100ad9190611c94565b610244565b6040516100bf9190611d0b565b60405180910390f35b3480156100d457600080fd5b506100ef60048036038101906100ea9190611d26565b610289565b6040516100fc9190611d0b565b60405180910390f35b61011f600480360381019061011a9190611d6f565b6102bf565b005b34801561012d57600080fd5b5061014860048036038101906101439190611dd2565b6102c2565b6040516101589493929190611f22565b60405180910390f35b34801561016d57600080fd5b506101766103b0565b6040516101839190611faf565b60405180910390f35b34801561019857600080fd5b506101b360048036038101906101ae9190611d26565b6103d6565b6040516101c09190611fd9565b60405180910390f35b3480156101d557600080fd5b506101f060048036038101906101eb9190611ff4565b610404565b005b3480156101fe57600080fd5b50610219600480360381019061021491906120c3565b610579565b005b34801561022757600080fd5b50610242600480360381019061023d9190611d6f565b610636565b005b6002828051602081018201805184825260208301602085012081835280955050505050506020528060005260406000206000915091509054906101000a900460ff1681565b6000818051602081018201805184825260208301602085012081835280955050505050506000915054906101000a900460ff1681565b50565b6000806000606060008073fe0000000000000000000000000000000000000573ffffffffffffffffffffffffffffffffffffffff168c8c8c8c8c8c60405160200161031296959493929190612123565b60405160208183030381529060405260405161032e91906121c7565b600060405180830381855af49150503d8060008114610369576040519150601f19603f3d011682016040523d82523d6000602084013e61036e565b606091505b509150915060008060008380602001905181019061038c919061228f565b92509250925084838383985098509850985050505050509650965096509692505050565b600360009054906101000a900473ffffffffffffffffffffffffffffffffffffffff1681565b6001818051602081018201805184825260208301602085012081835280955050505050506000915090505481565b60008360405161041491906121c7565b908152602001604051809103902060009054906101000a900460ff1661046f576040517f08c379a000000000000000000000000000000000000000000000000000000000815260040161046690612381565b60405180910390fd5b8060018460405161048091906121c7565b908152602001604051809103902054146104cf576040517f08c379a00000000000000000000000000000000000000000000000000000000081526004016104c6906123ed565b60405180910390fd5b6104d983836106d9565b610518576040517f08c379a000000000000000000000000000000000000000000000000000000000815260040161050f9061247f565b60405180910390fd5b600160028460405161052a91906121c7565b908152602001604051809103902060008467ffffffffffffffff1667ffffffffffffffff16815260200190815260200160002060006101000a81548160ff021916908315150217905550505050565b600360009054906101000a900473ffffffffffffffffffffffffffffffffffffffff1673ffffffffffffffffffffffffffffffffffffffff163373ffffffffffffffffffffffffffffffffffffffff16146105d357600080fd5b6001600084846040516105e79291906124c4565b908152602001604051809103902060006101000a81548160ff021916908315150217905550806001848460405161061f9291906124c4565b908152602001604051809103902081905550505050565b600061065960405180602001604052808467ffffffffffffffff1681525061073a565b9050600061067e60405180602001604052808567ffffffffffffffff168152506107be565b90506106a182600001518260000151846020015167ffffffffffffffff16610404565b60006106c460405180602001604052808667ffffffffffffffff16815250610842565b90506106d381600001516108c6565b50505050565b6000806002846040516106ec91906121c7565b908152602001604051809103902060008467ffffffffffffffff1667ffffffffffffffff16815260200190815260200160002060009054906101000a900460ff169050801591505092915050565b610742611a62565b600061074d83610904565b90506000610796634505760a6040518060400160405280600281526020017e0500000000000000000000000000000000000000000000000000000000000081525084607161093c565b90506107a0611a62565b6107b3828261096790919063ffffffff16565b809350505050919050565b6107c6611a86565b60006107d1836109e8565b9050600061081a6337bc36da6040518060400160405280600281526020017e0500000000000000000000000000000000000000000000000000000000000081525084607161093c565b9050610824611a86565b6108378282610a2090919063ffffffff16565b809350505050919050565b61084a611aa3565b600061085583610a5b565b9050600061089e6307a1f0516040518060400160405280600281526020017e0500000000000000000000000000000000000000000000000000000000000081525084607161093c565b90506108a8611aa3565b6108bb8282610a9390919063ffffffff16565b809350505050919050565b6000604051806020016040528060008152509050606090506000670de0b6b3a764000090506108fb6000826000808688610ace565b50505050505050565b606060006109126040610bbc565b905061092b836000015182610be390919063ffffffff16565b61093481610bf3565b915050919050565b606061095d61094a86610c4c565b67ffffffffffffffff1685858534610c56565b9050949350505050565b60008061097d8284610cfb90919063ffffffff16565b809350819250505060008111156109e2576109a18284610d4a90919063ffffffff16565b8560000181945082905250506109c08284610ef490919063ffffffff16565b856020018194508267ffffffffffffffff1667ffffffffffffffff1681525050505b50505050565b606060006109f66040610bbc565b9050610a0f836000015182610be390919063ffffffff16565b610a1881610bf3565b915050919050565b6000610a358183610ef490919063ffffffff16565b846000018193508267ffffffffffffffff1667ffffffffffffffff168152505050505050565b60606000610a696040610bbc565b9050610a82836000015182610be390919063ffffffff16565b610a8b81610bf3565b915050919050565b6000610aa88183610ef490919063ffffffff16565b846000018193508267ffffffffffffffff1667ffffffffffffffff168152505050505050565b6000806000606060008073fe0000000000000000000000000000000000000573ffffffffffffffffffffffffffffffffffffffff168c8c8c8c8c8c604051602001610b1e96959493929190612123565b604051602081830303815290604052604051610b3a91906121c7565b600060405180830381855af49150503d8060008114610b75576040519150601f19603f3d011682016040523d82523d6000602084013e610b7a565b606091505b5091509150600080600083806020019051810190610b98919061228f565b92509250925084838383985098509850985050505050509650965096509692505050565b610bc4611ac0565b610bd2816000015183610f43565b506000816020018181525050919050565b610bef82600083610fbc565b5050565b60606000826020015114610c3c576040517f08c379a0000000000000000000000000000000000000000000000000000000008152600401610c3390612529565b60405180910390fd5b8160000151600001519050919050565b6000819050919050565b6060600080600080610c75610c6a8b610c4c565b8760008a8c8e611165565b935093509350935060008314610c8a84611253565b604051602001610c9a91906125b6565b60405160208183030381529060405290610cea576040517f08c379a0000000000000000000000000000000000000000000000000000000008152600401610ce19190612615565b60405180910390fd5b508094505050505095945050505050565b600080600080610d0b86866112e1565b8167ffffffffffffffff169150809750819350829450505050600460ff168260ff1614610d3b57610d3a612637565b5b80859350935050509250929050565b60606000806000610d5b86866112e1565b8167ffffffffffffffff169150809750819350829450505050600660ff168260ff161480610d8f5750600260ff168260ff16145b610d9c57610d9b612637565b5b600660ff168260ff1603610de557610db486866112e1565b8167ffffffffffffffff169150809750819350829450505050600260ff168260ff1614610de457610de3612637565b5b5b60008186610df39190612695565b905060008267ffffffffffffffff811115610e1157610e10611b29565b5b6040519080825280601f01601f191660200182016040528015610e435781602001600182028036833780820191505090505b5090506000808890505b83811015610ed657898181518110610e6857610e676126c9565b5b602001015160f81c60f81b838381518110610e8657610e856126c9565b5b60200101907effffffffffffffffffffffffffffffffffffffffffffffffffffffffffffff1916908160001a9053508180610ec0906126f8565b9250508080610ece906126f8565b915050610e4d565b50818489610ee49190612695565b9650965050505050509250929050565b600080600080610f0486866112e1565b8167ffffffffffffffff169150809750819350829450505050600060ff168260ff1614610f3457610f33612637565b5b80859350935050509250929050565b610f4b611ae0565b6000602083610f5a919061276f565b14610f8657602082610f6c919061276f565b6020610f7891906127a0565b82610f839190612695565b91505b818360200181815250506040518084526000815282810160200181811015610fad57600080fd5b80604052505082905092915050565b60178167ffffffffffffffff1611610ff757610ff18160058460ff16901b60ff1617846000015161146f90919063ffffffff16565b50611160565b60ff8167ffffffffffffffff16116110555761102a601860058460ff16901b17846000015161146f90919063ffffffff16565b5061104f8167ffffffffffffffff16600185600001516114d99092919063ffffffff16565b5061115f565b61ffff8167ffffffffffffffff16116110b457611089601960058460ff16901b17846000015161146f90919063ffffffff16565b506110ae8167ffffffffffffffff16600285600001516114d99092919063ffffffff16565b5061115e565b63ffffffff8167ffffffffffffffff1611611115576110ea601a60058460ff16901b17846000015161146f90919063ffffffff16565b5061110f8167ffffffffffffffff16600485600001516114d99092919063ffffffff16565b5061115d565b611136601b60058460ff16901b17846000015161146f90919063ffffffff16565b5061115b8167ffffffffffffffff16600885600001516114d99092919063ffffffff16565b505b5b5b5b505050565b6000806000606060008073fe0000000000000000000000000000000000000373ffffffffffffffffffffffffffffffffffffffff168c8c8c8c8c8c6040516020016111b5969594939291906127d4565b6040516020818303038152906040526040516111d191906121c7565b600060405180830381855af49150503d806000811461120c576040519150601f19603f3d011682016040523d82523d6000602084013e611211565b606091505b509150915060008060008380602001905181019061122f919061228f565b92509250925084838383985098509850985050505050509650965096509692505050565b60606000821261127257604051806020016040528060008152506112a9565b6040518060400160405280600181526020017f2d000000000000000000000000000000000000000000000000000000000000008152505b6112ba6112b584611566565b611582565b6040516020016112cb929190612843565b6040516020818303038152906040529050919050565b6000806000806112f18686611650565b90506001856113009190612695565b94506000600560e0831660ff16901c90506000601f83169050601c8160ff161061132d5761132c612637565b5b60188160ff161015611350578181888160ff169150955095509550505050611468565b60188160ff16036113a55760006113678989611650565b90506001886113769190612695565b975060188160ff16101561138d5761138c612637565b5b8281898160ff16915096509650965050505050611468565b60198160ff16036113e65760006113bc89896116b7565b90506002886113cb9190612695565b97508281898161ffff16915096509650965050505050611468565b601a8160ff16036114295760006113fd898961171e565b905060048861140c9190612695565b97508281898163ffffffff16915096509650965050505050611468565b601b8160ff161461143d5761143c612637565b5b60006114498989611785565b90506008886114589190612695565b9750828189965096509650505050505b9250925092565b611477611ae0565b6000836000015151905060006001826114909190612695565b9050846020015182106114b4576114b3856002836114ae9190612867565b6117ec565b5b845160208382010185815381518311156114cc578282525b5050849250505092915050565b6114e1611ae0565b60008460000151519050600081846114f99190612695565b9050856020015181111561151e5761151d866002836115189190612867565b6117ec565b5b600060018561010061153091906129dc565b61153a91906127a0565b905086518281018783198251161781528151841115611557578382525b50508693505050509392505050565b600080821215611579578160000361157b565b815b9050919050565b60606000600161159184611810565b01905060008167ffffffffffffffff8111156115b0576115af611b29565b5b6040519080825280601f01601f1916602001820160405280156115e25781602001600182028036833780820191505090505b509050600082602001820190505b600115611645578080600190039150507f3031323334353637383961626364656600000000000000000000000000000000600a86061a8153600a858161163957611638612740565b5b049450600085036115f0575b819350505050919050565b600060018261165f9190612695565b835110156116a2576040517f08c379a000000000000000000000000000000000000000000000000000000000815260040161169990612a73565b60405180910390fd5b60008260010184015190508091505092915050565b60006002826116c69190612695565b83511015611709576040517f08c379a000000000000000000000000000000000000000000000000000000000815260040161170090612a73565b60405180910390fd5b60008260020184015190508091505092915050565b600060048261172d9190612695565b83511015611770576040517f08c379a000000000000000000000000000000000000000000000000000000000815260040161176790612a73565b60405180910390fd5b60008260040184015190508091505092915050565b60006008826117949190612695565b835110156117d7576040517f08c379a00000000000000000000000000000000000000000000000000000000081526004016117ce90612a73565b60405180910390fd5b60008260080184015190508091505092915050565b6000826000015190506117ff8383610f43565b5061180a8382611963565b50505050565b600080600090507a184f03e93ff9f4daa797ed6e38ed64bf6a1f010000000000000000831061186e577a184f03e93ff9f4daa797ed6e38ed64bf6a1f010000000000000000838161186457611863612740565b5b0492506040810190505b6d04ee2d6d415b85acef810000000083106118ab576d04ee2d6d415b85acef810000000083816118a1576118a0612740565b5b0492506020810190505b662386f26fc1000083106118da57662386f26fc1000083816118d0576118cf612740565b5b0492506010810190505b6305f5e1008310611903576305f5e10083816118f9576118f8612740565b5b0492506008810190505b612710831061192857612710838161191e5761191d612740565b5b0492506004810190505b6064831061194b576064838161194157611940612740565b5b0492506002810190505b600a831061195a576001810190505b80915050919050565b61196b611ae0565b6119778383845161197f565b905092915050565b611987611ae0565b825182111561199557600080fd5b60008460000151519050600083826119ad9190612695565b905085602001518111156119d2576119d1866002836119cc9190612867565b6117ec565b5b600080875180518560208301019350808511156119ed578482525b60208901925050505b60208610611a345780518252602082611a0f9190612695565b9150602081611a1e9190612695565b9050602086611a2d91906127a0565b95506119f6565b60006001876020036101000a0390508019825116818451168181178552505050879450505050509392505050565b604051806040016040528060608152602001600067ffffffffffffffff1681525090565b6040518060200160405280600067ffffffffffffffff1681525090565b6040518060200160405280600067ffffffffffffffff1681525090565b6040518060400160405280611ad3611ae0565b8152602001600081525090565b604051806040016040528060608152602001600081525090565b6000604051905090565b600080fd5b600080fd5b600080fd5b600080fd5b6000601f19601f8301169050919050565b7f4e487b7100000000000000000000000000000000000000000000000000000000600052604160045260246000fd5b611b6182611b18565b810181811067ffffffffffffffff82111715611b8057611b7f611b29565b5b80604052505050565b6000611b93611afa565b9050611b9f8282611b58565b919050565b600067ffffffffffffffff821115611bbf57611bbe611b29565b5b611bc882611b18565b9050602081019050919050565b82818337600083830152505050565b6000611bf7611bf284611ba4565b611b89565b905082815260208101848484011115611c1357611c12611b13565b5b611c1e848285611bd5565b509392505050565b600082601f830112611c3b57611c3a611b0e565b5b8135611c4b848260208601611be4565b91505092915050565b600067ffffffffffffffff82169050919050565b611c7181611c54565b8114611c7c57600080fd5b50565b600081359050611c8e81611c68565b92915050565b60008060408385031215611cab57611caa611b04565b5b600083013567ffffffffffffffff811115611cc957611cc8611b09565b5b611cd585828601611c26565b9250506020611ce685828601611c7f565b9150509250929050565b60008115159050919050565b611d0581611cf0565b82525050565b6000602082019050611d206000830184611cfc565b92915050565b600060208284031215611d3c57611d3b611b04565b5b600082013567ffffffffffffffff811115611d5a57611d59611b09565b5b611d6684828501611c26565b91505092915050565b600060208284031215611d8557611d84611b04565b5b6000611d9384828501611c7f565b91505092915050565b6000819050919050565b611daf81611d9c565b8114611dba57600080fd5b50565b600081359050611dcc81611da6565b92915050565b60008060008060008060c08789031215611def57611dee611b04565b5b6000611dfd89828a01611c7f565b9650506020611e0e89828a01611dbd565b9550506040611e1f89828a01611c7f565b9450506060611e3089828a01611c7f565b935050608087013567ffffffffffffffff811115611e5157611e50611b09565b5b611e5d89828a01611c26565b92505060a0611e6e89828a01611c7f565b9150509295509295509295565b6000819050919050565b611e8e81611e7b565b82525050565b611e9d81611c54565b82525050565b600081519050919050565b600082825260208201905092915050565b60005b83811015611edd578082015181840152602081019050611ec2565b60008484015250505050565b6000611ef482611ea3565b611efe8185611eae565b9350611f0e818560208601611ebf565b611f1781611b18565b840191505092915050565b6000608082019050611f376000830187611cfc565b611f446020830186611e85565b611f516040830185611e94565b8181036060830152611f638184611ee9565b905095945050505050565b600073ffffffffffffffffffffffffffffffffffffffff82169050919050565b6000611f9982611f6e565b9050919050565b611fa981611f8e565b82525050565b6000602082019050611fc46000830184611fa0565b92915050565b611fd381611d9c565b82525050565b6000602082019050611fee6000830184611fca565b92915050565b60008060006060848603121561200d5761200c611b04565b5b600084013567ffffffffffffffff81111561202b5761202a611b09565b5b61203786828701611c26565b935050602061204886828701611c7f565b925050604061205986828701611dbd565b9150509250925092565b600080fd5b600080fd5b60008083601f84011261208357612082611b0e565b5b8235905067ffffffffffffffff8111156120a05761209f612063565b5b6020830191508360018202830111156120bc576120bb612068565b5b9250929050565b6000806000604084860312156120dc576120db611b04565b5b600084013567ffffffffffffffff8111156120fa576120f9611b09565b5b6121068682870161206d565b9350935050602061211986828701611dbd565b9150509250925092565b600060c0820190506121386000830189611e94565b6121456020830188611fca565b6121526040830187611e94565b61215f6060830186611e94565b81810360808301526121718185611ee9565b905061218060a0830184611e94565b979650505050505050565b600081905092915050565b60006121a182611ea3565b6121ab818561218b565b93506121bb818560208601611ebf565b80840191505092915050565b60006121d38284612196565b915081905092915050565b6121e781611e7b565b81146121f257600080fd5b50565b600081519050612204816121de565b92915050565b60008151905061221981611c68565b92915050565b600061223261222d84611ba4565b611b89565b90508281526020810184848401111561224e5761224d611b13565b5b612259848285611ebf565b509392505050565b600082601f83011261227657612275611b0e565b5b815161228684826020860161221f565b91505092915050565b6000806000606084860312156122a8576122a7611b04565b5b60006122b6868287016121f5565b93505060206122c78682870161220a565b925050604084015167ffffffffffffffff8111156122e8576122e7611b09565b5b6122f486828701612261565b9150509250925092565b600082825260208201905092915050565b7f636964206d757374206265206164646564206265666f726520617574686f726960008201527f7a696e6700000000000000000000000000000000000000000000000000000000602082015250565b600061236b6024836122fe565b91506123768261230f565b604082019050919050565b6000602082019050818103600083015261239a8161235e565b9050919050565b7f646174612073697a65206d757374206d61746368206578706563746564000000600082015250565b60006123d7601d836122fe565b91506123e2826123a1565b602082019050919050565b60006020820190508181036000830152612406816123ca565b9050919050565b7f6465616c206661696c656420706f6c69637920636865636b3a2068617320707260008201527f6f766964657220616c726561647920636c61696d65642074686973206369643f602082015250565b60006124696040836122fe565b91506124748261240d565b604082019050919050565b600060208201905081810360008301526124988161245c565b9050919050565b60006124ab838561218b565b93506124b8838584611bd5565b82840190509392505050565b60006124d182848661249f565b91508190509392505050565b7f496e76616c69642043424f520000000000000000000000000000000000000000600082015250565b6000612513600c836122fe565b915061251e826124dd565b602082019050919050565b6000602082019050818103600083015261254281612506565b9050919050565b7f6163746f72206572726f7220636f646520000000000000000000000000000000815250565b600081519050919050565b600081905092915050565b60006125908261256f565b61259a818561257a565b93506125aa818560208601611ebf565b80840191505092915050565b60006125c182612549565b6011820191506125d18284612585565b915081905092915050565b60006125e78261256f565b6125f181856122fe565b9350612601818560208601611ebf565b61260a81611b18565b840191505092915050565b6000602082019050818103600083015261262f81846125dc565b905092915050565b7f4e487b7100000000000000000000000000000000000000000000000000000000600052600160045260246000fd5b7f4e487b7100000000000000000000000000000000000000000000000000000000600052601160045260246000fd5b60006126a082611d9c565b91506126ab83611d9c565b92508282019050808211156126c3576126c2612666565b5b92915050565b7f4e487b7100000000000000000000000000000000000000000000000000000000600052603260045260246000fd5b600061270382611d9c565b91507fffffffffffffffffffffffffffffffffffffffffffffffffffffffffffffffff820361273557612734612666565b5b600182019050919050565b7f4e487b7100000000000000000000000000000000000000000000000000000000600052601260045260246000fd5b600061277a82611d9c565b915061278583611d9c565b92508261279557612794612740565b5b828206905092915050565b60006127ab82611d9c565b91506127b683611d9c565b92508282039050818111156127ce576127cd612666565b5b92915050565b600060c0820190506127e96000830189611e94565b6127f66020830188611fca565b6128036040830187611e94565b6128106060830186611e94565b81810360808301526128228185611ee9565b905081810360a08301526128368184611ee9565b9050979650505050505050565b600061284f8285612585565b915061285b8284612585565b91508190509392505050565b600061287282611d9c565b915061287d83611d9c565b925082820261288b81611d9c565b915082820484148315176128a2576128a1612666565b5b5092915050565b60008160011c9050919050565b6000808291508390505b6001851115612900578086048111156128dc576128db612666565b5b60018516156128eb5780820291505b80810290506128f9856128a9565b94506128c0565b94509492505050565b60008261291957600190506129d5565b8161292757600090506129d5565b816001811461293d576002811461294757612976565b60019150506129d5565b60ff84111561295957612958612666565b5b8360020a9150848211156129705761296f612666565b5b506129d5565b5060208310610133831016604e8410600b84101617156129ab5782820a9050838111156129a6576129a5612666565b5b6129d5565b6129b884848460016128b6565b925090508184048111156129cf576129ce612666565b5b81810290505b9392505050565b60006129e782611d9c565b91506129f283611d9c565b9250612a1f7fffffffffffffffffffffffffffffffffffffffffffffffffffffffffffffffff8484612909565b905092915050565b7f736c6963696e67206f7574206f662072616e6765000000000000000000000000600082015250565b6000612a5d6014836122fe565b9150612a6882612a27565b602082019050919050565b60006020820190508181036000830152612a8c81612a50565b905091905056fea2646970667358221220c1e8589e7029bf5278c2fa1dff2ef266f55ee4e02141451fcc26b0f886e452b364736f6c63430008110033",
  "linkReferences": {},
  "deployedLinkReferences": {}
}